:400000000080002011000000D5000000D500000080B500AF47F2BC63C4F2000344F2FA62C4F2000212681A6000F058F810B5054C237833B9044810B10448AFF300800121B8
:40004000217010BD2081FF1F00000000B01C000008B5064B1BB106480649AFF300800648016811B1054A02B1904708BD00000000B01C00002481FF1F0881FF1F00000000B1
:4000800080B582B000AF01F075FC00F0C3FF4FF0170001F03DFB0346FB71FB79184601F05DFBFB79184641F6B441C0F2000101F0EDFB4FF00A0001F053FDFB79184601F0F0
:4000C0007BFB4FF0640001F04BFDFB79184601F091FADCE780B400AFFEE700BF80B586B000AF40F20103C0F200037B6141F6D853C0F200033B6140F20103C0F200037B61BB
:4001000041F6D853C0F200033B613BE03B691B68FB603B695B68BB603B699B683B604FF000037B600FE0FB681A68BB681A60BB6803F10403BB60FB6803F10403FB607B6848
:4001400003F104037B607A683B689A42EBD13B69DB683B604FF000037B600BE0BB684FF000021A60BB6803F10403BB607B6803F104037B607A683B689A42EFD13B6903F179
:4001800010033B617B69002B0CBF00230123DBB27A6902F1FF327A61002BB7D101F048FDFFF76EFFFEE700BF80B582B000AF4EF60C53CEF200034FF48062C0F2FA521A60F7
:4001C0004EF61453CEF200034EF61452CEF20002126842F400721A604FF000037B6019E07B68032B07D840F20003C0F200037A6853F8223003E040F2D503C0F2000348F23E
:400200000002C1F6FF72796842F821307B6803F101037B607B682F2BE2D947F2BC63C4F200031B78DAB248F20413C1F6FF731A704EF60853CEF2000348F20002C1F6FF7280
:400240001A6000F043F948F20013C1F6FF734FF000021A6007F10807BD4680BD80B582B000AF7860396078684FF000013A6801F00EFD07F10807BD4680BD00BF80B584B0AC
:4002800000AFF860B9607A60F868B9687A6801F0F5FC07F11007BD4680BD00BF80B483B000AF0346FB71FEE780B487B000AF786039604FF000033B614FF000037B612CE0AE
:4002C0007B694FEA83037A68D3181B68BB60BB68FB73BB6823F0FF03BB6017E03B694FEA43033A68D3181B781A46BB68D3183A694FEA420239688A1852781A703B6903F115
:4003000001033B61FB7B03F1FF33FB73FB7B002BE4D17B6903F101037B617B690D2BCFD907F11C07BD4680BC704700BF80B582B000AF4FF48143C4F200034FF020021A80A0
:4003400044F28203C4F200034FF018021A704FF48643C4F200034FF002021A704FF040234FF008021A704FF48443C4F200034FF003021A7044F2A163C4F200034FF4847262
:40038000C4F600121278D2B21A7044F22223C4F2000340F242221A8044F22023C4F2000341F251221A804FF00003FB704FF019037B6019E0FB784FEA4303DAB244F225232B
:4003C000C4F200031B78DBB203F00103DBB21343DBB203F00303FB704FF4F07001F0ACFB7B6803F1FF337B607B68002B02D0FB78032BDFD17B68002B03D14FF00300FFF7EF
:400400004DFF44F20403C4F200034FF480721A8044F20403C4F200034FF007021A7044F20603C4F200034FF000021A7044F20803C4F200034FF048021A7044F20403C4F220
:4004400000034FF000021A7044F20103C4F200034FF002021A7044F2A233C4F2000344F2A232C4F200021278D2B242F00102D2B21A7007F10807BD4680BD00BF80B483B0AA
:4004800000AF40F2CF13C4F600131B78FB7145F66E03C4F20003FA7902F00702D2B21A7045F66F03C4F20003FA794FEA1212D2B21A7045F67603C4F200034FF044021A700C
:4004C00007F10C07BD4680BC704700BF80B586B000AF72B64FF49043C4F200034FF001021A70FFF723FF44F2E863C4F2000344F2E862C4F200021278D2B242F00402D2B20B
:400500001A704FF00003FB7519E0FA7D13464FEA43039B184FEA430341F6D842C0F200029B183B613B691A683B699B889BB210461946FFF793FEFB7D03F10103FB75FB7DE3
:40054000072BE2D94FF00003FB7523E0FA7D13464FEA83039B184FEA430341F60852C0F200029B18FB60FB681B68BB60FB685B687B60FB681A7A5B7A4FEA032313437B8047
:400580007B88B86879681A46FFF778FEFB7D03F10103FB75FB7D002BD8D04FF090404FF03801C4F60001FFF77FFE45F20303C4F2010345F20302C4F201021278D2B242F05F
:4005C0000202D2B21A7045F21303C4F2010345F21302C4F201021278D2B242F00202D2B21A7044F2A033C4F2000344F2A032C4F200021278D2B242F04002D2B21A7044F243
:40060000C233C4F2000344F2C232C4F200021278D2B242F01002D2B21A7045F2C210C4F200004FF42D71C4F600014FF00802FFF725FE45F2F210C4F200004FF42F71C4F681
:4006400000014FF00802FFF719FE45F21210C4F200004FF43171C4F600014FF00802FFF70DFE45F24210C4F200004FF43371C4F600014FF00802FFF701FE45F25010C4F2BE
:4006800000004FF43571C4F600014FF00A02FFF7F5FD45F26010C4F200004FF43871C4F600014FF00A02FFF7E9FD44F22233C4F2000344F22232C4F200021278D2B242F072
:4006C0000802D2B21A70FFF7D9FE44F2B030C4F2000044F2A031C4F200014FF00E02FFF7CDFD07F11807BD4680BD00BF80B500AF4FF0FE0001F06CFA80BD00BF80B500AF0E
:4007000003E04FF0010001F04FFA01F055F9034603F01103002BF4D04FF0FF0001F058FA80BD00BF80B586B000AFF860B9601346FB8003E04FF0010001F036FA01F03CF998
:40074000034603F01103002BF4D001F0FFF903463B74FB687B82FB684FEA1343DBB203F01F037B744FF00003FB824FF00003BB82FFF7BCFF01F06CF9FB88FB827B7C4FEA01
:40078000C303DBB243F00403DBB27B747B8A4FEA13239BB2DBB2184601F02EF97B8ADBB2184601F029F97B7C184601F025F900BF01F002F9034603F00403002BF8D0BB8ADF
:4007C000BA68D3181B78BA8A02F10102BA82184601F012F9FB8803F1FF33FB80FB8A03F1FF33FB827B8A03F101037B82FB8A002BDDD103E04FF0010001F0D6F901F0DCF83D
:40080000034603F01103002BF4D0FFF777FFFB88002BADD13B7C184601F09CF907F11807BD4680BD80B588B000AFF860B9601346FB8003E04FF0010001F0B6F901F0BCF826
:40084000034603F01103002BF4D0FB68BB83FB684FEA1343DBB203F01F037B754FF00003FB83FFF743FF01F0F3F84FF00003FB824FF003037B76FB887B824FF000037B838B
:40088000BB8B4FEA13239BB2DBB2184601F0B4F8BB8BDBB2184601F0AFF87B7D4FEAC303DBB2184601F0A8F83CE07A8B7B8A9A420FD24FF0000001F09FF8BB8B03F101038A
:4008C000BB83FB8803F1FF33FB807B8B03F101037B8300BF01F080F8034603F02003002BF8D001F0A5F803467B74FB8BBA68D3187A7C1A707B7E002B04D07B7E03F1FF3330
:400900007B760FE04FF0010001F072F9FB8A03F10103FB82FB8B03F10103FB834FF0000001F066F9FA8A7B8A9A42BED3FFF7E6FEFB88002B95D107F12007BD4680BD00BFB4
:4009400080B584B000AF78600B467B807B884FEA03239AB27B884FEA13239BB29BB213439BB29BB2FB8107F10E03786819464FF00202FFF7D7FE07F11007BD4680BD00BFB1
:4009800080B584B000AF786007F10E03786819464FF00202FFF746FFFB894FEA03239AB2FB894FEA13239BB29BB213439BB29BB2FB81FB89184607F11007BD4680BD00BF69
:4009C00080B582B000AF78604FF0090079684FF00602FFF7A7FE07F10807BD4680BD00BF80B582B000AF786007F104034FF0010019464FF00402FFF795FE07F10807BD4694
:400A000080BD00BF80B582B000AF786007F104034FF0050019464FF00402FFF783FE07F10807BD4680BD00BF80B582B000AF786007F104034FF00F0019464FF00402FFF793
:400A400071FE07F10807BD4680BD00BF80B582B000AF0346FB7107F107034FF0000019464FF00102FFF75EFE07F10807BD4680BD80B582B000AF0346FB7107F107034FF0AF
:400A8000150019464FF00102FFF74CFE07F10807BD4680BD80B582B000AF02460B46FA71BB71FA7941F65453C0F2000353F8223003F11E0207F10603104619464FF0010204
:400AC000FFF730FE07F10807BD4680BD80B582B000AF02460B46FA71BB71FA7941F65453C0F2000353F8223003F11F0207F10603104619464FF00102FFF714FE07F1080786
:400B0000BD4680BD80B582B000AF02460B46FA71BB71FA7941F65453C0F2000353F8222007F10603104619464FF00102FFF7FAFD07F10807BD4680BD80B582B000AF024612
:400B40000B46FA71BB71FA7941F65453C0F2000353F8223003F1010207F10603104619464FF00102FFF7DEFD07F10807BD4680BD80B584B000AF0346FB714FF0FF03FB7367
:400B8000FA7941F65453C0F2000353F8223003F1010207F10F03104619464FF00102FFF741FEFB7B184607F11007BD4680BD00BF80B582B000AF02460B46FA71BB71FA79CA
:400BC00041F65453C0F2000353F8223003F1020207F10603104619464FF00102FFF7A2FD07F10807BD4680BD80B584B000AF0346FB714FF0FF03FB73FA7941F65453C0F27A
:400C0000000353F8223003F1020207F10F03104619464FF00102FFF705FEFB7B184607F11007BD4680BD00BF80B584B000AF0346FB714FF0FF03FB73FA7941F65453C0F2C1
:400C4000000353F8223003F1030207F10F03104619464FF00102FFF7E5FDFB7B184607F11007BD4680BD00BF80B582B000AF02460B46FA71BB80FA7941F65453C0F20003C5
:400C800053F8223003F10402BB8810461946FFF757FE07F10807BD4680BD00BF80B582B000AF0346FB71FA7941F65453C0F2000353F8223003F120031846FFF761FE0346D3
:400CC000184607F10807BD4680BD00BF80B582B000AF02460B46FA71BB80FA7941F65453C0F2000353F8223003F12402BB8810461946FFF725FE07F10807BD4680BD00BF67
:400D000080B582B000AF0346FB71FA7941F65453C0F2000353F8223003F124031846FFF72FFE0346184607F10807BD4680BD00BF80B582B000AF02460B46FA71BB80FA7934
:400D400041F65453C0F2000353F8223003F12802BB8810461946FFF7F3FD07F10807BD4680BD00BF80B483B000AF02460B46FA71BB8007F10C07BD4680BC704780B582B084
:400D800000AF02460B46FA71BB80FA7941F65453C0F2000353F8223003F12202BB8810461946FFF7CDFD07F10807BD4680BD00BF80B584B000AF03463960FB714FF0000324
:400DC000FB603B68DBB2FA7910461946FFF7B4FE07E0FB6803F10103FB604FF0010000F0BFFEFB791846FFF7C3FE0346002B02D0FB687C2BEDD9FB68184607F11007BD469C
:400E000080BD00BF80B584B000AF0346FB714FF00003BB814FF00003FB81FB791846FFF73DFF0346BB81BB89002B05D0FB791846FFF734FF0346FB81BA89FB899A42ECD1C0
:400E4000FB89184607F11007BD4680BD80B586B000AFBA600246FA730A46BA81FB80FB7B1846FFF74DFF03461A46BB89D318FB82FB8A4FEA43534FEA5353BB82FA7B41F6CB
:400E80001453C0F2000353F822309AB2BB8AD3187B82BB8AC3F500633B82FA883B8A9A421AD97A8A3B8A1046B9681A46FFF73AFCFA7B41F61453C0F2000353F822103B8AF7
:400EC000BA68D218F8883B8AC31A9BB2084611461A46FFF727FC06E07A8AFB881046B9681A46FFF71FFCFA8AFB88D318FB82FA7BFB8A10461946FFF7E9FE07F11807BD46EF
:400F000080BD00BF80B586B000AFF860B9607A603B604FF0FA0000F023FE4FF08000FFF795FD4FF00A0000F01BFE4FF000037B614EE07B69DBB2184600F05CFB7B69DBB2FF
:400F400018464FF00201FFF7C1FD7B69DBB218464FF00201FFF79EFD7B69DAB241F63453C0F20003796953F821309BB210461946FFF7DEFE7B69DAB241F63453C0F2000363
:400F8000796953F821309BB210461946FFF7EAFE7B69DAB241F61453C0F20003796953F821309BB210461946FFF7E8FE7B69DAB241F61453C0F20003796953F821309BB226
:400FC00010461946FFF782FE7B6903F101037B617B69072BADDD3868FFF702FD7868FFF711FD48F28813C1F6FF737A681A60F868FFF7E6FCB868FFF717FD4FF0FF00FFF705
:4010000037FD4FF00000FFF7FDFC07F11807BD4680BD00BF80B584B000AF48F23C13C1F6FF731B78002B01D100F0A4FC4FF00A0000F096FD41F67450C0F2000048F240114A
:40104000C1F6FF7100F0F8F80346062B29D148F24013C1F6FF734FF000021A7048F24013C1F6FF734FF0DE025A7048F24013C1F6FF734FF0AD029A7048F24013C1F6FF7371
:401080004FF0C002DA7048F24013C1F6FF734FF0DE021A7148F24013C1F6FF734FF000025A7141F68850C0F2000000F01DF8F86041F69850C0F2000000F016F8B86041F687
:4010C000A850C0F2000000F00FF8786048F24010C1F6FF70F968BA687B68FFF713FF07F11007BD4680BD00BF90B589B000AF78604FF00003FB614FF000037B614FF0000348
:40110000BB616FE0FB697A68D3181B782F2B18D9FB697A68D3181B78392B12D87B69032B02DD4FF0FF3381E0FB697A68D3181A7807F10C017B69CB181A707B6903F101036B
:401140007B61FB697A68D3181B782E2B07D0FB6903F101037A68D3181B78002B3ED107F10C027B69D3184FF000021A704FF000037B6107F10802BB69D3184FF000021A700F
:401180001EE007F10802BB69D3181B781A464FEA8202D3184FEA4303DAB207F10C017B69CB181B78D318DBB2A3F13003DAB207F10801BB69CB181A707B6903F101037B6106
:4011C00007F10C027B69D3181B78002BD9D14FF000037B61BB6903F10103BB61FB6903F10103FB61BB69032B06DCFC69786800F056FD03469C4285D3BB69042B02D04FF005
:40120000FF3313E03B7A1A467B7A4FEA03234FEA03434FEA1343D218BB7A4FEA034303F47F03D218FB7A4FEA0363D318184607F12407BD4690BD00BF80B487B000AF786090
:4012400039604FF00003FB604FF000033B614FF000037B6109E13B697A68D3181B782F2B05D93B697A68D3181B78392B19D93B697A68D3181B78602B05D93B697A68D318DE
:401280001B78662B0DD93B697A68D3181B78402B40F2E4803B697A68D3181B78462B00F2DD807B693A68D2183B697968CB181B782F2B0DD93B697968CB181B78392B07D872
:4012C0003B697968CB181B78A3F13003DBB229E03B697968CB181B78602B0DD93B697968CB181B78662B07D83B697968CB181B78A3F15703DBB215E03B697968CB181B7859
:40130000402B0DD93B697968CB181B78462B07D83B697968CB181B78A3F13703DBB201E04FF0000313703B6903F101033B617B693A68D3187A6939688A1812784FEA02126F
:40134000D2B21A703B697A68D3181B782F2B05D93B697A68D3181B78392B17D93B697A68D3181B78602B05D93B697A68D3181B78662B0BD93B697A68D3181B78402B68D935
:401380003B697A68D3181B78462B62D87B693A68D2187B693968CB1819783B697868C3181B782F2B0DD93B697868C3181B78392B07D83B697868C3181B78A3F13003DBB268
:4013C00029E03B697868C3181B78602B0DD93B697868C3181B78662B07D83B697868C3181B78A3F15703DBB215E03B697868C3181B78402B0DD93B697868C3181B78462B17
:4014000007D83B697868C3181B78A3F13703DBB201E04FF00003CB18DBB213703B6903F101033B617B69042B17DC3B697A68D3181B782D2B08D03B697A68D3181B783A2B8F
:4014400002D04FF00603FB603B6903F101033B6103E04FF00603FB6003E002E04FF00603FB607B6903F101037B617B69052B09DCFB68002B06D13B697A68D3181B78002B8C
:401480007FF4E9AEFB68184607F11C07BD4680BC704700BF80B584B000AF13460246FA710A46BA80BB714FF0FF03FB734FF00003BB6017E0FB7BFF2B10D148F24813C1F6E7
:4014C000FF73BA6813F83230002B07D1FB79042B02D1BB68002B01D0BB68FB73BB6803F10103BB60BB68072BE4DDFB7BFF2B7BD0FA7B48F24813C1F6FF73F97903F83210A9
:40150000FB7B48F24812C1F6FF724FEAC303D318BA795A70FB7B48F24812C1F6FF724FEAC303D318BA885A80FB7B48F24812C1F6FF724FEAC303D3184FF000021A71FB7BFC
:4015400018464FF00201FFF7C1FAFB7B18464FF00201FFF79FFA41F63453C0F20003BA6853F822309BB2FA7B10461946FFF7E0FB41F63453C0F20003BA6853F822309BB27C
:40158000FA7B10461946FFF7EDFB41F61453C0F20003BA6853F822309BB2FA7B10461946FFF7ECFB41F61453C0F20003BA6853F822309BB2FA7B10461946FFF787FBFA7B47
:4015C000BB8810461946FFF74FFBFA79BB791343DBB2FA7B10461946FFF794FAFB7B18464FF00101FFF7E4FBFB7B184607F11007BD4680BD80B582B000AF0346FB71FB792F
:40160000072B1FD8FA7948F24813C1F6FF734FF0000103F83210FB7948F24812C1F6FF724FEAC303D3184FF000025A70FB7918464FF01001FFF7BCFBFB7918464FF0FF01CE
:40164000FFF7B6FA07F10807BD4680BD80B584B000AF0346FB71FB791846FFF7E5FA0346FB73FB7B1C2B03D1FB791846FFF7C2FFFB791846FFF7D8FA0346002B14BF002334
:401680000123DBB2184607F11007BD4680BD00BF80B584B000AF0346FB71FB79072B32D848F28813C1F6FF731B681846FFF7AAF9FB7918464FF02001FFF77AFBFB791846A9
:4016C000FFF792FA0346FB7309E04FF0010000F047FAFB791846FFF787FA0346FB73FB7B03F01003002B04D1FB7B03F00A03002BEBD0FB7918464FF01001FFF759FA4FF0D5
:401700000000FFF77FF907F11007BD4680BD00BF80B582B000AF0346FB80FB884FF0010019464FF00002FFF7B5FE0346184607F10807BD4680BD00BF80B582B000AF03463B
:40174000FB71FB79072B05D8FB7918464FF00201FFF72EFB07F10807BD4680BD80B584B000AF0346FB71FB79072B1FD8FB791846FFF7E2FFFB791846FFF756FA0346FB731E
:401780000DE04FF0010000F0EBF9FB791846FFF75DFFFB791846FFF747FA0346FB73FB7B172B04D0FB7B002BEBD100E000BF07F11007BD4680BD00BF80B582B000AF03464F
:4017C000FB71FB7918464FF00801FFF7F1FA07F10807BD4680BD00BF80B584B000AF396013460246FA71BB80FB79072B02D94FF0000346E0BB88B3F5006F28BF4FF40063B4
:40180000FB81FB791846FFF70FFA0346FB72FB7A172B32D1FA7948F24813C1F6FF7313F83230012B29D14FF00003BB814FF01703FB720BE0FB791846FFF7E4FA0346BB81CD
:40184000FB791846FFF7F0F90346FB72BA89FB899A4205D2FB7A172B02D1FB7A1C2BE9D1FA79FB8910464FF000013A68FFF7EEFAFB791846FFF70CFF02E04FF00003FB8107
:40188000FB89184607F11007BD4680BD80B582B000AF03463960FB71386800F000FA03469BB2FA79104639681A46FFF795FF07F10807BD4680BD00BF80B500AF46F2895321
:4018C000C4F200034FF00F021A7000F0D7F800F073F800F081F846F28843C4F200034FF000021A7046F28943C4F200034FF000021A7080BD80B582B000AF00F027F9034617
:40190000FB7146F29953C4F2000346F29952C4F200021278D2B242F02002D2B21A7046F29843C4F2000346F29842C4F200021278D2B242F01002D2B21A7046F29943C4F253
:40194000000346F29942C4F200021278D2B242F01002D2B21A70FB79184600F0FBF800F0C9F800F01DF800F021F807F10807BD4680BD00BF80B500AF48F23C13C1F6FF7329
:401980001B78002B08D1FFF797FF48F23C13C1F6FF734FF001021A70FFF7ACFF80BD00BF80B400AFBD4680BC704700BF80B400AFBD4680BC704700BF80B483B000AF46F26B
:4019C0006843C4F200031B78FB71FB79184607F10C07BD4680BC704780B483B000AF46F26943C4F200031B78FB71FB79184607F10C07BD4680BC704780B483B000AF0346CD
:401A0000FB7100BF46F26843C4F200031B78DBB203F00403002BF5D046F24953C4F20003FA791A7007F10C07BD4680BC704700BF80B483B000AF46F25953C4F200031B7845
:401A4000FB71FB79184607F10C07BD4680BC704780B400AF04E046F25953C4F200031B7846F26943C4F200031B78DBB203F02003002BF0D1BD4680BC704700BF80B582B055
:401A800000AF04E046F25953C4F200031B7846F26943C4F200031B78DBB203F02003002BF0D100F053F80346FB7146F29953C4F2000346F29952C4F200021278D2B242F0BC
:401AC0000102D2B21A7046F29953C4F2000346F29952C4F200021278D2B222F00102D2B21A70FB79184600F035F807F10807BD4680BD00BF80B400AF44F2A233C4F2000350
:401B000044F2A232C4F200021278D2B242F00102D2B21A7044F2B233C4F2000344F2B232C4F200021278D2B242F00102D2B21A70BD4680BC704700BF0230800800F00580B7
:401B400000BF013800467FF4FCAF7047EFF3108072B6704780F31088704700BFAFF3008080B582B000AF78600BE048F21813C1F6FF731B681846FFF7DFFF7B68A3F5004384
:401B80007B607B68B3F5004FEFD848F21013C1F6FF731B687A6802FB03F31846FFF7CCFF07F10807BD4680BD80B582B000AF0346FB80FA8848F21413C1F6FF731B7803FBEE
:401BC00002F31846FFF7B8FF07F10807BD4680BD80B483B000AF0346FB7146F27943C4F20003FA791A7007F10C07BD4680BC704780B485B000AF0346FB7145F24013C4F21B
:401C000000031B78DBB223F00103FB7345F24013C4F20003FA7902F00102D1B2FA7B0A43D2B21A7007F11407BD4680BC704700BF38B50E4D0E4B0024E81A8510AC4205D017
:401C40000B4951F8242090470134F7E700F0B2F80849094A541AA5100024AC4205D0054B53F8240080470134F7E738BDC01D0000C01D0000C01D0000C81D000010B500235F
:401C8000934203D0CC5CC4540133F9E710BD82180346934202D003F8011BFAE77047034613F8012B002AFBD1181A0138704700000000000048656C6C6F2066726F6D205052
:401CC000536F4320354C5020616E64205735353030210D0A0D0A000000510040100020510040200000000140001000140140800400190140000300400140000A004C0140FA
:401D00000002005001402000801801403402004880000000000002000000060000000A0000000E00000012000000160000001A0000001E00000003000000070000000B0084
:401D400000000F00000013000000170000001B0000001F0000000100000005000000090000000D0000001100000015000000190000001E0030302D64652D61642D62652D0E
:401D800065662D30300000003139322E3136382E302E3130310000003235352E3235352E3235352E300000003139322E3136382E302E3100F8B500BFF8BC08BC9E46704711
:401DC00051000000A9010000F8B500BFF8BC08BC9E4670472D000000E81D00000881FF1F1800000070000000000000008014EF03D0010100420000000000E8800000000006
:401E000000000000000000000000000000000000000000000000000000000000000000000000000000000000000000000000000000000000000000000000000000000000A2
:401E40000000000000000000000000000000000000000000000000000000000000000000000000000000000000000000000000000000000000000000000000000000000062
:401E80000000000000000000000000000000000000000000000000000000000000000000000000000000000000000000000000000000000000000000000000000000000022
:401EC00000000000000000000000000000000000000000000000000000000000000000000000000000000000000000000000000000000000000000000000000000000000E2
:020000040003F7
:0200000480007A
:4000000005520040016500404A0801402E0901400F18014043190140021B0140064401400445014004460140064701400C4C0140074D0140045001400810280C29083090E7
:4000400031C0890F02490407061807060A020C800D040F03102C1213150316B4170418211A0A1D013107323F3440368039023E405409580459045B045F0180A6816C8437B3
:40008000856C86488C848D688F049032911392CD934094A697049819996C9A829D109F68A0A6A301A422A509A684A712A911AA22AB22AC84AD6CAE22B008B103B207B3046D
:4000C000B4F0B610B778B820BB83BE41BF04D440D804D904DB04DF01008001090518064007010A240B400E240F4010801144120819A81A541D101E201F80201022422340E5
:4001000027802969300832523508378039453E043F405E405F26601061206301658069808780C0FDC27EC40FCA0FCC5FCE5BD6F0D81EE002050B071409030B1C0D090F1616
:400140001105130215081710351837073BA059045F0101650A140B0111101262192020442110220823022620270928082949321A3340370939643E143F40404A42144840BE
:4001800049014A024B04500851205240600469556A206B4070807140730187808D4091809214934095459620970499089D419E409F03A202A380A4C8A520A608A808AB0109
:4001C000AC40AF20C00FC207C40FCA0FCCCFCE7ED00FD208D804E408A802EE015F01610263026520D603D80397019D20A502A70197019D20A502A7018502868097019D2074
:40020000A502A7010120668087018D108F0197019A809D20A701C002D601E40855105701A110A301A920D402D60400010C0110011C0100000500000005440010D402200DEF
:40024000001005440005003A0710082418542100055400008000201000170528052300102854420000400030FF0F004000003028000000402503400001CEFB0D1FFFFFFF22
:400280002200F00C040000000000022404040404000000010000C00040011011C00100114001400100000000000000000000000000000000001010000000000000303000EF
:4002C00000000000041010001000000000010100000000000400000C0C000C0000000000F00000F0F000F000000000000000000000000000000000000000000000000000E0
:4003000000000000000000000000000000000000000000000000000000000000000000000000000000000000000000000000000000000000000000000000000000000000BD
:40034000000000000000000000000000000000000000000000000000000000000000000000000000000000000000000000000000000000000000000000000000000000007D
:40038000000000000000000000000000000000000000000000000000000000000000000000000000000000000000000000000000000000000000000000000000000000003D
:4003C00000000000000000000000000000000000000000000000000000000000000000000000000000000000000000000000000000000000000000000000000000000000FD
:0200000490006A
:0400000000004005B7
:0200000490105A
:04000000BC90ACAF55
:0200000490303A
:0200000005D425
:0200000490402A
:4000000000000000000000000000000000000000000000000000000000000000000000000000000000000000000000000000000000000000000000000000000000000000C0
:400040000000000000000000000000000000000000000000000000000000000000000000000000000000000000000000000000000000000000000000000000000000000080
:400080000000000000000000000000000000000000000000000000000000000000000000000000000000000000000000000000000000000000000000000000000000000040
:4000C0000000000000000000000000000000000000000000000000000000000000000000000000000000000000000000000000000000000000000000000000000000000000
:0200000490501A
:0C00000000012E12306900012E20363D58
:00000001FF