:400000000080002011000000E5000000E500000080B500AF47F2BC63C4F2000344F2FA62C4F2000212681A6000F060F810B5054C237833B9044810B10448AFF30080012190
:40004000217010BD2081FF1F00000000B41C000008B5064B1BB106480649AFF300800648016811B1054A02B1904708BD00000000B41C00002481FF1F0881FF1F00000000A9
:4000800080B582B000AF4FF0000001F0A1FD00F087FB4FF0010001F09BFD40F2DC5001F05FFD01F0D9F84FF0170001F04FFC0346FB71FB79184601F06FFCFB79184641F636
:4000C000B841C0F2000101F0FFFC4FF0960001F047FDFB79184601F08DFCFB79184601F0A7FBE0E780B400AFFEE700BF80B586B000AF40F20103C0F200037B6141F6A8534C
:40010000C0F200033B6140F20103C0F200037B6141F6A853C0F200033B613BE03B691B68FB603B695B68BB603B699B683B604FF000037B600FE0FB681A68BB681A60BB6812
:4001400003F10403BB60FB6803F10403FB607B6803F104037B607A683B689A42EBD13B69DB683B604FF000037B600BE0BB684FF000021A60BB6803F10403BB607B6803F162
:4001800004037B607A683B689A42EFD13B6903F110033B617B69002B0CBF00230123DBB27A6902F1FF327A61002BB7D101F042FDFFF766FFFEE700BF80B582B000AF4EF629
:4001C0000C53CEF200034FF48062C0F2FA521A604EF61453CEF200034EF61452CEF20002126842F400721A604FF000037B6019E07B68032B07D840F20003C0F200037A68F8
:4002000053F8223003E040F2E503C0F2000348F20002C1F6FF72796842F821307B6803F101037B607B682F2BE2D947F2BC63C4F200031B78DAB248F20413C1F6FF731A70BD
:400240004EF60853CEF2000348F20002C1F6FF721A6000F043F948F20013C1F6FF734FF000021A6007F10807BD4680BD80B582B000AF7860396078684FF000013A6801F060
:4002800008FD07F10807BD4680BD00BF80B584B000AFF860B9607A60F868B9687A6801F0EFFC07F11007BD4680BD00BF80B483B000AF0346FB71FEE780B487B000AF7860E1
:4002C00039604FF000033B614FF000037B612CE07B694FEA83037A68D3181B68BB60BB68FB73BB6823F0FF03BB6017E03B694FEA43033A68D3181B781A46BB68D3183A6920
:400300004FEA420239688A1852781A703B6903F101033B61FB7B03F1FF33FB73FB7B002BE4D17B6903F101037B617B69132BCFD907F11C07BD4680BC704700BF80B582B058
:4003400000AF4FF48143C4F200034FF003021A8044F28203C4F200034FF018021A704FF48643C4F200034FF002021A704FF040234FF008021A704FF48443C4F200034FF0D0
:4003800003021A7044F2A163C4F200034FF48472C4F600121278D2B21A7044F22223C4F2000340F242221A8044F22023C4F2000341F251221A804FF00003FB704FF0190340
:4003C0007B6019E0FB784FEA4303DAB244F22523C4F200031B78DBB203F00103DBB21343DBB203F00303FB704FF4F07001F0A4FB7B6803F1FF337B607B68002B02D0FB781F
:40040000032BDFD17B68002B03D14FF00300FFF74DFF44F20403C4F200034FF480721A8044F20403C4F200034FF007021A7044F20603C4F200034FF000021A7044F20803E7
:40044000C4F200034FF048021A7044F20403C4F200034FF000021A7044F20103C4F200034FF002021A7044F2A233C4F2000344F2A232C4F200021278D2B242F00102D2B2E2
:400480001A7007F10807BD4680BD00BF80B483B000AF40F2CF13C4F600131B78FB7145F66E03C4F20003FA7902F00702D2B21A7045F66F03C4F20003FA794FEA1212D2B21B
:4004C0001A7045F67603C4F200034FF044021A7007F10C07BD4680BC704700BF80B586B000AF72B64FF49043C4F200034FF001021A70FFF723FF44F2E863C4F2000344F2D1
:40050000E862C4F200021278D2B242F00402D2B21A704FF00003FB7519E0FA7D13464FEA43039B184FEA430341F6DC42C0F200029B183B613B691A683B699B889BB2104651
:400540001946FFF793FEFB7D03F10103FB75FB7D092BE2D94FF00003FB7523E0FA7D13464FEA83039B184FEA430341F61852C0F200029B18FB60FB681B68BB60FB685B684E
:400580007B60FB681A7A5B7A4FEA032313437B807B88B86879681A46FFF778FEFB7D03F10103FB75FB7D002BD8D04FF090404FF05001C4F60001FFF77FFE45F20303C4F229
:4005C000010345F20302C4F201021278D2B242F00202D2B21A7045F21303C4F2010345F21302C4F201021278D2B242F00202D2B21A7044F2A033C4F2000344F2A032C4F2D2
:4006000000021278D2B242F04002D2B21A7044F2C233C4F2000344F2C232C4F200021278D2B242F01002D2B21A7045F2C010C4F200004FF45571C4F600014FF00A02FFF740
:4006400025FE45F2F210C4F200004FF45871C4F600014FF00802FFF719FE45F21010C4F200004FF45A71C4F600014FF00A02FFF70DFE45F23010C4F200004FF45D71C4F631
:4006800000014FF00A02FFF701FE45F25010C4F200004FF46071C4F600014FF00A02FFF7F5FD44F22233C4F2000344F22232C4F200021278D2B242F00802D2B21A70FFF7D6
:4006C000E5FE44F2B030C4F2000044F2A031C4F200014FF00E02FFF7D9FD07F11807BD4680BD00BF80B500AF46F28943C4F200034FF00F021A7000F0D7F800F073F800F0D7
:4007000081F846F28B43C4F200034FF000021A7046F28C43C4F200034FF000021A7080BD80B582B000AF01F011FA0346FB7146F29943C4F2000346F29942C4F20002127805
:40074000D2B242F02002D2B21A7046F29B43C4F2000346F29B42C4F200021278D2B242F01002D2B21A7046F29C43C4F2000346F29C42C4F200021278D2B242F01002D2B223
:400780001A70FB79184601F0E5F901F0B3F900F01DF800F021F807F10807BD4680BD00BF80B500AF48F23C13C1F6FF731B78002B08D1FFF797FF48F23C13C1F6FF734FF0B3
:4007C00001021A70FFF7ACFF80BD00BF80B400AFBD4680BC704700BF80B400AFBD4680BC704700BF80B483B000AF46F26B43C4F200031B78FB71FB79184607F10C07BD460B
:4008000080BC704780B483B000AF46F26C43C4F200031B78FB71FB79184607F10C07BD4680BC704780B483B000AF0346FB7100BF46F26B43C4F200031B78DBB203F00403FA
:40084000002BF5D046F24B43C4F20003FA791A7007F10C07BD4680BC704700BF80B483B000AF46F25B43C4F200031B78FB71FB79184607F10C07BD4680BC704780B400AFF2
:4008800004E046F25B43C4F200031B7846F26C43C4F200031B78DBB203F02003002BF0D1BD4680BC704700BF80B582B000AF04E046F25B43C4F200031B7846F26C43C4F202
:4008C00000031B78DBB203F02003002BF0D101F03DF90346FB7146F29B43C4F2000346F29B42C4F200021278D2B242F00102D2B21A7046F29B43C4F2000346F29B42C4F270
:4009000000021278D2B222F00102D2B21A70FB79184601F01FF907F10807BD4680BD00BF80B500AF4FF0FE0001F074F980BD00BF80B500AF4FF0FF0001F06CF980BD00BFB4
:4009400080B584B000AF396013460246FA80BB8003E04FF0010001F027F9FFF743FF034603F01103002BF4D001F0F0F803467B72FB887B814FF00003FB814FF00003BB81FB
:40098000FFF7CEFFFFF77AFF7B894FEA13239BB2DBB21846FFF746FF7B89DBB21846FFF741FFBB881BB2002B01DBBB8801E047F6FF73FB81FB894FEA13239BB2DBB263F074
:4009C0007F03DBB2DBB21846FFF72CFFFB89DBB21846FFF727FF00BFFFF704FF034603F00403002BF8D0BB893A68D3181B78BA8902F10102BA811846FFF714FFBB8803F1ED
:400A0000FF33BB80FB8903F1FF33FB817B8903F101037B81FB89002BDDD103E04FF0010001F0C2F8FFF7DEFE034603F01103002BF4D0FFF77DFFBB88002BA1D17B7A18464A
:400A400001F088F807F11007BD4680BD80B586B000AF396013460246FA80BB8003E04FF0010001F0A1F8FFF7BDFE034603F01103002BF4D0FB88BB824FF00003FB82FFF79B
:400A80004FFFFFF7FBFE4FF00003FB814FF004037B74BA8847F6FF739A4238BF1346BB814FF000037B82BB8A4FEA13239BB2DBB21846FFF7B7FEBB8ADBB21846FFF7B2FE01
:400AC000BB894FEA13239BB2DBB203F07F03DBB21846FFF7A7FEBB89DBB21846FFF7A2FE2CE07A8ABB899A420FD24FF00000FFF799FEBB8A03F10103BB82BB8803F1FF33E9
:400B0000BB807B8A03F101037B82FFF7A7FE0346FB72FB8A3A68D318FA7A1A707B7C002B04D07B7C03F1FF337B7407E0FB8903F10103FB81FB8A03F10103FB82FA89BB897D
:400B40009A42CED3FFF7F4FEBB88002B97D107F11807BD4680BD00BF80B584B000AF02460B46FA80BB80BB884FEA03239AB2BB884FEA13239BB29BB213439BB29BB2FB8118
:400B8000FA8807F10E03104619464FF00202FFF7D7FE07F11007BD4680BD00BF80B584B000AF0346FB80FA8807F10E03104619464FF00202FFF74AFFFB894FEA03239AB20C
:400BC000FB894FEA13239BB29BB213439BB29BB2FB81FB89184607F11007BD4680BD00BF80B582B000AF78604FF0090079684FF00602FFF7A5FE07F10807BD4680BD00BF0F
:400C000080B582B000AF786007F104034FF0010019464FF00402FFF793FE07F10807BD4680BD00BF80B582B000AF786007F104034FF0050019464FF00402FFF781FE07F114
:400C40000807BD4680BD00BF80B582B000AF786007F104034FF00F0019464FF00402FFF76FFE07F10807BD4680BD00BF80B582B000AF0346FB7107F107034FF000001946B3
:400C80004FF00102FFF75CFE07F10807BD4680BD80B582B000AF0346FB7107F107034FF0150019464FF00102FFF74AFE07F10807BD4680BD80B582B000AF02460B46FA71FA
:400CC000BB71FB799BB24FEA03239BB203F5804303F11E039AB207F10603104619464FF00102FFF72DFE07F10807BD4680BD00BF80B582B000AF02460B46FA71BB71FB7966
:400D00009BB24FEA03239BB203F5804303F11F039AB207F10603104619464FF00102FFF70FFE07F10807BD4680BD00BF80B582B000AF02460B46FA71BB71FB799BB24FEA5C
:400D400003239BB203F580439AB207F10603104619464FF00102FFF7F3FD07F10807BD4680BD00BF80B582B000AF02460B46FA71BB71FB799BB24FEA03239BB203F58043A7
:400D800003F101039AB207F10603104619464FF00102FFF7D5FD07F10807BD4680BD00BF80B584B000AF0346FB714FF0FF03FB73FB799BB24FEA03239BB203F5804303F191
:400DC00001039AB207F10F03104619464FF00102FFF73CFEFB7B184607F11007BD4680BD80B582B000AF02460B46FA71BB71FB799BB24FEA03239BB203F5804303F10203E8
:400E00009AB207F10603104619464FF00102FFF797FD07F10807BD4680BD00BF80B584B000AF0346FB714FF0FF03FB73FB799BB24FEA03239BB203F5804303F102039AB2F5
:400E400007F10F03104619464FF00102FFF7FEFDFB7B184607F11007BD4680BD80B584B000AF0346FB714FF0FF03FB73FB799BB24FEA03239BB203F5804303F103039AB273
:400E800007F10F03104619464FF00102FFF7DEFDFB7B184607F11007BD4680BD80B582B000AF02460B46FA71BB80FB799BB24FEA03239BB203F5804303F104039AB2BB8836
:400EC00010461946FFF748FE07F10807BD4680BD80B582B000AF0346FB71FB799BB24FEA03239BB203F5804303F120039BB21846FFF754FE0346184607F10807BD4680BDCF
:400F000080B582B000AF02460B46FA71BB80FB799BB24FEA03239BB203F5804303F124039AB2BB8810461946FFF716FE07F10807BD4680BD80B582B000AF0346FB71FB7945
:400F40009BB24FEA03239BB203F5804303F124039BB21846FFF722FE0346184607F10807BD4680BD80B582B000AF02460B46FA71BB80FB799BB24FEA03239BB203F5804376
:400F800003F128039AB2BB8810461946FFF7E4FD07F10807BD4680BD80B582B000AF02460B46FA71BB80FB799BB24FEA03239BB203F5804303F12A039AB2BB8810461946CE
:400FC000FFF7CAFD07F10807BD4680BD80B582B000AF02460B46FA71BB80FB799BB24FEA03239BB203F5804303F122039AB2BB8810461946FFF7B0FD07F10807BD4680BD29
:4010000080B584B000AF03463960FB714FF00003FB603B68DBB2FA7910461946FFF7A2FE07E0FB6803F10103FB604FF0010000F097FDFB791846FFF7B3FE0346002B02D09F
:40104000FB687C2BEDD9FB68184607F11007BD4680BD00BF80B584B000AF0346FB714FF00003BB814FF00003FB81FB791846FFF72FFF0346BB81BB89002B05D0FB79184637
:40108000FFF726FF0346FB81BA89FB899A42ECD1FB89184607F11007BD4680BD80B586B000AFBA600246FA730A46BA81FB80FB7B1846FFF73FFF03461A46BB89D318FB8273
:4010C000FB8A4FEA43534FEA5353BB82FA7B41F62453C0F2000333F81220BB8AD3187B82BB8AC3F500633B82FA883B8A9A421AD97A8A3B8A1046B9681A46FFF721FCFA7BC3
:4011000041F62453C0F2000333F812103B8ABA68D218F8883B8AC31A9BB2084611461A46FFF70EFC06E07A8AFB881046B9681A46FFF706FCFA8AFB88D318FB82FA7BFB8A15
:4011400010461946FFF7DCFE07F11807BD4680BD80B586B000AFF860B9607A603B604FF0FA0000F0FDFC4FF08000FFF77FFD4FF00A0000F0F5FC4FF000037B614AE07B69EA
:40118000DBB2184600F054FB7B69DBB218464FF00201FFF7ADFD7B69DBB218464FF00201FFF788FD7B69DAB241F63453C0F20003796933F8113010461946FFF7D3FE7B6937
:4011C000DAB241F63453C0F20003796933F8113010461946FFF7E0FE7B69DAB241F62453C0F20003796933F8113010461946FFF7EDFE7B69DAB241F62453C0F200037969AD
:4012000033F8113010461946FFF77AFE7B6903F101037B617B69072BB1DD3868FFF7F0FC7868FFF7FFFC48F28813C1F6FF737A681A60F868FFF7D4FCB868FFF705FD4FF099
:40124000FF00FFF725FD4FF00000FFF7EBFC07F11807BD4680BD00BF80B584B000AF48F23C13C1F6FF731B78002B01D1FFF798FA4FF00A0000F074FC41F64450C0F200001D
:4012800048F24011C1F6FF7100F0F8F80346062B29D148F24013C1F6FF734FF000021A7048F24013C1F6FF734FF0DE025A7048F24013C1F6FF734FF0AD029A7048F24013CD
:4012C000C1F6FF734FF0C002DA7048F24013C1F6FF734FF0DE021A7148F24013C1F6FF734FF000025A7141F65850C0F2000000F01DF8F86041F66850C0F2000000F016F8CB
:40130000B86041F67850C0F2000000F00FF8786048F24010C1F6FF70F968BA687B68FFF717FF07F11007BD4680BD00BF90B589B000AF78604FF00003FB614FF000037B6124
:401340004FF00003BB616FE0FB697A68D3181B782F2B18D9FB697A68D3181B78392B12D87B69032B02DD4FF0FF3381E0FB697A68D3181A7807F10C017B69CB181A707B69DF
:4013800003F101037B61FB697A68D3181B782E2B07D0FB6903F101037A68D3181B78002B3ED107F10C027B69D3184FF000021A704FF000037B6107F10802BB69D3184FF061
:4013C00000021A701EE007F10802BB69D3181B781A464FEA8202D3184FEA4303DAB207F10C017B69CB181B78D318DBB2A3F13003DAB207F10801BB69CB181A707B6903F118
:4014000001037B6107F10C027B69D3181B78002BD9D14FF000037B61BB6903F10103BB61FB6903F10103FB61BB69032B06DCFC69786800F036FC03469C4285D3BB69042B14
:4014400002D04FF0FF3313E03B7A1A467B7A4FEA03234FEA03434FEA1343D218BB7A4FEA034303F47F03D218FB7A4FEA0363D318184607F12407BD4690BD00BF80B487B0C4
:4014800000AF786039604FF00003FB604FF000033B614FF000037B6109E13B697A68D3181B782F2B05D93B697A68D3181B78392B19D93B697A68D3181B78602B05D93B69E2
:4014C0007A68D3181B78662B0DD93B697A68D3181B78402B40F2E4803B697A68D3181B78462B00F2DD807B693A68D2183B697968CB181B782F2B0DD93B697968CB181B78A6
:40150000392B07D83B697968CB181B78A3F13003DBB229E03B697968CB181B78602B0DD93B697968CB181B78662B07D83B697968CB181B78A3F15703DBB215E03B69796849
:40154000CB181B78402B0DD93B697968CB181B78462B07D83B697968CB181B78A3F13703DBB201E04FF0000313703B6903F101033B617B693A68D3187A6939688A18127804
:401580004FEA0212D2B21A703B697A68D3181B782F2B05D93B697A68D3181B78392B17D93B697A68D3181B78602B05D93B697A68D3181B78662B0BD93B697A68D3181B7852
:4015C000402B68D93B697A68D3181B78462B62D87B693A68D2187B693968CB1819783B697868C3181B782F2B0DD93B697868C3181B78392B07D83B697868C3181B78A3F13A
:401600003003DBB229E03B697868C3181B78602B0DD93B697868C3181B78662B07D83B697868C3181B78A3F15703DBB215E03B697868C3181B78402B0DD93B697868C31818
:401640001B78462B07D83B697868C3181B78A3F13703DBB201E04FF00003CB18DBB213703B6903F101033B617B69042B17DC3B697A68D3181B782D2B08D03B697A68D31841
:401680001B783A2B02D04FF00603FB603B6903F101033B6103E04FF00603FB6003E002E04FF00603FB607B6903F101037B617B69052B09DCFB68002B06D13B697A68D31810
:4016C0001B78002B7FF4E9AEFB68184607F11C07BD4680BC704700BF80B584B000AF13460246FA710A46BA80BB714FF0FF03FB734FF00003BB6017E0FB7BFF2B10D148F2F9
:401700004813C1F6FF73BA6813F83230002B07D1FB79042B02D1BB68002B01D0BB68FB73BB6803F10103BB60BB68072BE4DDFB7BFF2B77D0FA7B48F24813C1F6FF73F97995
:4017400003F83210FB7B48F24812C1F6FF724FEAC303D318BA795A70FB7B48F24812C1F6FF724FEAC303D318BA885A80FB7B48F24812C1F6FF724FEAC303D3184FF000027E
:401780001A71FB7B18464FF00201FFF7B1FAFB7B18464FF00201FFF78DFA41F63453C0F20003BA6833F81230FA7B10461946FFF7D9FB41F63453C0F20003BA6833F812305C
:4017C000FA7B10461946FFF7E7FB41F62453C0F20003BA6833F81230FA7B10461946FFF7F5FB41F62453C0F20003BA6833F81230FA7B10461946FFF783FBFA7BBB88104647
:401800001946FFF74BFBFA79BB791343DBB2FA7B10461946FFF78AFAFB7B18464FF00101FFF7EEFBFB7B184607F11007BD4680BD80B582B000AF0346FB71FB79072B1FD860
:40184000FA7948F24813C1F6FF734FF0000103F83210FB7948F24812C1F6FF724FEAC303D3184FF000025A70FB7918464FF01001FFF7C6FBFB7918464FF0FF01FFF7B0FA0B
:4018800007F10807BD4680BD80B584B000AF0346FB71FB791846FFF7E1FA0346FB73FB7B1C2B03D1FB791846FFF7C2FFFB791846FFF7D4FA0346002B14BF00230123DBB2EF
:4018C000184607F11007BD4680BD00BF80B584B000AF0346FB71FB79072B32D848F28813C1F6FF731B681846FFF79CF9FB7918464FF02001FFF784FBFB791846FFF78EFA9E
:401900000346FB7309E04FF0010000F029F9FB791846FFF783FA0346FB73FB7B03F01003002B04D1FB7B03F00A03002BEBD0FB7918464FF01001FFF753FA4FF00000FFF747
:4019400071F907F11007BD4680BD00BF80B582B000AF0346FB80FB884FF0010019464FF00002FFF7B9FE0346184607F10807BD4680BD00BF80B582B000AF0346FB71FB7919
:40198000072B05D8FB7918464FF00201FFF738FB07F10807BD4680BD80B584B000AF0346FB71FB79072B1FD8FB791846FFF7E2FFFB791846FFF752FA0346FB730DE04FF08A
:4019C000010000F0CDF8FB791846FFF75DFFFB791846FFF743FA0346FB73FB7B172B04D0FB7B002BEBD100E000BF07F11007BD4680BD00BF80B582B000AF0346FB71FB797C
:401A000018464FF00801FFF7FBFA07F10807BD4680BD00BF80B584B000AF396013460246FA71BB80FB79072B02D94FF0000346E0BB88B3F5006F28BF4FF40063FB81FB7957
:401A40001846FFF70BFA0346FB72FB7A172B32D1FA7948F24813C1F6FF7313F83230012B29D14FF00003BB814FF01703FB720BE0FB791846FFF7EEFA0346BB81FB791846A3
:401A8000FFF7ECF90346FB72BA89FB899A4205D2FB7A172B02D1FB7A1C2BE9D1FA79FB8910464FF000013A68FFF7F8FAFB791846FFF70CFF02E04FF00003FB81FB891846AF
:401AC00007F11007BD4680BD80B582B000AF03463960FB71386800F0E4F803469BB2FA79104639681A46FFF795FF07F10807BD4680BD00BF80B400AF44F2A233C4F2000330
:401B000044F2A232C4F200021278D2B242F00102D2B21A7044F2B233C4F2000344F2B232C4F200021278D2B242F00102D2B21A70BD4680BC704700BF0230800800F00580B7
:401B400000BF013800467FF4FCAF7047EFF3108072B6704780F31088704700BFAFF3008080B582B000AF78600BE048F21813C1F6FF731B681846FFF7DFFF7B68A3F5004384
:401B80007B607B68B3F5004FEFD848F21013C1F6FF731B687A6802FB03F31846FFF7CCFF07F10807BD4680BD80B582B000AF0346FB80FA8848F21413C1F6FF731B7803FBEE
:401BC00002F31846FFF7B8FF07F10807BD4680BD80B485B000AF0346FB7145F25013C4F200031B78DBB223F00403FB7345F25013C4F20003FA794FEA8202D2B202F00402D7
:401C0000D1B2FA7B0A43D2B21A7007F11407BD4680BC704780B483B000AF0346FB7146F27843C4F20003FA791A7007F10C07BD4680BC704738B50E4D0E4B0024E81A851077
:401C4000AC4205D00B4951F8242090470134F7E700F098F80849094A541AA5100024AC4205D0054B53F8240080470134F7E738BD901D0000901D0000901D0000981D00005E
:401C800010B50023934203D0CC5CC4540133F9E710BD82180346934202D003F8011BFAE77047034613F8012B002AFBD1181A013870470000000000000D0A48656C6C6F2077
:401CC00066726F6D2074686520573532303020696E74657266616365210D0A0000510040100020510040100040510040100060510040100000000140800A000B0140000528
:401D000000140140000800400140000A004C01400002005001402000800A0140D402004880000000008000880090009800A000A800B000B800C000C800D000D800E000E83A
:401D400000F000F830302D64652D61642D62652D65662D30300000003139322E3136382E302E3130310000003235352E3235352E3235352E300000003139322E3136382E0E
:401D8000302E3100F8B500BFF8BC08BC9E46704751000000B9010000F8B500BFF8BC08BC9E4670472D000000B81D00000881FF1F1800000070000000000000008014EF03D4
:401DC000D0010100420000000000E8800000000000000000000000000000000000000000000000000000000000000000000000000000000000000000000000000000000067
:401E000000000000000000000000000000000000000000000000000000000000000000000000000000000000000000000000000000000000000000000000000000000000A2
:401E40000000000000000000000000000000000000000000000000000000000000000000000000000000000000000000000000000000000000000000000000000000000062
:401E80000000000000000000000000000000000000000000000000000000000000000000000000000000000000000000000000000000000000000000000000000000000022
:401EC00000000000000000000000000000000000000000000000000000000000000000000000000000000000000000000000000000000000000000000000000000000000E2
:020000040003F7
:0200000480007A
:400000000652004002640040020701402A08014033090140390B01403A0C0140260D01400315014003190140071B0140044301400244014001450140024701400448014002
:4000400012490140064C01400A4D0140055001400820182819402908608061407801890FE201E60201100505072A08A109310A0A0B0E0E020F0110AC110712131338148779
:400080001504161817081A341E4927402D4030803103330C343F35403640373239803B0B3E013F105608580459045B045D905F01D602D72CDB04DF01042005400D0A0E04EB
:4000C0000F021D401E041F012401250326262D402E0436063C213D083F805F406101693C6A016B416F02708080018620902091409402953C9601970299019F41A010A10C47
:40010000A341A480A503A604AE40AF10C0C0C2F0CA50CCC0CEF0D610D801E001E40204100540068007200C800D060F08152017451C301D481E201F102424251426492724F6
:4001400028082B082C802D14361037413D2A3F8045294C014E084F0956E257495C085E825F1067029140942495149601972199019E229F41A120A480A50BA61CC0F0C2F07A
:40018000C4F0CAE0CCB0CEF0D0E0D230D6F0D81000050101030604D405080620081809080A210D050F02102812421308140715031608170419031A051B041C051D082108D1
:4001C0002205240528052C802E20310732FF350839083A0C3B023F045440580459045B045F018002820D860488038E049005920A940796089C04A004A404A804B00FBA029A
:40020000D804DF01000401020208030104200504074009090A010C800D020E281080111415141602170119031D04245025202C80361837413C403D56662067219410A8109C
:40024000C07FC2FDC4FECA80CCF0CEF0D870EC01E240E402EA0894029740A30287408C0194029740AF02E240E80883048402E280E6407C80DE04A880800885015180980221
:400280009B04D4200D8057805B045C02620885808F8098029B04A208A580AE08C280D440D6C0D840E440EA100E085E019102A008C201D601510170088E049102A008A204A5
:4002C000AE01D401DC01E202000101010C010D010E0100004003007C126124187110022202080D1022185882AD00400000138064ED9A00004D9AA00000822018ED9A00000B
:40030000ED0000000080700F80300F4000088020000010416403200005DDFCBE3FFFFFFF2200F00C040000000900000004040404000000010000C00040011011C00100114A
:400340004001400100000000000000000000000000000000800000C0C000C0000000000000030300030000002000802020002000000000004000807878007800000000000A
:400380000400000C0C000800000000000000000000000000000000000000000000000000000000000000000000000000000000000000000000000000000000000000000019
:4003C00000000000000000000000000000000000000000000000000000000000000000000000000000000000000000000000000000000000000000000000000000000000FD
:4004000000000000000000000000000000000000000000000000000000000000000000000000000000000000000000000000000000000000000000000000000000000000BC
:40044000000000000000000000000000000000000000000000000000000000000000000000000000000000000000000000000000000000000000000000000000000000007C
:40048000000000000000000000000000000000000000000000000000000000000000000000000000000000000000000000000000000000000000000000000000000000003C
:0200000490006A
:0400000000004005B7
:0200000490105A
:04000000BC90ACAF55
:0200000490303A
:02000000618E0F
:0200000490402A
:4000000000000000000000000000000000000000000000000000000000000000000000000000000000000000000000000000000000000000000000000000000000000000C0
:400040000000000000000000000000000000000000000000000000000000000000000000000000000000000000000000000000000000000000000000000000000000000080
:400080000000000000000000000000000000000000000000000000000000000000000000000000000000000000000000000000000000000000000000000000000000000040
:4000C0000000000000000000000000000000000000000000000000000000000000000000000000000000000000000000000000000000000000000000000000000000000000
:0200000490501A
:0C00000000012E12306900012E2091F743
:00000001FF