:400000000080002011000000CD000000CD00000080B500AF47F2BC63C4F2000344F2FA62C4F2000212681A6000F054F810B5054C237833B9044810B10448AFF300800121CC
:40004000217010BD2081FF1F00000000501C000008B5064B1BB106480649AFF300800648016811B1054A02B1904708BD00000000501C00002481FF1F0881FF1F0000000071
:4000800080B582B000AF00F061FB01F0C1F84FF0170001F053FC0346FB71FB79184601F073FCFB79184641F65441C0F2000101F0FBFC4FF0960001F043FDFB79184601F0B5
:4000C00089FCFB79184601F08FFBE0E780B400AFFEE700BF80B586B000AF40F20103C0F200037B6141F63453C0F200033B6140F20103C0F200037B6141F63453C0F20003B6
:400100003B613BE03B691B68FB603B695B68BB603B699B683B604FF000037B600FE0FB681A68BB681A60BB6803F10403BB60FB6803F10403FB607B6803F104037B607A68A7
:400140003B689A42EBD13B69DB683B604FF000037B600BE0BB684FF000021A60BB6803F10403BB607B6803F104037B607A683B689A42EFD13B6903F110033B617B69002B73
:400180000CBF00230123DBB27A6902F1FF327A61002BB7D101F01CFDFFF772FFFEE700BF80B582B000AF4EF60C53CEF200034FF48062C0F2FA521A604EF61453CEF200036F
:4001C0004EF61452CEF20002126842F400721A604FF000037B6019E07B68032B07D840F20003C0F200037A6853F8223003E040F2CD03C0F2000348F20002C1F6FF727968A9
:4002000042F821307B6803F101037B607B682F2BE2D947F2BC63C4F200031B78DAB248F20413C1F6FF731A704EF60853CEF2000348F20002C1F6FF721A6000F043F948F2AB
:400240000013C1F6FF734FF000021A6007F10807BD4680BD80B582B000AF7860396078684FF000013A6801F0E2FC07F10807BD4680BD00BF80B584B000AFF860B9607A60BF
:40028000F868B9687A6801F0C9FC07F11007BD4680BD00BF80B483B000AF0346FB71FEE780B487B000AF786039604FF000033B614FF000037B612CE07B694FEA83037A684F
:4002C000D3181B68BB60BB68FB73BB6823F0FF03BB6017E03B694FEA43033A68D3181B781A46BB68D3183A694FEA420239688A1852781A703B6903F101033B61FB7B03F190
:40030000FF33FB73FB7B002BE4D17B6903F101037B617B690A2BCFD907F11C07BD4680BC704700BF80B582B000AF4FF48143C4F200034FF000021A8044F28203C4F2000359
:400340004FF058021A704FF48643C4F200034FF002021A704FF040234FF008021A704FF48443C4F200034FF003021A7044F2A163C4F200034FF48472C4F600121278D2B2BC
:400380001A7044F22223C4F200034FF008021A8044F22023C4F2000341F251221A804FF00003FB704FF019037B6019E0FB784FEA4303DAB244F22523C4F200031B78DBB279
:4003C00003F00103DBB21343DBB203F00303FB704FF4F07001F0A0FB7B6803F1FF337B607B68002B02D0FB78032BDFD17B68002B03D14FF00300FFF74DFF44F20403C4F295
:4004000000034FF480721A8044F20403C4F200034FF007021A7044F20603C4F200034FF000021A7044F20803C4F200034FF048021A7044F20403C4F200034FF000021A7091
:4004400044F20103C4F200034FF002021A7044F2A233C4F2000344F2A232C4F200021278D2B242F00102D2B21A7007F10807BD4680BD00BF80B483B000AF40F2CF13C4F6FB
:4004800000131B78FB7145F66E03C4F20003FA7902F00702D2B21A7045F66F03C4F20003FA794FEA1212D2B21A7045F67603C4F200034FF044021A7007F10C07BD4680BC3F
:4004C000704700BF80B582B000AF72B644F2E863C4F2000344F2E862C4F200021278D2B242F00402D2B21A704FF00003FB7119E0FA7913464FEA43039B184FEA430341F627
:400500007842C0F200029B183B603B681A683B689B889BB210461946FFF79CFEFB7903F10103FB71FB79082BE2D94FF090404FF02C01C4F60001FFF7B3FE45F20303C4F278
:40054000010345F20302C4F201021278D2B242F00202D2B21A7045F21303C4F2010345F21302C4F201021278D2B242F00202D2B21A7044F2A033C4F2000344F2A032C4F252
:4005800000021278D2B242F04002D2B21A7044F2C233C4F2000344F2C232C4F200021278D2B242F01002D2B21A7045F2C210C4F200004FF43371C4F600014FF00802FFF7E3
:4005C00059FE45F2F210C4F200004FF43571C4F600014FF00802FFF74DFE45F21210C4F200004FF43771C4F600014FF00802FFF741FE45F23210C4F200004FF43971C4F67E
:4006000000014FF00802FFF735FE45F25210C4F200004FF43B71C4F600014FF00802FFF729FE44F22233C4F2000344F22232C4F200021278D2B242F00802D2B21A704FF4C7
:400640009043C4F200034FF001021A70FFF76AFE4FF49043C4F200034FF081021A704FF00403C4F208034FF001021A70FFF702FF44F2B030C4F2000044F2A031C4F2000155
:400680004FF00E02FFF7F6FD07F10807BD4680BD80B500AF46F28953C4F200034FF00F021A7000F0D7F800F073F800F081F846F28853C4F200034FF000021A7046F28B5300
:4006C000C4F200034FF000021A7080BD80B582B000AF01F02BFA0346FB7146F29953C4F2000346F29952C4F200021278D2B242F02002D2B21A7046F29853C4F2000346F21C
:400700009852C4F200021278D2B242F01002D2B21A7046F29B53C4F2000346F29B52C4F200021278D2B242F01002D2B21A70FB79184601F0FFF901F0CDF900F01DF800F034
:4007400021F807F10807BD4680BD00BF80B500AF48F23C13C1F6FF731B78002B08D1FFF797FF48F23C13C1F6FF734FF001021A70FFF7ACFF80BD00BF80B400AFBD4680BC64
:40078000704700BF80B400AFBD4680BC704700BF80B483B000AF46F26853C4F200031B78FB71FB79184607F10C07BD4680BC704780B483B000AF46F26B53C4F200031B783F
:4007C000FB71FB79184607F10C07BD4680BC704780B483B000AF0346FB7100BF46F26853C4F200031B78DBB203F00403002BF5D046F24B53C4F20003FA791A7007F10C07E3
:40080000BD4680BC704700BF80B483B000AF46F25B53C4F200031B78FB71FB79184607F10C07BD4680BC704780B400AF04E046F25B53C4F200031B7846F26B53C4F20003D4
:400840001B78DBB203F02003002BF0D1BD4680BC704700BF80B582B000AF04E046F25B53C4F200031B7846F26B53C4F200031B78DBB203F02003002BF0D101F057F903461A
:40088000FB7146F29B53C4F2000346F29B52C4F200021278D2B242F00102D2B21A7046F29B53C4F2000346F29B52C4F200021278D2B222F00102D2B21A70FB79184601F00F
:4008C00039F907F10807BD4680BD00BF80B500AF4FF0FE0001F06CF980BD00BF80B500AF4FF0FF0001F064F980BD00BF80B584B000AF396013460246FA80BB8003E04FF0B8
:40090000010001F041F9FFF743FF034603F01103002BF4D001F00AF903467B72FB887B814FF00003FB814FF00003BB81FFF7CEFFFFF77AFF7B894FEA13239BB2DBB2184652
:40094000FFF746FF7B89DBB21846FFF741FFBB881BB2002B01DBBB8801E047F6FF73FB81FB894FEA13239BB2DBB263F07F03DBB2DBB21846FFF72CFFFB89DBB21846FFF711
:4009800027FF00BFFFF704FF034603F00403002BF8D0BB893A68D3181B78BA8902F10102BA811846FFF714FFBB8803F1FF33BB80FB8903F1FF33FB817B8903F101037B8122
:4009C000FB89002BDDD103E04FF0010001F0DCF8FFF7DEFE034603F01103002BF4D0FFF77DFFBB88002BA1D17B7A184601F0A2F807F11007BD4680BD90B587B000AF39605E
:400A000013460246FA80BB8003E04FF0010001F0BBF8FFF7BDFE034603F01103002BF4D0FB88BB824FF00003FB82FFF74FFFFFF7FBFE4FF00003FB814FF004037B74BA88C2
:400A400047F6FF739A4238BF1346BB81BB897B82BB8A4FEA13239BB2DBB21846FFF7B8FEBB8ADBB21846FFF7B3FEBB894FEA13239BB2DBB203F07F03DBB21846FFF7A8FE26
:400A8000BB89DBB21846FFF7A3FE33E0FB8A3A68D418FFF7B9FE034623707B7C002B04D07B7C03F1FF337B7407E0FB8903F10103FB81FB8A03F10103FB827B8A002B10D0D6
:400AC0004FF00000FFF784FEBB8A03F10103BB82BB8803F1FF33BB807B8A03F1FF337B8208E0FFF755FE034603F01103002B01D0FFF7F4FEFA89BB899A42C7D3BB88002BE9
:400B000093D1FFF7EBFE07F11C07BD4690BD00BF80B584B000AF02460B46FA80BB80BB884FEA03239AB2BB884FEA13239BB29BB213439BB29BB2FB81FA8807F10E0310465B
:400B400019464FF00202FFF7D1FE07F11007BD4680BD00BF80B584B000AF0346FB80FA8807F10E03104619464FF00202FFF744FFFB894FEA03239AB2FB894FEA13239BB2F9
:400B80009BB213439BB29BB2FB81FB89184607F11007BD4680BD00BF80B582B000AF78604FF0090079684FF00602FFF79FFE07F10807BD4680BD00BF80B582B000AF7860A7
:400BC00007F104034FF0010019464FF00402FFF78DFE07F10807BD4680BD00BF80B582B000AF786007F104034FF0050019464FF00402FFF77BFE07F10807BD4680BD00BF41
:400C000080B582B000AF786007F104034FF00F0019464FF00402FFF769FE07F10807BD4680BD00BF80B582B000AF0346FB7107F107034FF0000019464FF00102FFF756FE7B
:400C400007F10807BD4680BD80B582B000AF0346FB7107F107034FF0150019464FF00102FFF744FE07F10807BD4680BD80B582B000AF02460B46FA71BB71FB799BB24FEAAC
:400C800003239BB2A3F5FF43A3F162039AB207F10603104619464FF00102FFF727FE07F10807BD4680BD00BF80B582B000AF02460B46FA71BB71FB799BB24FEA03239BB2D6
:400CC000A3F5FF43A3F161039AB207F10603104619464FF00102FFF709FE07F10807BD4680BD00BF80B582B000AF02460B46FA71BB71FB799BB24FEA03239BB2A3F500434D
:400D00009AB207F10603104619464FF00102FFF7EDFD07F10807BD4680BD00BF80B582B000AF02460B46FA71BB71FB799BB24FEA03239BB2A3F5FF43A3F17F039AB207F1A2
:400D40000603104619464FF00102FFF7CFFD07F10807BD4680BD00BF80B584B000AF0346FB714FF0FF03FB73FB799BB24FEA03239BB2A3F5FF43A3F17F039AB207F10F037C
:400D8000104619464FF00102FFF736FEFB7B184607F11007BD4680BD80B582B000AF02460B46FA71BB71FB799BB24FEA03239BB2A3F5FF43A3F17E039AB207F106031046AA
:400DC00019464FF00102FFF791FD07F10807BD4680BD00BF80B584B000AF0346FB714FF0FF03FB73FB799BB24FEA03239BB2A3F5FF43A3F17E039AB207F10F0310461946E5
:400E00004FF00102FFF7F8FDFB7B184607F11007BD4680BD80B584B000AF0346FB714FF0FF03FB73FB799BB24FEA03239BB2A3F5FF43A3F17D039AB207F10F031046194680
:400E40004FF00102FFF7D8FDFB7B184607F11007BD4680BD80B582B000AF02460B46FA71BB80FB799BB24FEA03239BB2A3F5FF43A3F17C039AB2BB8810461946FFF748FE13
:400E800007F10807BD4680BD80B582B000AF0346FB71FB799BB24FEA03239BB2A3F5FF43A3F160039BB21846FFF754FE0346184607F10807BD4680BD80B582B000AF0246A3
:400EC0000B46FA71BB80FB799BB24FEA03239BB2A3F5FF43A3F15C039AB2BB8810461946FFF716FE07F10807BD4680BD80B582B000AF0346FB71FB799BB24FEA03239BB2F4
:400F0000A3F5FF43A3F15C039BB21846FFF722FE0346184607F10807BD4680BD80B582B000AF02460B46FA71BB80FB799BB24FEA03239BB2A3F5FF43A3F158039AB2BB881B
:400F400010461946FFF7E4FD07F10807BD4680BD80B582B000AF02460B46FA71BB80FB799BB24FEA03239BB2A3F5FF43A3F156039BB218464FF6FF71FFF7CAFD07F10807F1
:400F8000BD4680BD80B582B000AF02460B46FA71BB80FB799BB24FEA03239BB2A3F5FF43A3F15E039AB2BB8810461946FFF7B0FD07F10807BD4680BD80B584B000AF0346D1
:400FC0003960FB714FF00003FB603B68DBB2FA7910461946FFF7A2FE07E0FB6803F10103FB604FF0010000F0ABFDFB791846FFF7B3FE0346002B02D0FB687C2BEDD9FB68FA
:40100000184607F11007BD4680BD00BF80B584B000AF0346FB714FF00003BB814FF00003FB81FB791846FFF72FFF0346BB81BB89002B05D0FB791846FFF726FF0346FB81CA
:40104000BA89FB899A42ECD1FB89184607F11007BD4680BD80B586B000AFBA600246FA730A46BA81FB80FB7B1846FFF73FFF03461A46BB89D318FB82FB8A4FEA43534FEA06
:401080005353BB82FA7B41F6B043C0F2000333F81220BB8AD3187B82BB8AC3F500633B82FA883B8A9A421AD97A8A3B8A1046B9681A46FFF71BFCFA7B41F6B043C0F200033B
:4010C00033F812103B8ABA68D218F8883B8AC31A9BB2084611461A46FFF708FC06E07A8AFB881046B9681A46FFF700FCFA8AFB88D318FB82FA7BFB8A10461946FFF7DCFE40
:4011000007F11807BD4680BD80B586B000AFF860B9607A603B604FF0FA0000F011FD4FF08000FFF77FFD4FF00A0000F009FD4FF000037B614AE07B69DBB2184600F054FB5B
:401140007B69DBB218464FF00201FFF7ADFD7B69DBB218464FF00201FFF788FD7B69DAB241F6C043C0F20003796933F8113010461946FFF7D3FE7B69DAB241F6C043C0F2AD
:401180000003796933F8113010461946FFF7E0FE7B69DAB241F6B043C0F20003796933F8113010461946FFF7EDFE7B69DAB241F6B043C0F20003796933F8113010461946D0
:4011C000FFF77AFE7B6903F101037B617B69072BB1DD3868FFF7F0FC7868FFF7FFFC48F28813C1F6FF737A681A60F868FFF7D4FCB868FFF705FD4FF0FF00FFF725FD4FF0A5
:401200000000FFF7EBFC07F11807BD4680BD00BF80B584B000AF48F23C13C1F6FF731B78002B01D1FFF792FA4FF00A0000F088FC41F6D040C0F2000048F24011C1F6FF7177
:4012400000F0F8F80346062B29D148F24013C1F6FF734FF000021A7048F24013C1F6FF734FF0DE025A7048F24013C1F6FF734FF0AD029A7048F24013C1F6FF734FF0C00295
:40128000DA7048F24013C1F6FF734FF0DE021A7148F24013C1F6FF734FF000025A7141F6E440C0F2000000F01DF8F86041F6F440C0F2000000F016F8B86041F60450C0F2E8
:4012C000000000F00FF8786048F24010C1F6FF70F968BA687B68FFF717FF07F11007BD4680BD00BF90B589B000AF78604FF00003FB614FF000037B614FF00003BB616FE081
:40130000FB697A68D3181B782F2B18D9FB697A68D3181B78392B12D87B69032B02DD4FF0FF3381E0FB697A68D3181A7807F10C017B69CB181A707B6903F101037B61FB6994
:401340007A68D3181B782E2B07D0FB6903F101037A68D3181B78002B3ED107F10C027B69D3184FF000021A704FF000037B6107F10802BB69D3184FF000021A701EE007F157
:401380000802BB69D3181B781A464FEA8202D3184FEA4303DAB207F10C017B69CB181B78D318DBB2A3F13003DAB207F10801BB69CB181A707B6903F101037B6107F10C02F4
:4013C0007B69D3181B78002BD9D14FF000037B61BB6903F10103BB61FB6903F10103FB61BB69032B06DCFC69786800F028FC03469C4285D3BB69042B02D04FF0FF3313E013
:401400003B7A1A467B7A4FEA03234FEA03434FEA1343D218BB7A4FEA034303F47F03D218FB7A4FEA0363D318184607F12407BD4690BD00BF80B487B000AF786039604FF0DB
:401440000003FB604FF000033B614FF000037B6109E13B697A68D3181B782F2B05D93B697A68D3181B78392B19D93B697A68D3181B78602B05D93B697A68D3181B78662B90
:401480000DD93B697A68D3181B78402B40F2E4803B697A68D3181B78462B00F2DD807B693A68D2183B697968CB181B782F2B0DD93B697968CB181B78392B07D83B6979680F
:4014C000CB181B78A3F13003DBB229E03B697968CB181B78602B0DD93B697968CB181B78662B07D83B697968CB181B78A3F15703DBB215E03B697968CB181B78402B0DD98B
:401500003B697968CB181B78462B07D83B697968CB181B78A3F13703DBB201E04FF0000313703B6903F101033B617B693A68D3187A6939688A1812784FEA0212D2B21A70B0
:401540003B697A68D3181B782F2B05D93B697A68D3181B78392B17D93B697A68D3181B78602B05D93B697A68D3181B78662B0BD93B697A68D3181B78402B68D93B697A68BB
:40158000D3181B78462B62D87B693A68D2187B693968CB1819783B697868C3181B782F2B0DD93B697868C3181B78392B07D83B697868C3181B78A3F13003DBB229E03B693F
:4015C0007868C3181B78602B0DD93B697868C3181B78662B07D83B697868C3181B78A3F15703DBB215E03B697868C3181B78402B0DD93B697868C3181B78462B07D83B693F
:401600007868C3181B78A3F13703DBB201E04FF00003CB18DBB213703B6903F101033B617B69042B17DC3B697A68D3181B782D2B08D03B697A68D3181B783A2B02D04FF0FF
:401640000603FB603B6903F101033B6103E04FF00603FB6003E002E04FF00603FB607B6903F101037B617B69052B09DCFB68002B06D13B697A68D3181B78002B7FF4E9AE91
:40168000FB68184607F11C07BD4680BC704700BF80B584B000AF13460246FA710A46BA80BB714FF0FF03FB734FF00003BB6017E0FB7BFF2B10D148F24813C1F6FF73BA685B
:4016C00013F83230002B07D1FB79042B02D1BB68002B01D0BB68FB73BB6803F10103BB60BB68072BE4DDFB7BFF2B77D0FA7B48F24813C1F6FF73F97903F83210FB7B48F28F
:401700004812C1F6FF724FEAC303D318BA795A70FB7B48F24812C1F6FF724FEAC303D318BA885A80FB7B48F24812C1F6FF724FEAC303D3184FF000021A71FB7B18464FF00D
:401740000201FFF7B1FAFB7B18464FF00201FFF78DFA41F6C043C0F20003BA6833F81230FA7B10461946FFF7D9FB41F6C043C0F20003BA6833F81230FA7B10461946FFF722
:40178000E7FB41F6B043C0F20003BA6833F81230FA7B10461946FFF7F5FB41F6B043C0F20003BA6833F81230FA7B10461946FFF783FBFA7BBB8810461946FFF74BFBFA79A1
:4017C000BB791343DBB2FA7B10461946FFF78AFAFB7B18464FF00101FFF7EEFBFB7B184607F11007BD4680BD80B582B000AF0346FB71FB79072B1FD8FA7948F24813C1F6F0
:40180000FF734FF0000103F83210FB7948F24812C1F6FF724FEAC303D3184FF000025A70FB7918464FF01001FFF7C6FBFB7918464FF0FF01FFF7B0FA07F10807BD4680BDC3
:4018400080B584B000AF0346FB71FB791846FFF7E1FA0346FB73FB7B1C2B03D1FB791846FFF7C2FFFB791846FFF7D4FA0346002B14BF00230123DBB2184607F11007BD4606
:4018800080BD00BF80B584B000AF0346FB714FF00003FB73FB79072B05D8FB791846FFF7B9FA0346FB73FB7B172B14BF00230123DBB2184607F11007BD4680BD80B584B085
:4018C00000AF0346FB71FB79072B32D848F28813C1F6FF731B681846FFF780F9FB7918464FF02001FFF768FBFB791846FFF772FA0346FB7309E04FF0010000F021F9FB7969
:401900001846FFF767FA0346FB73FB7B03F01003002B04D1FB7B03F00A03002BEBD0FB7918464FF01001FFF737FA4FF00000FFF755F907F11007BD4680BD00BF80B582B022
:4019400000AF0346FB80FB884FF0010019464FF00002FFF79DFE0346184607F10807BD4680BD00BF80B582B000AF0346FB71FB79072B05D8FB7918464FF00201FFF71CFBE4
:4019800007F10807BD4680BD80B582B000AF0346FB71FB79072B17D8FB791846FFF7E2FF03E04FF0010000F0CBF8FB791846FFF769FF0346002B08D1FB791846FFF740FF7D
:4019C0000346002BEDD000E000BF07F10807BD4680BD00BF80B582B000AF0346FB71FB7918464FF00801FFF7E7FA07F10807BD4680BD00BF80B584B000AF396013460246FD
:401A0000FA71BB80FB79072B02D94FF0000346E0BB88B3F5006F28BF4FF40063FB81FB791846FFF7F7F90346FB72FB7A172B32D1FA7948F24813C1F6FF7313F83230012BC2
:401A400029D14FF00003BB814FF01703FB720BE0FB791846FFF7DAFA0346BB81FB791846FFF7D8F90346FB72BA89FB899A4205D2FB7A172B02D1FB7A1C2BE9D1FA79FB895C
:401A800010464FF000013A68FFF7E4FAFB791846FFF714FF02E04FF00003FB81FB89184607F11007BD4680BD80B582B000AF03463960FB71386800F0C2F803469BB2FA79B7
:401AC000104639681A46FFF795FF07F10807BD4680BD00BF80B400AF44F2A233C4F2000344F2A232C4F200021278D2B242F00102D2B21A7044F2B233C4F2000344F2B23257
:401B0000C4F200021278D2B242F00102D2B21A70BD4680BC704700BF0230800800F0058000BF013800467FF4FCAF7047EFF3108072B6704780F31088704700BFAFF30080B1
:401B400080B582B000AF78600BE048F21813C1F6FF731B681846FFF7DFFF7B68A3F500437B607B68B3F5004FEFD848F21013C1F6FF731B687A6802FB03F31846FFF7CCFF12
:401B800007F10807BD4680BD80B582B000AF0346FB80FA8848F21413C1F6FF731B7803FB02F31846FFF7B8FF07F10807BD4680BD80B483B000AF0346FB7146F27A53C4F29A
:401BC0000003FA791A7007F10C07BD4680BC704738B50E4D0E4B0024E81A8510AC4205D00B4951F8242090470134F7E700F090F80849094A541AA5100024AC4205D0054B84
:401C000053F8240080470134F7E738BD1C1D00001C1D00001C1D0000241D000010B50023934203D0CC5CC4540133F9E710BD82180346934202D003F8011BFAE77047034647
:401C400013F8012B002AFBD1181A013870470000000000000D0A48656C6C6F2066726F6D2074686520573532303020696E74657266616365210D0A0000510040100020517C
:401C80000040100040510040100060510040100000000140001000140140000800400140000A004C014000020050014020000000008000880090009800A000A800B000B899
:401CC00000C000C800D000D800E000E800F000F830302D64652D61642D62652D65662D30300000003139322E3136382E302E3130310000003235352E3235352E3235352E5E
:401D0000300000003139322E3136382E302E3100F8B500BFF8BC08BC9E46704751000000A1010000F8B500BFF8BC08BC9E4670472D000000481D00000881FF1F180000000B
:401D400070000000000000000000000000366E01C05D0000180000000000E02E0000000000000000000000000000000000000000000000000000000000000000000000000B
:401D80000000000000000000000000000000000000000000000000000000000000000000000000000000000000000000000000000000000000000000000000000000000023
:401DC00000000000000000000000000000000000000000000000000000000000000000000000000000000000000000000000000000000000000000000000000000000000E3
:401E000000000000000000000000000000000000000000000000000000000000000000000000000000000000000000000000000000000000000000000000000000000000A2
:401E40000000000000000000000000000000000000000000000000000000000000000000000000000000000000000000000000000000000000000000000000000000000062
:020000040003F7
:0200000480007A
:4000000006520040026500405318014034190140621A0140481B01400248014003490140044C01400C4D01400250014009201C8028086040614078037A01890F0701080D2F
:400040000A020BEC0C0B0E04110413431409152116061702180419881A031B03231229E0300833103407350F37E03A203E013F405409580459045B045F018108829F85A45A
:400080008708887F89A08A808B0C8D0C8EFF8FA091109260941F952196209742988099449B209CC09DAC9E02A0C0A141A201A32EA4C0A510A604A8C0A960AA08AB0FAC9079
:4000C000ADACAE40B110B2FFB30FB560B780B902BB20BE04BF40D602D724D804D904DB04DF010040012002400440052009200A020B500E080F1010AA19081C041E081F0185
:40010000201021A8221823512514268029692C042F80312A334035213608380239543A013D285C205E405F0560046702682A69546A026B69708071407203C0CBC26FC40F80
:40014000CAAFCCEFCE6FD6F0D81400C6010104010501065E087709070A080BD80C460D040E8010391101120616801740184219011CC61D012108236124C22604288029A2AC
:400180002A462B082C042D102E20300F313F328033E03470380239023A303E043F01580459045B045F01800D8422869888118AA28C928E449402960D9860A00DA40DA80DA6
:4001C000AC0DB080B20FB470B820BA08BE01C056C103C210C404C50EC6FBC7CDC83DC9FFCAFFCBFFCC22CEF0CF08D004D440D804DA04DB04DF01E2C0E440E501E610E7115E
:40020000E8C0E901EB11EC40ED01EE40EF01001403410458074009240A810E281028120116021729184C19291A801E682102220429212A402B4032143341340436043904D5
:400240003A023B50458846804D204F84550456515788640265086610680280028280830886048A808C0290109104922193509440964097049A029B699C049D219E41A0286C
:40028000A1A8A280A502A780B421C0FFC26FC4F7CA0DCC0FCE0FD0D0D230D870E40C5704D4400F08A704C2800C206208C201D802578074018380840188208E08A020A608F6
:4002C000D402DE04E402E60410011C010040400040000000000303000300000080202000200000008000000000000000000808000800000000000000000000000000000007
:4003000000000000000000000000000000000000000000000000000000000000000000000000000000000000000000000000000000000000000000000000000000000000BD
:40034000000000000000000000000000000000000000000000000000000000000000000000000000000000000000000000000000000000000000000000000000000000007D
:40038000000000000000000000000000000000000000000000000000000000000000000000000000000000000000000000000000000000000000000000000000000000003D
:4003C00000000000000000000000000000000000000000000000000000000000000000000000000000000000000000000000000000000000000000000000000000000000FD
:0200000490006A
:0400000000004005B7
:0200000490105A
:04000000BC90ACAF55
:0200000490303A
:020000004E7A36
:0200000490402A
:4000000000000000000000000000000000000000000000000000000000000000000000000000000000000000000000000000000000000000000000000000000000000000C0
:400040000000000000000000000000000000000000000000000000000000000000000000000000000000000000000000000000000000000000000000000000000000000080
:400080000000000000000000000000000000000000000000000000000000000000000000000000000000000000000000000000000000000000000000000000000000000040
:4000C0000000000000000000000000000000000000000000000000000000000000000000000000000000000000000000000000000000000000000000000000000000000000
:0200000490501A
:0C00000000012E12306900012E207EE36A
:00000001FF