:400000000010002011000000B9050000B905000080B500AF00F0D4FA80B584B000AF021CFB1D1A70224A3B1C0B3312781A70214A3B1C0A3312781A701F4B1B68013BFB60DD
:400040001AE01E4B1868391C0B31FA68131C5B009B18C31801331B780B70184B1868391C0A31FA68131C5B009B18C31802331B780B70FB68013BFB60FB68002B0ADB0F4B59
:400080001968FA68131C5B009B185B5CFA1D12789A42D6D90A4B3A1C0B3212781A60094B3A1C0A3212781A60BD4604B080BDC046CCF1FF0FCDF1FF0F0C260000CC000020B8
:4000C0001CFF0B4020FF0B4080B500AF164B164A12688021C9020A431A601820FFF79CFF124B19221A60052000F0EEFC104B114A1278D2B21A60052000F01AFD0A4B0A4AF1
:4001000011680D4A0A401A600C4B10221A600C4B802212061A600B4B802212061A600A4B0A4A1A60BD4680BD00010B402CFF0B4028FF0B40E5F1FF0FFFFFFBFF300202402C
:4001400008010B4004010B40000002400100008080B586B000AF72B63B1C173300221A7026E03B1C17331A78131C5B009B185B00574A9B183B613B691A78597809020A4369
:40018000997809040A43DB781B0613431A1C3B6919795B791B020B439BB2101C191C00F093FA3B1C17333A1C1732127801321A703B1C17331B78022BD3D93B1C17330022DD
:4001C0001A7038E03B1C17331A78131C9B009B185B00404A9B18FB60FB681A78597809020A43997809040A43DB781B061343BB60FB681A79597909020A43997909040A43C0
:40020000DB791B0613437B60BA1CFB68197A5B7A1B020B431380BB1C1B88B9687A68081C111C1A1C00F060FA3B1C17333A1C1732127801321A703B1C17331B78002BC1D0B4
:40024000254A264B101C191C00F060FA244BC02292041A60234B244A1A60244B41221A60234B244A1A60244BC02252031A60234B11221A60224B234A1A60234B99221204CC
:400280001A60224B802252051A60214B992212041A60204B992212041A601F4B1F4A1A601F4B1F4A1278D2B202210A43D2B21A701B4B1B4A1278D2B206210A43D2B21A7070
:4002C000FFF702FF00F062FABD4606B080BDC046DC230000F0230000FC23000020240000000001400C00014003EE03000000044008000440860D18000801044000030440F9
:40030000080304408E6D000000500F4008500F4010500F4030500F4038500F400000010100700F4010B5064C2378002B07D10548002802D0044800E000BF0121217010BDB0
:4003400048010020000000002023000008B5084B002B03D00748084900E000BF07480168002903D0064A002A00D0904708BDC04600000000202300004C010020C80000204C
:400380000000000090B5A3B000AF00F051FA01F019FA00238420C019036015E001F0D4FE031CDAB217231340DBB24133DAB278498420C0190368CB181A708422D219136815
:4003C00001338420C01903608423DB191A68714B9A42E3DD3C1C8334172001F04FFD031C23703B1C83331B78181C01F059FD20E001F0AAFE031CDBB201229343DBB2181C25
:4004000000F0BCFA01F0A0FE031CDBB201229343DBB2181C00F0FEFA01F096FE031CDBB201229343DBB2181C00F0CEFA642000F05BFB3B1C83331B78181C01F045FD031CA6
:40044000002BD5D03B1C83331A78534B101C191C01F018FE3B1C83331A78504B101C191C01F010FE00238420C019036045E03B1C83331A784A4B101C191C01F003FE842218
:40048000D2191368012B11D002DC002B05D028E0022B14D0032B1BD023E03B1C83331A78404B101C191C01F0EDFD1AE03B1C83331A783D4B101C191C01F0E4FD11E03B1CB4
:4004C00083331A78394B101C191C01F0DBFD08E03B1C83331A78364B101C191C01F0D2FDC0468420C01903685A1C032313408422D2191360012000F0F7FA3B1C83331B785A
:40050000181C01F0ABFC031C002BB0D03B1C83331A78284B101C191C01F0B4FD3C1C80343B1C83331A783B1C101C191C802201F065FD031C23803B1C833319783A1C3B1CAB
:4005400080331B88081C111C1A1C01F0DDFC002000F086FA3B1C833319780D4AFA23DB00081C111C1A1C01F0CFFC012000F078FA3B1C83331B78181C01F0B6FC3B1C83330D
:400580001B78181C01F0DAFB0A2000F0ADFA21E770010020CF070000242300004C230000A0230000B8230000BC230000C0230000C4230000C823000080B500AFFEE7C046C7
:4005C00080B586B000AF254B7B61254B3B61234B7B61234B3B6132E03B691B68FB603B695B68BB603B699B683B6000237B600CE0FB681A68BB681A60BB680433BB60FB6899
:400600000433FB607B6804337B607A683B689A42EED13B69DB683B6000237B6008E0BB6800221A60BB680433BB607B6804337B607A683B689A42F2D13B6910333B617B69F7
:400640005A1E9341DBB27A69013A7A61002BC3D101F040FDFFF796FEFEE7C046010000008826000080B582B000AF00237B600FE07B68032B04D8104B7A689200D35800E0CD
:400680000E4B0F4A796889008B507B6801337B607B682F2BECD9FFF75BFD0A4B00221A608023DB058022D205126801210A431A60BD4602B080BDC04600000000B9050000FB
:4006C00000000020C000002080B582B000AF786039607A683B68101C00211A1C01F029FDBD4602B080BDC04680B584B000AFF860B9607A60F968BA687B68081C111C1A1C0C
:4007000001F00EFDBD4604B080BDC04680B586B000AF7860396000233B6100237B612EE07B699B007A68D3181B68BB603B1C0F33BA681A70BB68FF229343BB6017E03B696D
:400740005B003A68D3181B781A1CBB68D3183A69520039688A1852781A703B6901333B613B1C0F333A1C0F321278013A1A703B1C0F331B78002BE2D17B6901337B617B6959
:40078000082BCDD9BD4606B080BDC04680B500AFBD4680BD80B500AF084B0F221A7000F0BDF800F05FF800F06DF8054B00221A70044B00221A70BD4680BDC04683000F40FE
:4007C00081000F4080000F4090B583B000AFFC1D00F083F9031C2370124B124A1278D2B220210A43D2B21A700F4B0F4A1278D2B210210A43D2B21A700C4B0C4A1278D2B291
:4008000010210A43D2B21A70FB1D1B78181C00F068F900F049F900F01DF800F01FF8BD4603B090BD93000F4091000F4090000F4080B500AF064B1B78002B04D1FFF7AAFFB3
:40084000034B01221A70FFF7BFFFBD4680BDC0466401002080B500AFBD4680BD80B500AFBD4680BD80B582B000AF054AFB1D12781A70FB1D1B78181CBD4602B080BDC0464E
:4008800061000F4080B582B000AF054AFB1D12781A70FB1D1B78181CBD4602B080BDC04660000F4080B582B000AF021CFB1D1A70C046074B1B78DBB21A1C04231340F8D0AB
:4008C000044BFA1D12781A70BD4602B080BDC04661000F4043000F4080B582B000AF054AFB1D12781A70FB1D1B78181CBD4602B080BDC04653000F4080B500AF01E0054B25
:400900001B78054B1B78DBB21A1C20231340F6D1BD4680BD53000F4060000F4090B583B000AF01E0124B1B78124B1B78DBB21A1C20231340F6D1FC1D00F0CFF8031C237006
:400940000D4B0D4A1278D2B201210A43D2B21A70094B094A1278D2B201218A43D2B21A70FB1D1B78181C00F0BCF8BD4603B090BD53000F4060000F4093000F4080B584B069
:4009800000AF021CFB1D1A700E4B1B68DAB23B1C0F3340218A431A70FB1D1B789B01DAB240231340D9B23B1C0F333A1C0F3212780A431A70034B3A1C0F3212781A60BD467E
:4009C00004B080BD0001044080B584B000AF021CFB1D1A700E4B1B68DAB23B1C0F3308218A431A70FB1D1B78DB00DAB208231340D9B23B1C0F333A1C0F3212780A431A70BC
:400A0000034B3A1C0F3212781A60BD4604B080BD0000044080B584B000AF021CFB1D1A700E4B1B68DAB23B1C0F3304218A431A70FB1D1B789B00DAB204231340D9B23B1C12
:400A40000F333A1C0F3212780A431A70034B3A1C0F3212781A60BD4604B080BD0000044080B584B000AF021CFB1D1A700D4B1B68DAB23B1C0F3301218A431A70FB1D1A7820
:400A800001231340D9B23B1C0F333A1C0F3212780A431A70034B3A1C0F3212781A60BD4604B080BD0000044080B500AF044B044A1268802109060A431A60BD4680BDC046CA
:400AC00000000240000000000230800804D0C0460138FDD1C046C0467047EFF3108072B6704780F31088704780B582B000AF786008E00C4B1B68181CFFF7E6FF7B680A4A4D
:400B00009B187B607A6880231B029A42F1D8074B1B687A685343181CFFF7D6FFBD4602B080BDC046DC0000200080FFFFD400002080B582B000AF021CBB1D1A80BB1D1B880D
:400B4000044A12785343181CFFF7BEFFBD4602B080BDC046D800002080B500AFFE2001F0A9FABD4680BDC04680B500AFFF2001F0A1FABD4680BDC04690B585B000AF3960BD
:400B8000BB1D011C19803B1D1A8002E00120FFF7CFFFFFF767FE031C1A1C11231340F5D03C1C0934FFF799FF031C23703B1C0A33BA1D12881A803B1C0E3300221A803B1CD3
:400BC0000C3300221A80FFF7C7FFFFF795FEF020FFF768FE3B1C0A331B881B0A9BB2DBB2181CFFF75FFE3B1C0A331B88DBB2181CFFF758FE3B1C0E3301221A80C046FFF7F7
:400C000031FE031C1A1C04231340F8D03B1C0C331B883A68D3181B783A1C0C32391C0C31098801311180181CFFF73CFE3B1D3A1D1288013A1A803B1C0E333A1C0E321288D1
:400C4000013A1A803B1C0A333A1C0A32128801321A803B1C0E331B88002BCFD102E00120FFF766FFFFF7FEFD031C1A1C11231340F5D0FFF779FF3B1D1B88002BA3D13B1CBD
:400C800009331B78181CFFF72CFFBD4605B090BD90B587B000AF3960BB1D011C19803B1D1A8002E00120FFF743FFFFF7DBFD031C1A1C11231340F5D03B1C1433BA1D12880E
:400CC0001A803B1C163300221A80FFF745FFFFF713FE3B1C0E3300221A803B1C0C3301221A803B1C113303221A703B1C123301221A800F20FFF7D6FD3B1C14331B881B0A15
:400D00009BB2DBB2181CFFF7CDFD3B1C14331B88DBB2181CFFF7C6FD69E03B1C16331B883A68D418FFF7D8FD031C23703B1C11331B78002B07D03B1C11333A1C11321278A5
:400D4000013A1A700DE03B1C0E333A1C0E32128801321A803B1C16333A1C1632128801321A803B1C12331B88002B16D00020FFF799FD3B1C14333A1C1432128801321A80EA
:400D80003B1D3A1D1288013A1A803B1C12333A1C12321288013A1A8029E0FFF763FD031C1A1C112313403A1D391D098811803A1C1432391C1431098811803A1C1232391C1F
:400DC000123109881180002B11D0FFF7CDFE3B1D3A1D12881A803B1C14333A1C143212881A803B1C12333A1C123212881A803A1C0E323B1C0C3312881B889A4200D28CE77C
:400E00003B1D1B88002B00D05FE7FFF7ADFEBD4607B090BD80B584B000AF0A1CBB1D011C19803B1D1A803B1D1B881B029AB23B1D1B881B0A9BB29BB213439BB29AB23B1CAC
:400E40000E331A80BB1D1A883B1C0E33101C191C0222FFF791FEBD4604B080BD80B584B000AF021CBB1D1A80BB1D1A883B1C0E33101C191C0222FFF70BFF3B1C0E331B880D
:400E80001B029AB23B1C0E331B881B0A9BB29BB213439BB29AB23B1C0E331A803B1C0E331B88181CBD4604B080BDC04680B582B000AF78607B680920191C0622FFF75CFE9E
:400EC000BD4602B080BDC04680B582B000AF78603B1D0120191C0422FFF74EFEBD4602B080BDC04680B582B000AF78603B1D0520191C0422FFF740FEBD4602B080BDC0460C
:400F000080B582B000AF78603B1D0F20191C0422FFF732FEBD4602B080BDC04680B582B000AF021CFB1D1A70FB1D0020191C0122FFF722FEBD4602B080BDC04680B582B0E8
:400F400000AF021CFB1D1A70FB1D1520191C0122FFF712FEBD4602B080BDC04680B584B000AF0A1CFB1D011C1970BB1D1A703B1C0F331A20191C0122FFF78AFEFB1D1B78AD
:400F80005B000322111C99400B1CDBB2DB43DBB23A1C0F321278D2B21340DBB2DAB23B1C0F331A70BB1D1A78FB1D1B785B00111C99400B1CDAB23B1C0F331B78DBB21343E0
:400FC000DBB2DAB23B1C0F331A703B1C0F331A20191C0122FFF7D0FDBD4604B080BDC04680B584B000AF0A1CFB1D011C1970BB1D1A703B1C0F331B20191C0122FFF748FE07
:40100000FB1D1B785B000322111C99400B1CDBB2DB43DBB23A1C0F321278D2B21340DBB2DAB23B1C0F331A70BB1D1A78FB1D1B785B00111C99400B1CDAB23B1C0F331B7897
:40104000DBB21343DBB2DAB23B1C0F331A703B1C0F331B20191C0122FFF78EFDBD4604B080BDC04680B582B000AF0A1CFB1D011C1970BB1D1A70FB1D1B789BB21B029BB2EC
:401080008022D2009B189AB2BB1D101C191C0122FFF772FDBD4602B080BDC04680B582B000AF0A1CFB1D011C1970BB1D1A70FB1D1B789BB21B029BB2054A9B189AB2BB1D20
:4010C000101C191C0122FFF757FDBD4602B080BD0104000080B584B000AF021CFB1D1A703B1C0F33FF221A70FB1D1B789BB21B029BB2084A9B189AB23B1C0F33101C191C62
:401100000122FFF7C5FD3B1C0F331B78181CBD4604B080BD0104000080B582B000AF0A1CFB1D011C1970BB1D1A70FB1D1B789BB21B029BB2054A9B189AB2BB1D101C191C36
:401140000122FFF719FDBD4602B080BD0204000080B584B000AF021CFB1D1A703B1C0F33FF221A70FB1D1B789BB21B029BB2084A9B189AB23B1C0F33101C191C0122FFF766
:4011800087FD3B1C0F331B78181CBD4604B080BD0204000080B584B000AF021CFB1D1A703B1C0F33FF221A70FB1D1B789BB21B029BB2084A9B189AB23B1C0F33101C191C88
:4011C0000122FFF765FD3B1C0F331B78181CBD4604B080BD0304000080B582B000AF0A1CFB1D011C19703B1D1A80FB1D1B789BB21B029BB2054A9B189AB23B1D1B88101C56
:40120000191CFFF707FEBD4602B080BD0404000080B582B000AF021CFB1D1A70FB1D1B789BB21B029BB28422D2009B189BB2181CFFF714FE031C181CBD4602B080BDC0464D
:4012400080B582B000AF0A1CFB1D011C19703B1D1A80FB1D1B789BB21B029BB2054A9B189AB23B1D1B88101C191CFFF7D3FDBD4602B080BD2404000080B582B000AF021C62
:40128000FB1D1A70FB1D1B789BB21B029BB2054A9B189BB2181CFFF7E1FD031C181CBD4602B080BD2404000080B582B000AF021CFB1D1A70FB1D1B789BB21B029BB2054ADF
:4012C0009B189BB2181CFFF7C9FD031C181CBD4602B080BD2604000080B582B000AF0A1CFB1D011C19703B1D1A80FB1D1B789BB21B029BB28522D2009B189AB23B1D1B88CE
:40130000101C191CFFF786FDBD4602B080BDC04680B582B000AF021CFB1D1A70FB1D1B789BB21B029BB28522D2009B189BB2181CFFF794FD031C181CBD4602B080BDC04624
:4013400080B582B000AF0A1CFB1D011C19703B1D1A80BD4602B080BD80B582B000AF0A1CFB1D011C19703B1D1A80FB1D1B789BB21B029BB2054A9B189AB23B1D1B88101CCC
:40138000191CFFF747FDBD4602B080BD2204000080B584B000AF021C3960FB1D1A700023FB603B68DBB2FA1D1278101C191CFFF775FE05E0FB680133FB600120FFF794FB9F
:4013C000FB1D1B78181CFFF785FE031C002B02D0FB687C2BEED9FB68181CBD4604B080BD90B585B000AF021CFB1D1A703B1C0C3300221A803B1C0E3300221A803C1C0C34F6
:40140000FB1D1B78181CFFF703FF031C23803B1C0C331B88002B08D03C1C0E34FB1D1B78181CFFF7F5FE031C23803A1C0C323B1C0E3312881B889A42E0D13B1C0E331B8882
:40144000181CBD4605B090BD90B585B000AF021CFB1D1A703B1C0C3300221A803B1C0E3300221A803C1C0C34FB1D1B78181CFFF71BFF031C23803B1C0C331B88002B08D01F
:401480003C1C0E34FB1D1B78181CFFF70DFF031C23803A1C0C323B1C0E3312881B889A42E0D13B1C0E331B88181CBD4605B090BD80B586B000AFBA601A1C3B1C0F331870FA
:4014C0003B1C0C331980BB1D1A803B1C0F331B78181CFFF7D1FE031C191C3B1C16333A1C0C3212888A181A803B1C14333A1C163212885205520D1A803B1C0F331A782F4BFD
:401500005200D15A3B1C12333A1C143212888A181A803B1C10333A1C14321288802109018A1A1A80BA1D3B1C103312881B889A4223D93B1C12331988BA683B1C10331B8845
:40154000081C111C1A1CFFF717FB3B1C0F331A781A4B5200D15A3B1C10331B88BA68D218B81D3B1C103300881B88C31A9BB2081C111C1A1CFFF700FB0AE03B1C1233198823
:40158000BA68BB1D1B88081C111C1A1CFFF7F4FA3B1C1633391C1631BA1D098812888A181A803B1C0F331A783B1C16331B88101C191CFFF745FEBD4606B080BD1026000075
:4015C00080B586B000AFBA601A1C3B1C0F3318703B1C0C331980BB1D1A803B1C0F331B78181CFFF795FE031C191C3B1C16333A1C0C3212888A181A803B1C14333A1C16323C
:4016000012885205520D1A803B1C0F331A78324B5200D15A3B1C12333A1C143212888A181A803B1C10333A1C14321288802109018A1A1A80BA1D3B1C103312881B889A424A
:4016400023D93B1C12331988BA683B1C10331B88081C111C1A1CFFF71BFB3B1C0F331A781D4B5200D15A3B1C10331B88BA68D218B81D3B1C103300881B88C31A9BB2081CFE
:40168000111C1A1CFFF704FB0AE03B1C12331988BA68BB1D1B88081C111C1A1CFFF7F8FA3B1C20331A780123134012D13B1C1633391C1631BA1D098812888A181A803B1C38
:4016C0000F331A783B1C16331B88101C191CFFF703FEBD4606B080BD1826000080B586B000AFF860B9607A603B60FA20FFF7FCF98020FFF713FC0A20FFF7F6F900237B618F
:401700003BE07B69DBB2181C00F018FB7B69DBB2181C0121FFF764FC7B69DBB2181C0121FFF71CFC7B69DAB2234B79694900CB5A101C191CFFF7D0FD7B69DAB21E4B7969E7
:401740004900CB5A101C191CFFF7FAFD7B69DAB21A4B79694900CB5A101C191CFFF7FCFD7B69DAB2154B79694900CB5A101C191CFFF766FD7B6901337B617B69032BC0DDBB
:401780003B68181CFFF7A0FB7B68181CFFF7AAFB0B4B7A681A60FB68181CFFF787FBBB68181CFFF7ADFBFF20FFF7C8FB0020FFF799FBBD4606B080BD18260000102600006D
:4017C0006809002080B584B000AF1F4B1B78002B01D1FFF72DF80A20FFF786F91B4A1C4B101C191C00F0DAF8031C062B11D1184B00221A70164BDE225A70154BAD229A70F8
:40180000134BC022DA70124BDE221A71104B00225A71104B181C00F023F8031CFB600E4B181C00F01DF8031CBB600C4B181C00F017F8031C7B600648F968BA687B68FFF7E0
:401840004DFFBD4604B080BD64010020202600004009002034260000442600005426000090B589B000AF78600023FB6100237B610023BB6163E0FB697A68D3181B782F2B93
:4018800017D9FB697A68D3181B78392B11D87B69032B02DD01235B427BE0FB697A68D3181A78391C0C317B69CB181A707B6901337B61FB697A68D3181B782E2B06D0FB6929
:4018C00001337A68D3181B78002B35D13A1C0C327B69D31800221A7000237B613A1C0832BB69D31800221A701AE03A1C0832BB69D3181B781A1C9200D3185B00DAB2391CAF
:401900000C317B69CB181B78D318DBB2303BDAB2391C0831BB69CB181A707B6901337B613A1C0C327B69D3181B78002BDDD100237B61BB690133BB61FB690133FB61BB6934
:40194000032B07DCFC697B68181C00F03DFC031C9C4290D3BB69042B02D001235B4218E03B1C08331B781A1C3B1C08335B781B021B041B0CD2183B1C08339B781B04191C6D
:40198000FF231B040B40D2183B1C0833DB781B06D318181CBD4609B090BDC04680B586B000AF786039600023FB6000233B6100237B61F9E03B697A68D3181B782F2B05D9A1
:4019C0003B697A68D3181B78392B19D93B697A68D3181B78602B05D93B697A68D3181B78662B0DD93B697A68D3181B78402B00D8D5E03B697A68D3181B78462B00D9CEE0AD
:401A00007B693A68D2183B697968CB181B782F2B0CD93B697968CB181B78392B06D83B697968CB181B78303BDBB226E03B697968CB181B78602B0CD93B697968CB181B7860
:401A4000662B06D83B697968CB181B78573BDBB213E03B697968CB181B78402B0CD93B697968CB181B78462B06D83B697968CB181B78373BDBB200E0002313703B690133FD
:401A80003B617B693A68D3187A6939688A1812781201D2B21A703B697A68D3181B782F2B05D93B697A68D3181B78392B17D93B697A68D3181B78602B05D93B697A68D318D6
:401AC0001B78662B0BD93B697A68D3181B78402B61D93B697A68D3181B78462B5BD87B693A68D2187B693968CB1819783B697868C3181B782F2B0CD93B697868C3181B7801
:401B0000392B06D83B697868C3181B78303BDBB226E03B697868C3181B78602B0CD93B697868C3181B78662B06D83B697868C3181B78573BDBB213E03B697868C3181B78BA
:401B4000402B0CD93B697868C3181B78462B06D83B697868C3181B78373BDBB200E00023CB18DBB213703B6901333B617B69042B14DC3B697A68D3181B782D2B07D03B699F
:401B80007A68D3181B783A2B01D00623FB603B6901333B6102E00623FB6002E001E00623FB607B6901337B617B69052B09DCFB68002B06D13B697A68D3181B78002B00D099
:401BC000F8E6FB68181CBD4606B080BD80B584B000AFFB1D18703B1D1980BB1D1A703B1C0F33FF221A700023BB6018E03B1C0F331B78FF2B10D14E4BBA68D200D35C002BD7
:401C00000AD1FB1D1B78042B02D1BB68002B03D03B1C0F33BA681A70BB680133BB60BB68032BE3DD3B1C0F331B78FF2B78D03B1C0F331A783E4BD200F91D0978D1543B1CFC
:401C40000F331B783A49DB00BA1DCB1812785A703B1C0F331B783649DB003A1DCB1812885A803B1C0F331B78314ADB00D31800221A713B1C0F331B78181C0121FFF7B0F9B4
:401C80003B1C0F331B78181C0121FFF767F9294BBA685200D35A3A1C0F321278101C191CFFF71AFB234BBA685200D35A3A1C0F321278101C191CFFF743FB1F4BBA68520007
:401CC000D35A3A1C0F321278101C191CFFF744FB194BBA685200D35A3A1C0F321278101C191CFFF7ADFA3B1C0F331A783B1D1B88101C191CFFF770FAFA1DBB1D12781B78E9
:401D00001343DBB23A1C0F321278101C191CFFF7A9F93B1C0F331B78181C0121FFF738FB3B1C0F331B78181CBD4604B080BDC04648090020182600001026000080B582B055
:401D400000AF021CFB1D1A70FB1D1B78032B18D8FB1D1A780C4BD2000021D154FB1D1B78094ADB00D31800225A70FB1D1B78181C1021FFF70DFBFB1D1B78181CFF21FFF75F
:401D8000CBF9BD4602B080BD4809002090B585B000AF021CFB1D1A703B1C0F3300221A70FB1D1B78032B08D83C1C0F34FB1D1B78181CFFF7EFF9031C23703B1C0F331B78DF
:401DC000173B5A425341DBB2181CBD4605B090BD90B585B000AF021CFB1D1A70FB1D1B78032B35D81C4B1B68181CFFF77BF8FB1D1B78181C2021FFF7CBFA3C1C0F34FB1DB7
:401E00001B78181CFFF7A4F9031C23700BE00120FEF76AFE3C1C0F34FB1D1B78181CFFF797F9031C23703B1C0F331A781023134005D13B1C0F331A780A231340E7D0FB1D7A
:401E40001B78181C1021FFF767F90020FFF74AF8BD4605B090BDC0466809002080B582B000AF021CFB1D1A70FB1D1B78181CFFF7EBFA031C181CBD4602B080BD80B582B0E4
:401E800000AF021CBB1D1A80BB1D1B880120191C0022FFF79BFE031C181CBD4602B080BD80B582B000AF021CFB1D1A70FB1D1B78032B05D8FB1D1B78181C0221FFF768FA36
:401EC000BD4602B080BDC04680B582B000AF021CFB1D1A70FB1D1B78181CFFF757FF031C181CBD4602B080BD80B582B000AF021CFB1D1A70FB1D1B78181C0821FFF748FA8E
:401F0000BD4602B080BDC04690B585B000AF3960FB1D011C19703B1D1A80FB1D1B78032B01D9002364E03A1C0E323B1D1B8898B280210901884201D980231B0113803C1C49
:401F40000B34FB1D1B78181CFFF724F9031C23703B1C0B331B78172B43D1FB1D1A78264BD200D35C012B3CD13B1C0C3300221A803B1C0B3317221A7011E03C1C0C34FB1D60
:401F80001B78181CFFF72CFA031C23803C1C0B34FB1D1B78181CFFF7FDF8031C23703A1C0C323B1C0E3312881B889A4209D23B1C0B331B78172B04D13B1C0B331B781C2B9B
:401FC000DBD1FB1D19783A683B1C0E331B88081C0021FFF76DFAFB1D1B78181CFFF7F8FE03E03B1C0E3300221A803B1C0E331B88181CBD4605B090BD4809002090B587B0AA
:4020000002AF3960FB1D011C19703B1D1A80FB1D1B78032B01D900232FE03C1C0E34FB1D1B78181CFFF710FA031C2380391C0E313B1C0E333A1D12881B889CB290B2844270
:4020400000D9131C0B803B1C0E331B88002B11D0FB1D19783A683B1C0E331B8800200090081C0021FFF7ACFAFB1D1B78181C4021FFF78EF93B1C0E331B88181CBD4605B08B
:4020800090BDC04680B582B000AF021C3960FB1D1A703B68181C00F097F8031C9BB2FA1D11783A68081C111C1A1CFFF72DFFBD4602B080BD80B582B000AF021CFB1D1A70E9
:4020C000034BFA1D12781A70BD4602B080BDC04670000F4070B50E4B0E4D0024E81A85101E1CAC4204D0A100725890470134F8E700F0B8FA0849094A0E1C541AA510002413
:40210000AC4204D0A300F05880470134F8E770BD7026000070260000702600007826000010B50023934203D0CC5CC4540133F9E710BD00B58218031C934202D01970013307
:40214000FAE700BD0000000038B5194C2568AB6B002B17D1182000F03FF8A8632068154A816B154B0A80154A8B800B23144D0A818B810122002313480A614B614D80052553
:40218000C8804D812468094B074AA56B2869696900F088F801230024C0186141286169614900480838BDC0462D7F954C2DF45158440100200E33000034120000ECDEFFFF41
:4021C000CDABFFFF6DE6FFFF0023C25C0133002AFBD1581E7047000008B5034B011C186800F004F808BDC0464401002070B50323CD1C9D430835061C0C2D01D20C2501E02B
:40220000002D2DDB8D422BD31C4A1368111C1C1C002C12D02068421B0CD40B2A02D92260A41815E0A34202D166680E601CE065685D6019E0231C6468EAE7301C291C00F070
:402240001FF8421C0CD0C41C03218C43844201D1256009E0211A301C00F012F80130F7D10C243460002008E0201C0B300722211D9043431A01D05D42E55070BD6801002085
:4022800038B5074C0023051C081C236000F02CF8431C03D12168002900D0296038BDC0466C0900209C460304F0B51B0C17043F0C150C1E1C041C000C7E436B4347434543EE
:4022C000FB18300C1818874202D980277B02ED18070CED1967467C434A433604330CA11800044919C018F0BD0A4A00B51368002B0CD018186946884202D81060181C00BDF4
:40230000054B0C2201201A604342F7E7034B1360EFE7C0466C0100206C090020700900200000000057656C636F6D6520746F207468652050536F43342050696F6E656572FE
:4023400020426F617264210D0A0000002D2D2D2D2D2D2D2D2D2D2D2D2D2D2D2D2D2D2D2D2D2D2D2D2D2D2D2D2D2D2D2D2D2D2D2D2D2D2D2D2D2D2D2D2D2D2D2D2D2D2D2DF9
:402380002D2D2D2D2D2D2D2D2D2D2D2D2D2D2D2D2D2D2D2D2D2D2D2D0D0A0D0A00000000506C656173652050726573732061206B65793A20000000005C200D007C0D0000DA
:4023C0002F0D00002D0D00000D0A5468616E6B20596F7521203A2D292000000000300F40800200330F40000100400F400004000080320F408C2500008000000002000F4072
:402400002E300F4022310F400E320F4045330F4002400F4001410F400C430F4002600F407001830F0210041D09200BD00C1D0D0E100D121014021555160817AA18021A0D29
:402440001C1D1D331FC420012202241D2594276928022A04321033F0340F370F39803A203B083E045440580459045B045F018F01910297039B03B703D409D904DB04DF01A9
:4024800000880102024009080A4510201208130218101A04214023102540290432483618370239803B103D805C215F446010625067026802C00DC20FC40ECA02CCEACE1C71
:4024C000D6F0D81E140C16102404281E2A012C092E123008320736103A083E4158045F010092022009080A490E2010281240142015881720181119401D0C1E201F41200255
:402500002140226C232229042A022B08322833413880391440084148420249424A084B04510452505308631067C0686C69146A406B417040720188088C109310940196C156
:4025400097469C209D069E109F02A464A508A618AC02B140C00FC22FC4EECA07CC0FCE0ED00ED20CD802E808EE206680D680B280050857105D0189088F109101AD01C004BC
:40258000D402D601E008E201010110010700380004920004010400928496000004928004562109D20A3210C0849600006007006884FA0005800404000000000000007F1DFE
:4025C00000E0800708000028000040006301500002DEFB0C1FFFFFFF2200F008040000000000022804040404000000010000C00040011011C001001140014001000000007E
:40260000000000000000000000000000040000000040004800500058006000680070007830302D64652D61642D62652D65662D30300000003139322E3136382E302E31309F
:40264000310000003235352E3235352E3235352E300000003139322E3136382E302E310043000000F8B5C046F8BC08BC9E4670474D03000065060000F8B5C046F8BC08BC86
:402680009E4670472503000098260000C8000020800000002808000000000000C0F1FF0F00366E01C05D0000180000000000E02E000000000000000000000000000000005A
:4026C0000000000000000000000000000000000060260000000000000000000000000000000000000000000000000000000000000000000000000000000000000000000054
:402700000000000000000000000000000000000000000000E00000200000000000000000000000000000000000000000000000000000000000000000000000000000000099
:402740000000000000000000000000000000000000000000000000000000000000000000000000000000000000000000000000000000000000000000000000000000000059
:402780000000000000000000000000000000000000000000000000000000000000000000000000000000000000000000000000000000000000000000000000000000000019
:4027C00000000000000000000000000000000000000000000000000000000000000000000000000000000000000000000000000000000000000000000000000000000000D9
:402800000000000000000000000000000000000000000000000000000000000000000000000000000000000000000000000000000000000000000000000000000000000098
:0200000490303A
:02000000027F7D
:0200000490402A
:200000000000000000000000000000000000000000000000000000000000000000000000E0
:0200000490501A
:0C000000000204C81193110104D5141271
:0200000490600A
:0100000001FE
:00000001FF