:400000000010002011000000B5050000B505000080B500AF00F0D2FA80B584B000AF021CFB1D1A70224A3B1C0B3312781A70214A3B1C0A3312781A701F4B1B68013BFB60E7
:400040001AE01E4B1868391C0B31FA68131C5B009B18C31801331B780B70184B1868391C0A31FA68131C5B009B18C31802331B780B70FB68013BFB60FB68002B0ADB0F4B59
:400080001968FA68131C5B009B185B5CFA1D12789A42D6D90A4B3A1C0B3212781A60094B3A1C0A3212781A60BD4604B080BDC046CCF1FF0FCDF1FF0FEC200000CC000020DE
:4000C0001CFF0B4020FF0B4080B500AF164B164A12688021C9020A431A601820FFF79CFF124B19221A60052001F022FD104B114A1278D2B21A60052001F04EFD0A4B0A4A86
:4001000011680D4A0A401A600C4B10221A600C4B802212061A600B4B802212061A600A4B0A4A1A60BD4680BD00010B402CFF0B4028FF0B40E5F1FF0FFFFFFBFF300202402C
:4001400008010B4004010B40000002400100008080B586B000AF72B63B1C173300221A7026E03B1C17331A78131C5B009B185B00574A9B183B613B691A78597809020A4369
:40018000997809040A43DB781B0613431A1C3B6919795B791B020B439BB2101C191C00F08DFA3B1C17333A1C1732127801321A703B1C17331B78012BD3D93B1C17330022E4
:4001C0001A7038E03B1C17331A78131C9B009B185B00404A9B18FB60FB681A78597809020A43997809040A43DB781B061343BB60FB681A79597909020A43997909040A43C0
:40020000DB791B0613437B60BA1CFB68197A5B7A1B020B431380BB1C1B88B9687A68081C111C1A1C00F05AFA3B1C17333A1C1732127801321A703B1C17331B78002BC1D0BA
:40024000254A264B101C191C00F05AFA244BC02292041A60234B244A1A60244B41221A60234B244A1A60244BC02252031A60234B11221A60224B234A1A60234B99221204D2
:400280001A60224B802252051A60214B992212041A60204B992212041A601F4B802252041A601E4B1D4A1278D2B202210A43D2B21A701A4B194A1278D2B206210A43D2B271
:4002C0001A70FFF701FF00F05BFABD4606B080BDC41E0000D01E0000DC1E0000001F0000000001400C00014003EE03000000044008000440860D1800080104400003044009
:40030000080304408E6D000000500F4008500F4010500F4030500F4038500F4000700F4010B5064C2378002B07D10548002802D0044800E000BF0121217010BD5001002041
:4003400000000000081E000008B5084B002B03D00748084900E000BF07480168002903D0064A002A00D0904708BDC04600000000081E000054010020C800002000000000E7
:4003800090B5A3B000AF00F04DFA01F01FF800238420C019036015E001F04AFC031CDAB217231340DBB24133DAB278498420C0190368CB181A708422D219136801338420C9
:4003C000C01903608423DB191A68714B9A42E3DD3C1C8334172001F0E5F9031C23703B1C83331B78181C01F0EFF920E001F020FC031CDBB201229343DBB2181C01F0F2FA88
:4004000001F016FC031CDBB201229343DBB2181C01F034FB01F00CFC031CDBB201229343DBB2181C01F004FB642001F091FB3B1C83331B78181C01F0DBF9031C002BD5D05B
:400440003B1C83331A78534B101C191C01F0B2FA3B1C83331A78504B101C191C01F0AAFA00238420C019036045E03B1C83331A784A4B101C191C01F09DFA8422D2191368C0
:40048000012B11D002DC002B05D028E0022B14D0032B1BD023E03B1C83331A78404B101C191C01F087FA1AE03B1C83331A783D4B101C191C01F07EFA11E03B1C83331A78A4
:4004C000394B101C191C01F075FA08E03B1C83331A78364B101C191C01F06CFAC0468420C01903685A1C032313408422D2191360012001F02DFB3B1C83331B78181C01F017
:4005000041F9031C002BB0D03B1C83331A78284B101C191C01F04EFA3C1C80343B1C83331A783B1C101C191C802201F0F9F9031C23803B1C833319783A1C3B1C80331B88C0
:40054000081C111C1A1C01F073F9002001F0BCFA3B1C833319780D4AFA23DB00081C111C1A1C01F065F9012001F0AEFA3B1C83331B78181C01F04CF93B1C83331B78181C75
:4005800001F07CF80A2001F0E3FA21E794010020CF0700000C1E0000341E0000881E0000A01E0000A41E0000A81E0000AC1E0000B01E000080B500AFFEE7C04680B586B011
:4005C00000AF254B7B61254B3B61234B7B61234B3B6132E03B691B68FB603B695B68BB603B699B683B6000237B600CE0FB681A68BB681A60BB680433BB60FB680433FB6072
:400600007B6804337B607A683B689A42EED13B69DB683B6000237B6008E0BB6800221A60BB680433BB607B6804337B607A683B689A42F2D13B6910333B617B695A1E93413D
:40064000DBB27A69013A7A61002BC3D101F0B8FAFFF796FEFEE7C046010000004421000080B582B000AF00237B600FE07B68032B04D80E4B7A689200D35800E00C4B0D4A41
:40068000796889008B507B6801337B607B682F2BECD9FFF75DFD084B00221A608023DB0501221A60BD4602B080BDC04600000000B505000000000020C000002080B582B089
:4006C00000AF786039607A683B68101C00211A1C01F0A5FABD4602B080BDC04680B584B000AFF860B9607A60F968BA687B68081C111C1A1C01F08AFABD4604B080BDC0468B
:4007000080B586B000AF7860396000233B6100237B612EE07B699B007A68D3181B68BB603B1C0F33BA681A70BB68FF229343BB6017E03B695B003A68D3181B781A1CBB688F
:40074000D3183A69520039688A1852781A703B6901333B613B1C0F333A1C0F321278013A1A703B1C0F331B78002BE2D17B6901337B617B69082BCDD9BD4606B080BDC04658
:4007800080B500AFBD4680BD80B500AF084B0F221A7000F0D5F800F05FF800F06DF8054B00221A70044B00221A70BD4680BDC04680000F4083000F4082000F4090B583B0A3
:4007C00000AFFC1D01F0BDF9031C2370124B124A1278D2B220210A43D2B21A700F4B0F4A1278D2B210210A43D2B21A700C4B0C4A1278D2B210210A43D2B21A70FB1D1B7836
:40080000181C01F0A2F901F083F900F01DF800F01FF8BD4603B090BD90000F4093000F4092000F4080B500AF064B1B78002B04D1FFF7AAFF034B01221A70FFF7BFFFBD46C1
:4008400080BDC0466C01002080B500AFBD4680BD80B500AFBD4680BD80B582B000AF054AFB1D12781A70FB1D1B78181CBD4602B080BDC04663000F4080B582B000AF054AE1
:40088000FB1D12781A70FB1D1B78181CBD4602B080BDC04662000F4080B582B000AF021CFB1D1A70C046074B1B78DBB21A1C04231340F8D0044BFA1D12781A70BD4602B08F
:4008C00080BDC04663000F4040000F4080B582B000AF054AFB1D12781A70FB1D1B78181CBD4602B080BDC04650000F4080B582B000AF094B1B78DBB21A1C2023134001D046
:40090000012300E00023FA1D1370FB1D1B78181CBD4602B080BDC04662000F4080B500AF01E0054B1B78054B1B78DBB21A1C20231340F6D1BD4680BD50000F4062000F4033
:4009400090B583B000AF01E0124B1B78124B1B78DBB21A1C20231340F6D1FC1D01F0F1F8031C23700D4B0D4A1278D2B201210A43D2B21A70094B094A1278D2B201218A43EC
:40098000D2B21A70FB1D1B78181C01F0DEF8BD4603B090BD50000F4062000F4090000F4080B500AFBD4680BD80B582B000AF0A1CBB1D011C19807B1D1A7002E0012001F04D
:4009C000EBF8FFF749FF031C1A1C11231340F5D0FFF7E6FFFFF7A2FFF020FFF75DFFBB1D1B881B0A9BB2DBB2181CFFF755FFBB1D1B88DBB2181CFFF74FFF7B1D1B78181C8A
:400A0000FFF74AFFBD4602B080BDC04680B584B000AF021CBB1D1A8002E0012001F0BCF8FFF71AFF031C1A1C11231340F5D0FFF7B7FFFFF773FF0F20FFF72EFFBB1D1B889E
:400A40001B0A9BB2DBB2181CFFF726FFBB1D1B88DBB2181CFFF720FF0020FFF71DFF02E0012001F099F8FFF7F7FE031C1A1C11231340F5D0FFF73AFF031CBB6007E0FFF74E
:400A800025FF031CFB60FFF731FF031CBB60BB68002BF4D1FB68DBB2181CBD4604B080BD80B584B000AF021C3960BB1D1A800023FB6010E0FB689AB2BB1D1B88D3189AB2FD
:400AC0003968FB68CB181B78101C191CFFF76CFFFB680133FB60FB68052BEBD9BD4604B080BDC04680B584B000AF021C3960BB1D1A803B1CBB600023FB6010E0FB689AB2A7
:400B0000BB1D1B88D3189AB2B968FB68CB181B78101C191CFFF748FFFB680133FB60FB68032BEBD9BD4604B080BDC04680B582B000AF0A1CBB1D011C19803B1D1A803B1D16
:400B40001B881B0A9BB2DBB2BA1D1288101C191CFFF72AFFBB1D1B8801339AB23B1D1B88DBB2101C191CFFF71FFFBD4602B080BD80B584B000AF021CBB1D1A80BB1D1B88D5
:400B8000181CFFF743FF031C1A1C3B1C0E331A803B1C0E333A1C0E32128812021A80BB1D1B8801339BB2181CFFF730FF031C191C3B1C0E333A1C0E3212888A181A803B1CC8
:400BC0000E331B88181CBD4604B080BD80B584B000AF3960BB1D011C19803B1D1A800023FB6010E0FB689AB2BB1D1B88D3189AB2FB683968CB181B78101C191CFFF7D4FE46
:400C0000FB680133FB603B1D1A88FB689A42E9DCBD4604B080BDC04690B585B000AF3960BB1D011C19803B1D1A800023FB6010E0FB683A68D418FB689AB2BB1D1B88D31814
:400C40009BB2181CFFF7E2FE031C2370FB680133FB603B1D1A88FB689A42E9DCBD4605B090BDC04680B582B000AF78607B680920191CFFF715FFBD4602B080BD80B582B0DE
:400C800000AF78607B680120191CFFF72BFFBD4602B080BD80B582B000AF78607B680520191CFFF71FFFBD4602B080BD80B582B000AF78607B680F20191CFFF713FFBD46F1
:400CC00002B080BD80B582B000AF021CFB1D1A70FB1D1B780020191CFFF766FEBD4602B080BDC04680B582B000AF021CFB1D1A70FB1D1B781520191CFFF756FEBD4602B0F3
:400D000080BDC04680B582B000AF021CFB1D1A70FB1D1B781A20191CFFF746FEBD4602B080BDC04680B582B000AF021CFB1D1A70FB1D1B781B20191CFFF736FEBD4602B07E
:400D400080BDC04680B582B000AF0A1CFB1D011C1970BB1D1A70FB1D1B789BB21B029BB28022D2009B189AB2BB1D1B78101C191CFFF71AFEBD4602B080BDC04680B582B0C6
:400D800000AF0A1CFB1D011C1970BB1D1A70FB1D1B789BB21B029BB2054A9B189AB2BB1D1B78101C191CFFF7FFFDBD4602B080BD0104000080B582B000AF021CFB1D1A7003
:400DC000FB1D1B789BB21B029BB2054A9B189BB2181CFFF71BFE031C181CBD4602B080BD0104000080B582B000AF0A1CFB1D011C1970BB1D1A70FB1D1B789BB21B029BB2F7
:400E0000054A9B189AB2BB1D1B78101C191CFFF7CBFDBD4602B080BD0204000080B582B000AF021CFB1D1A70FB1D1B789BB21B029BB2054A9B189BB2181CFFF7E7FD031C2E
:400E4000181CBD4602B080BD0204000080B582B000AF021CFB1D1A70FB1D1B789BB21B029BB2054A9B189BB2181CFFF7CFFD031C181CBD4602B080BD0304000080B582B016
:400E800000AF0A1CFB1D011C19703B1D1A80FB1D1B789BB21B029BB2054A9B189AB23B1D1B88101C191CFFF741FEBD4602B080BD0404000080B582B000AF021CFB1D1A709C
:400EC000FB1D1B789BB21B029BB28422D2009B189BB2181CFFF74CFE031C181CBD4602B080BDC04680B582B000AF0A1CFB1D011C19703B1D1A80FB1D1B789BB21B029BB20B
:400F0000054A9B189AB23B1D1B88101C191CFFF70DFEBD4602B080BD2404000080B582B000AF021CFB1D1A70FB1D1B789BB21B029BB2054A9B189BB2181CFFF719FE031C05
:400F4000181CBD4602B080BD2404000080B582B000AF021CFB1D1A70FB1D1B789BB21B029BB2054A9B189BB2181CFFF701FE031C181CBD4602B080BD2604000080B582B09D
:400F800000AF0A1CFB1D011C19703B1D1A80FB1D1B789BB21B029BB28522D2009B189AB23B1D1B88101C191CFFF7C0FDBD4602B080BDC04680B582B000AF021CFB1D1A70F5
:400FC000FB1D1B789BB21B029BB28522D2009B189BB2181CFFF7CCFD031C181CBD4602B080BDC04680B584B000AF021C3960FB1D1A700023FB603B68DBB2FA1D1278101CEC
:40100000191CFFF7BBFE05E0FB680133FB60012000F09EFDFB1D1B78181CFFF7CBFE031C002B02D0FB687C2BEED9FB68181CBD4604B080BD90B585B000AF021CFB1D1A704A
:401040003B1C0C3300221A803B1C0E3300221A803C1C0C34FB1D1B78181CFFF72BFF031C23803B1C0C331B88002B08D03C1C0E34FB1D1B78181CFFF71DFF031C23803A1C92
:401080000C323B1C0E3312881B889A42E0D13B1C0E331B88181CBD4605B090BD90B585B000AF021CFB1D1A703B1C0C3300221A803B1C0E3300221A803C1C0C34FB1D1B784A
:4010C000181CFFF743FF031C23803B1C0C331B88002B08D03C1C0E34FB1D1B78181CFFF735FF031C23803A1C0C323B1C0E3312881B889A42E0D13B1C0E331B88181CBD46B9
:4011000005B090BD80B586B000AFBA601A1C3B1C0F3318703B1C0C331980BB1D1A803B1C0F331B78181CFFF7F9FE031C191C3B1C16333A1C0C3212888A181A803B1C143338
:401140003A1C163212885205520D1A803B1C0F331B789BB2DB039AB23B1C14331B88D3189AB23B1C12338021C90152181A803B1C10333A1C14321288802109018A1A1A8008
:40118000BA1D3B1C103312881B889A4227D93B1C12331988BA683B1C10331B88081C111C1A1CFFF713FD3B1C0F331B789BB2DB039BB28022D2019B1899B23B1C10331B8828
:4011C000BA68D218B81D3B1C103300881B88C31A9BB2081C111C1A1CFFF7F8FC0AE03B1C12331988BA68BB1D1B88081C111C1A1CFFF7ECFC3B1C1633391C1631BA1D0988E1
:4012000012888A181A803B1C0F331A783B1C16331B88101C191CFFF765FEBD4606B080BD80B586B000AFBA601A1C3B1C0F3318703B1C0C331980BB1D1A803B1C0F331B7862
:40124000181CFFF7B7FE031C191C3B1C16333A1C0C3212888A181A803B1C14333A1C163212885205520D1A803B1C0F331B789BB2DB039AB23B1C14331B88D3189AB23B1C99
:401280001233C021C90152181A803B1C10333A1C14321288802109018A1A1A80BA1D3B1C103312881B889A4227D93B1C12331988BA683B1C10331B88081C111C1A1CFFF7DE
:4012C000ABFC3B1C0F331B789BB2DB039BB2C022D2019B1899B23B1C10331B88BA68D218B81D3B1C103300881B88C31A9BB2081C111C1A1CFFF790FC0AE03B1C12331988B3
:40130000BA68BB1D1B88081C111C1A1CFFF784FC3B1C20331A780123134012D13B1C1633391C1631BA1D098812888A181A803B1C0F331A783B1C16331B88101C191CFFF73E
:401340001DFEBD4606B080BD80B586B000AFF860B9607A603B60FA2000F0FAFB8020FFF7B1FC0A2000F0F4FB00237B6107E07B69DBB2181C00F082F97B6901337B617B6943
:40138000032BF4DD5520FFF7CDFC5520FFF7BAFC3B68181CFFF772FC7B68181CFFF77AFC094B7A681A60FB68181CFFF75BFCBB68181CFFF77BFCFF20FFF794FC0020FFF708
:4013C00069FCBD4606B080BD8801002080B584B000AF124B1B78002B01D1FFF723FA0A2000F0B6FB0E4B181C00F022F8031CFB600C4B181C00F01CF8031CBB600A4B181CA3
:4014000000F016F8031C7B600848F968BA687B68FFF79AFFBD4604B080BDC0466C010020F02000000021000010210000D000002090B589B000AF78600023FB6100237B6113
:401440000023BB6163E0FB697A68D3181B782F2B17D9FB697A68D3181B78392B11D87B69032B02DD01235B427BE0FB697A68D3181A78391C0C317B69CB181A707B69013300
:401480007B61FB697A68D3181B782E2B06D0FB6901337A68D3181B78002B35D13A1C0C327B69D31800221A7000237B613A1C0832BB69D31800221A701AE03A1C0832BB692D
:4014C000D3181B781A1C9200D3185B00DAB2391C0C317B69CB181B78D318DBB2303BDAB2391C0831BB69CB181A707B6901337B613A1C0C327B69D3181B78002BDDD1002374
:401500007B61BB690133BB61FB690133FB61BB69032B07DCFC697B68181C00F0C9FB031C9C4290D3BB69042B02D001235B4218E03B1C08331B781A1C3B1C08335B781B02E7
:401540001B041B0CD2183B1C08339B781B04191CFF231B040B40D2183B1C0833DB781B06D318181CBD4609B090BDC04680B584B000AFFB1D18703B1D1980BB1D1A703B1C36
:401580000F33FF221A700023BB601BE03B1C0F331B78FF2B13D13849BA68131C5B009B185B005B5C002B0AD1FB1D1B78042B02D1BB68002B03D03B1C0F33BA681A70BB689D
:4015C0000133BB60BB68032BE0DD3B1C0F331B78FF2B4AD03B1C0F331A782749131C5B009B185B00FA1D12785A543B1C0F331A782149131C5B009B185B00BA1DCB1812782B
:401600005A703B1C0F331A781B49131C5B009B185B003A1DCB1812885A803B1C0F331A781549131C5B009B185B00CB1800221A713B1C0F331A783B1D1B88101C191CFFF7DD
:401640001DFCFA1DBB1D12781B781343DBB23A1C0F321278101C191CFFF774FB3B1C0F331B78181C0121FFF7BDFC3B1C0F331B78181CBD4604B080BD7001002080B582B0FE
:4016800000AF021CFB1D1A70FB1D1B78032B1ED8FB1D1A780F49131C5B009B185B0000225A54FB1D1A780B49131C5B009B185B00CB1800225A70FB1D1B78181C1021FFF717
:4016C00091FCFB1D1B78181CFF21FFF78BFBBD4602B080BD7001002080B582B000AF021CFB1D1A70FB1D1B78181CFFF7AFFB031C173B5A425341DBB2181CBD4602B080BDB6
:4017000090B585B000AF021CFB1D1A701C4B1B68181CFFF7BFFAFB1D1B78181C2021FFF761FC3C1C0F34FB1D1B78181CFFF776FB031C23700BE0012000F00AFA3C1C0F3452
:40174000FB1D1B78181CFFF769FB031C23703B1C0F331A781023134005D13B1C0F331A780A231340E7D0FB1D1B78181C1021FFF739FB0020FFF78EFABD4605B090BDC046B2
:401780008801002080B582B000AF021CFB1D1A70FB1D1B78181CFFF781FC031C181CBD4602B080BD80B582B000AF021CBB1D1A80BB1D1B880120191C0022FFF7D7FE031C90
:4017C000181CBD4602B080BD80B582B000AF021CFB1D1A70FB1D1B78032B05D8FB1D1B78181C0221FFF7FEFBBD4602B080BDC04680B582B000AF021CFB1D1A70FB1D1B78CD
:40180000181CFFF769FF031C181CBD4602B080BD80B582B000AF021CFB1D1A70FB1D1B78181C0821FFF7DEFBBD4602B080BDC04690B585B000AF3960FB1D011C19703B1D54
:401840001A803A1C0E323B1D1B8898B280210901884201D980231B0113803C1C0B34FB1D1B78181CFFF7F2FA031C23703B1C0B331B78172B46D1FB1D1A782849131C5B0022
:401880009B185B005B5C012B3CD13B1C0C3300221A803B1C0B3317221A7011E03C1C0C34FB1D1B78181CFFF7C5FB031C23803C1C0B34FB1D1B78181CFFF7C8FA031C2370C0
:4018C0003A1C0C323B1C0E3312881B889A4209D23B1C0B331B78172B04D13B1C0B331B781C2BDBD1FB1D19783A683B1C0E331B88081C0021FFF706FCFB1D1B78181CFFF7D6
:40190000FFFE03E03B1C0E3300221A803B1C0E331B88181CBD4605B090BDC0467001002090B587B002AF3960FB1D011C19703B1D1A803B1C0E3300221A80FB1D1B78181CBF
:40194000FFF784FA031C172B2CD13C1C0E34FB1D1B78181CFFF7A2FB031C2380391C0E313B1C0E333A1D12881B889CB290B2844200D9131C0B803B1C0E331B88002B11D0D7
:40198000FB1D19783A683B1C0E331B8800200090081C0021FFF744FCFB1D1B78181C4021FFF720FB3B1C0E331B88181CBD4605B090BDC04680B582B000AF021C3960FB1DC6
:4019C0001A703B68181C00F073F9031C9BB2FA1D11783A68081C111C1A1CFFF729FFBD4602B080BD80B584B000AF021CFB1D1A700E4B1B68DAB23B1C0F3340218A431A7054
:401A0000FB1D1B789B01DAB240231340D9B23B1C0F333A1C0F3212780A431A70034B3A1C0F3212781A60BD4604B080BD0001044080B584B000AF021CFB1D1A700E4B1B682B
:401A4000DAB23B1C0F3308218A431A70FB1D1B78DB00DAB208231340D9B23B1C0F333A1C0F3212780A431A70034B3A1C0F3212781A60BD4604B080BD0000044080B584B08B
:401A800000AF021CFB1D1A700E4B1B68DAB23B1C0F3304218A431A70FB1D1B789B00DAB204231340D9B23B1C0F333A1C0F3212780A431A70034B3A1C0F3212781A60BD46E6
:401AC00004B080BD0000044080B584B000AF021CFB1D1A700D4B1B68DAB23B1C0F3301218A431A70FB1D1A7801231340D9B23B1C0F333A1C0F3212780A431A70034B3A1C7F
:401B00000F3212781A60BD4604B080BD0000044080B500AF044B044A1268802109060A431A60BD4680BDC04600000240000000000230800804D0C0460138FDD1C046C04687
:401B40007047EFF3108072B6704780F31088704780B582B000AF786008E00C4B1B68181CFFF7E6FF7B680A4A9B187B607A6880231B029A42F1D8074B1B687A685343181C4F
:401B8000FFF7D6FFBD4602B080BDC046E40000200080FFFFDC00002080B582B000AF021CBB1D1A80BB1D1B88044A12785343181CFFF7BEFFBD4602B080BDC046E000002076
:401BC00070B50E4B0E4D0024E81A85101E1CAC4204D0A100725890470134F8E700F0A0FA0849094A0E1C541AA5100024AC4204D0A300F05880470134F8E770BD2C2100005E
:401C00002C2100002C2100003421000010B50023934203D0CC5CC4540133F9E710BD00B58218031C934202D019700133FAE700BD38B5194C2568AB6B002B17D1182000F064
:401C40003FF8A8632068154A816B154B0A80154A8B800B23144D0A818B810122002313480A614B614D800525C8804D812468094B074AA56B2869696900F088F801230024B4
:401C8000C0186141286169614900480838BDC0462D7F954C2DF451584C0100200E33000034120000ECDEFFFFCDABFFFF6DE6FFFF0023C25C0133002AFBD1581E7047000051
:401CC00008B5034B011C186800F004F808BDC0464C01002070B50323CD1C9D430835061C0C2D01D20C2501E0002D2DDB8D422BD31C4A1368111C1C1C002C12D02068421B4C
:401D00000CD40B2A02D92260A41815E0A34202D166680E601CE065685D6019E0231C6468EAE7301C291C00F01FF8421C0CD0C41C03218C43844201D1256009E0211A301CFF
:401D400000F012F80130F7D10C243460002008E0201C0B300722211D9043431A01D05D42E55070BD8C01002038B5074C0023051C081C236000F02CF8431C03D121680029F3
:401D800000D0296038BDC046640900209C460304F0B51B0C17043F0C150C1E1C041C000C7E436B4347434543FB18300C1818874202D980277B02ED18070CED1967467C434E
:401DC0004A433604330CA11800044919C018F0BD0A4A00B51368002B0CD018186946884202D81060181C00BD054B0C2201201A604342F7E7034B1360EFE7C0469001002000
:401E000064090020680900200000000057656C636F6D6520746F207468652050536F43342050696F6E65657220426F617264210D0A0000002D2D2D2D2D2D2D2D2D2D2D2D5D
:401E40002D2D2D2D2D2D2D2D2D2D2D2D2D2D2D2D2D2D2D2D2D2D2D2D2D2D2D2D2D2D2D2D2D2D2D2D2D2D2D2D2D2D2D2D2D2D2D2D2D2D2D2D2D2D2D2D2D2D2D2D2D2D2D2D22
:401E80000D0A0D0A00000000506C656173652050726573732061206B65793A20000000005C200D007C0D00002F0D00002D0D00000D0A5468616E6B20596F7521203A2D2966
:401EC0002000000080300F40800300400F40000400300F406C2000008000000001000F400A300F402E310F4036320F4033330F4002400F4003410F400C430F4002600F40BC
:401F0000800F8501870289068B0191049D04B107BB02D904DF0100860120080209090A05100A19281A421B802004211D23142480250126012A423028334136813880392AC8
:401F40003F1440044108438049044A055002514052D453016110686D69406A046B417203C00FC20FC403CA09CC9FCE6FD00ED20CD80408080A340E011414162B180E1A3097
:401F80001C241E1B343C36033A20544058045B045F01800D8104840D850A8710880289078A0D8B388C0D8D04901291019208941296049704981199049A029C0D9D04A10415
:401FC000A40DA560AD56AF09B010B17FB20FB902BA08BE01D409D804D904DB04DF01009A055009090A010B040D140E02102018101B011D50210228022A0630283102334086
:40200000396A59045A526302650866106702810285408D408E1091EA924393069802990C9A169B409D10A06DA109A201A920B604C0CFC2EFC404CA0BCC0FCE0FD60FD87889
:40204000E001EC015D02D68085029D02E610050850205E0280209D08A201AA01B508C004D404D601EA02010110010000003250C0032124D20E07006850FA00050492290437
:4020800025040A9250920004509600000096000000000000500000000004400020E0401D0F0710002000000A0000450035021000060EFCDB3DFFFFFF2200F00804000000E9
:4020C0000000022404040404000000010000C00040011011C00100114001400100000000000000000000000000000000040000003139322E3136382E312E313031000000A7
:402100003235352E3235352E3235352E300000003139322E3136382E312E310043000000F8B5C046F8BC08BC9E4670474903000061060000F8B5C046F8BC08BC9E46704768
:402140002103000058210000C800002088000000180800000000000000000000C0F1FF0F00DEADBEEF00000000366E01C05D0000180000000000E02E000000000000000053
:402180000000000000000000000000000000000000000000000000001C210000000000000000000000000000000000000000000000000000000000000000000000000000E2
:4021C00000000000000000000000000000000000000000000000000000000000E80000200000000000000000000000000000000000000000000000000000000000000000D7
:40220000000000000000000000000000000000000000000000000000000000000000000000000000000000000000000000000000000000000000000000000000000000009E
:40224000000000000000000000000000000000000000000000000000000000000000000000000000000000000000000000000000000000000000000000000000000000005E
:40228000000000000000000000000000000000000000000000000000000000000000000000000000000000000000000000000000000000000000000000000000000000001E
:4022C00000000000000000000000000000000000000000000000000000000000000000000000000000000000000000000000000000000000000000000000000000000000DE
:0200000490303A
:02000000853148
:0200000490402A
:200000000000000000000000000000000000000000000000000000000000000000000000E0
:0200000490501A
:0C000000000204C81193110104D396C43F
:0200000490600A
:0100000001FE
:00000001FF