:400000000080002011000000610200006102000080B500AF47F2BC63C4F2000344F2FA62C4F2000212681A6000F01EF910B5054C237833B9044810B10448AFF300800121D5
:40004000217010BD9081FF1F000000004C1C000008B5064B1BB106480649AFF300800648016811B1054A02B1904708BD000000004C1C00009481FF1F0881FF1F0000000099
:4000800080B5A2B000AF00F03DFC01F06DF94FF00003C7F8843017E001F014FD0346DBB203F01703DBB203F14103DAB248F2D413C1F6FF73D7F884105B181A70D7F884307B
:4000C00003F10103C7F88430D7F8842040F2CF739A42E1DD4FF0170001F03EFB034687F8833097F88330184601F04AFB03E04FF0640001F055FC97F88330184601F052FB9D
:400100000346002BF3D097F88330184641F65041C0F2000101F0F8FB97F88330184641F67C41C0F2000101F0EFFB4FF00003C7F884304BE097F88330184641F6D041C0F2ED
:40014000000101F0E1FBD7F88430032B32D801A252F823F065010000790100008D010000A101000097F88330184641F6E841C0F2000101F0C9FB1DE097F88330184641F6AA
:40018000EC41C0F2000101F0BFFB13E097F88330184641F6F041C0F2000101F0B5FB09E097F88330184641F6F441C0F2000101F0ABFB00BFD7F8843003F1010303F00303F3
:4001C000C7F884304FF0010001F0EAFB97F88330184601F0B1FA0346002BABD097F88330184641F6F841C0F2000101F08DFB97F883203B46104619464FF0800201F04CFBAE
:400200000346A7F8803097F883103A46B7F88030084611461A4601F0E5FA4FF0000001F0F7FB97F88330184648F2D411C1F6FF714FF4FA6201F0D6FA4FF0010001F0E8FBD4
:4002400097F88330184601F0BDFA97F88330184601F0ECF94FF00A0001F0A2FB3AE700BF80B400AFFEE700BF80B586B000AF40F20103C0F200037B6141F6A853C0F20003BA
:400280003B6140F20103C0F200037B6141F6A853C0F200033B613BE03B691B68FB603B695B68BB603B699B683B604FF000037B600FE0FB681A68BB681A60BB6803F104034B
:4002C000BB60FB6803F10403FB607B6803F104037B607A683B689A42EBD13B69DB683B604FF000037B600BE0BB684FF000021A60BB6803F10403BB607B6803F104037B60FA
:400300007A683B689A42EFD13B6903F110033B617B69002B0CBF00230123DBB27A6902F1FF327A61002BB7D101F094FBFFF7A8FEFEE700BF80B582B000AF4EF60C53CEF2D9
:4003400000034FF48062C0F2FA521A604EF61453CEF200034EF61452CEF20002126842F400721A604FF000037B6019E07B68032B07D840F20003C0F200037A6853F82230F8
:4003800003E040F26123C0F2000348F20002C1F6FF72796842F821307B6803F101037B607B682F2BE2D947F2BC63C4F200031B78DAB248F20413C1F6FF731A704EF608539E
:4003C000CEF2000348F20002C1F6FF721A6000F043F948F20013C1F6FF734FF000021A6007F10807BD4680BD80B582B000AF7860396078684FF000013A6801F05AFB07F131
:400400000807BD4680BD00BF80B584B000AFF860B9607A60F868B9687A6801F041FB07F11007BD4680BD00BF80B483B000AF0346FB71FEE780B487B000AF786039604FF033
:4004400000033B614FF000037B612CE07B694FEA83037A68D3181B68BB60BB68FB73BB6823F0FF03BB6017E03B694FEA43033A68D3181B781A46BB68D3183A694FEA4202F9
:4004800039688A1852781A703B6903F101033B61FB7B03F1FF33FB73FB7B002BE4D17B6903F101037B617B690E2BCFD907F11C07BD4680BC704700BF80B582B000AF4FF467
:4004C0008143C4F200034FF003021A8044F28203C4F200034FF018021A704FF48643C4F200034FF002021A704FF040234FF008021A704FF48443C4F200034FF002021A70B3
:4005000044F2A163C4F2000340F20B12C4F600121278D2B21A7044F22223C4F2000340F618021A8044F22023C4F2000341F251221A804FF00003FB704FF019037B6019E0A9
:40054000FB784FEA4303DAB244F22523C4F200031B78DBB203F00103DBB21343DBB203F00303FB704FF4F07001F006FA7B6803F1FF337B607B68002B02D0FB78032BDFD132
:400580007B68002B03D14FF00300FFF74DFF44F20403C4F200034FF480721A8044F20403C4F200034FF007021A7044F20603C4F200034FF000021A7044F20803C4F200038B
:4005C0004FF048021A7044F20403C4F200034FF000021A7044F20103C4F200034FF002021A7044F2A233C4F2000344F2A232C4F200021278D2B242F00102D2B21A7007F198
:400600000807BD4680BD00BF80B483B000AF40F2CF13C4F600131B78FB7145F66E03C4F20003FA7902F00702D2B21A7045F66F03C4F20003FA794FEA1212D2B21A7045F656
:400640007603C4F200034FF044021A7007F10C07BD4680BC704700BF80B586B000AF72B64FF49043C4F200034FF001021A70FFF723FF44F2E863C4F2000344F2E862C4F214
:4006800000021278D2B242F00402D2B21A704FF00003FB7519E0FA7D13464FEA43039B184FEA430341F60C52C0F200029B183B613B691A683B699B889BB210461946FFF73B
:4006C00093FEFB7D03F10103FB75FB7D092BE2D94FF00003FB7523E0FA7D13464FEA83039B184FEA430341F64852C0F200029B18FB60FB681B68BB60FB685B687B60FB68B4
:400700001A7A5B7A4FEA032313437B807B88B86879681A46FFF778FEFB7D03F10103FB75FB7D002BD8D04FF090404FF03C01C4F60001FFF77FFE45F20303C4F2010345F2BE
:400740000302C4F201021278D2B242F00202D2B21A7045F21303C4F2010345F21302C4F201021278D2B242F00202D2B21A7044F2A033C4F2000344F2A032C4F200021278FF
:40078000D2B242F04002D2B21A7044F2C233C4F2000344F2C232C4F200021278D2B242F01002D2B21A7045F20210C4F200004FF44271C4F600014FF00802FFF725FE45F2C4
:4007C000C010C4F200004FF44471C4F600014FF00A02FFF719FE45F23210C4F200004FF44771C4F600014FF00802FFF70DFE45F25210C4F200004FF44971C4F600014FF0F3
:400800000802FFF701FE44F22233C4F2000344F22232C4F200021278D2B242F00802D2B21A70FFF7F1FE44F2B030C4F2000044F2A031C4F200014FF00E02FFF7E5FD07F14D
:400840001807BD4680BD00BF80B500AF46F28643C4F200034FF00F021A7000F0F1F800F073F800F081F846F28553C4F200034FF000021A7046F28653C4F200034FF00002A6
:400880001A7080BD80B582B000AF01F07FF80346FB7146F29643C4F2000346F29642C4F200021278D2B242F02002D2B21A7046F29553C4F2000346F29552C4F20002127802
:4008C000D2B242F01002D2B21A7046F29653C4F2000346F29652C4F200021278D2B242F01002D2B21A70FB79184601F053F801F021F800F01DF800F021F807F10807BD46E0
:4009000080BD00BF80B500AF48F2AC13C1F6FF731B78002B08D1FFF797FF48F2AC13C1F6FF734FF001021A70FFF7ACFF80BD00BF80B400AFBD4680BC704700BF80B400AF8C
:40094000BD4680BC704700BF80B483B000AF46F26553C4F200031B78FB71FB79184607F10C07BD4680BC704780B483B000AF46F26653C4F200031B78FB71FB79184607F1A8
:400980000C07BD4680BC704780B483B000AF0346FB7100BF46F26553C4F200031B78DBB203F00403002BF5D046F24653C4F20003FA791A7007F10C07BD4680BC704700BFAA
:4009C00080B483B000AF46F25653C4F200031B78FB71FB79184607F10C07BD4680BC704780B483B000AF46F26653C4F200031B78DBB203F02003002B02D04FF0010301E05E
:400A00004FF00003FB71FB79184607F10C07BD4680BC704780B400AF04E046F25653C4F200031B7846F26653C4F200031B78DBB203F02003002BF0D1BD4680BC704700BFC0
:400A400080B582B000AF04E046F25653C4F200031B7846F26653C4F200031B78DBB203F02003002BF0D100F091FF0346FB7146F29653C4F2000346F29652C4F20002127812
:400A8000D2B242F00102D2B21A7046F29653C4F2000346F29652C4F200021278D2B222F00102D2B21A70FB79184600F073FF07F10807BD4680BD00BF80B400AFBD4680BC30
:400AC000704700BF80B582B000AF02460B46FA807B71FFF7F1FFFFF79DFF4FF0F000FFF753FFFB884FEA13239BB2DBB21846FFF74BFFFB88DBB21846FFF746FF7B79184617
:400B0000FFF742FF4FF0050000F06EFF07F10807BD4680BD80B584B000AF0346FB80FFF7CBFFFFF777FF4FF00F00FFF72DFFFB884FEA13239BB2DBB21846FFF725FFFB8857
:400B4000DBB21846FFF720FF4FF00000FFF71CFF4FF0050000F048FFFFF742FF0346BB6007E0FFF72DFF0346FB60FFF739FF0346BB60BB68002BF4D1FB68DBB2184607F177
:400B80001007BD4680BD00BF80B584B000AF03463960FB804FF00003FB6010E0FB689AB2FB88D3189AB23968FB68CB181B7810461946FFF787FFFB6803F10103FB60FB68F0
:400BC000052BEBD907F11007BD4680BD80B584B000AF03463960FB803B46BB604FF00003FB6010E0FB689AB2FB88D3189AB2B968FB68CB181B7810461946FFF763FFFB6841
:400C000003F10103FB60FB68032BEBD907F11007BD4680BD80B582B000AF02460B46FA80BB80BB884FEA13239BB2DBB2FA8810461946FFF747FFFB8803F101039AB2BB8850
:400C4000DBB210461946FFF73DFF07F10807BD4680BD00BF80B584B000AF0346FB80FB881846FFF757FF0346FB81FB894FEA0323FB81FB8803F101039BB21846FFF74AFF68
:400C800003461A46FB89D318FB81FB89184607F11007BD4680BD00BF80B584B000AF396013460246FA80BB804FF00003FB6010E0FB689AB2FB88D3189AB2FB683968CB18CC
:400CC0001B7810461946FFF7FDFEFB6803F10103FB60BA88FB689A42EADC07F11007BD4680BD00BF90B585B000AF396013460246FA80BB804FF00003FB6010E0FB683A6806
:400D0000D418FB689AB2FB88D3189BB21846FFF701FF03462370FB6803F10103FB60BA88FB689A42EADC07F11407BD4690BD00BF80B582B000AF78604FF009007968FFF701
:400D400023FF07F10807BD4680BD00BF80B582B000AF78604FF001007968FFF737FF07F10807BD4680BD00BF80B582B000AF78604FF005007968FFF729FF07F10807BD46CF
:400D800080BD00BF80B582B000AF78604FF00F007968FFF71BFF07F10807BD4680BD00BF80B582B000AF0346FB71FB794FF000001946FFF787FE07F10807BD4680BD00BFA6
:400DC00080B582B000AF0346FB71FB794FF015001946FFF777FE07F10807BD4680BD00BF80B582B000AF0346FB71FB794FF01A001946FFF767FE07F10807BD4680BD00BF38
:400E000080B582B000AF0346FB71FB794FF01B001946FFF757FE07F10807BD4680BD00BF80B582B000AF02460B46FA71BB71FB799BB24FEA03239BB203F580639AB2BB795B
:400E400010461946FFF73EFE07F10807BD4680BD80B582B000AF02460B46FA71BB71FB799BB24FEA03239BB203F201439AB2BB7910461946FFF726FE07F10807BD4680BDC2
:400E800080B582B000AF0346FB71FB799BB24FEA03239BB203F201439BB21846FFF73AFE0346184607F10807BD4680BD80B582B000AF02460B46FA71BB71FB799BB24FEABA
:400EC00003239BB203F202439AB2BB7910461946FFF7F8FD07F10807BD4680BD80B582B000AF0346FB71FB799BB24FEA03239BB203F202439BB21846FFF70CFE034618461A
:400F000007F10807BD4680BD80B582B000AF0346FB71FB799BB24FEA03239BB203F203439BB21846FFF7F6FD0346184607F10807BD4680BD80B582B000AF02460B46FA715B
:400F4000BB80FB799BB24FEA03239BB203F204439AB2BB8810461946FFF75CFE07F10807BD4680BD80B582B000AF0346FB71FB799BB24FEA03239BB203F584639BB21846F0
:400F8000FFF768FE0346184607F10807BD4680BD80B582B000AF02460B46FA71BB80FB799BB24FEA03239BB203F224439AB2BB8810461946FFF72EFE07F10807BD4680BD1C
:400FC00080B582B000AF0346FB71FB799BB24FEA03239BB203F224439BB21846FFF73AFE0346184607F10807BD4680BD80B582B000AF0346FB71FB799BB24FEA03239BB25E
:4010000003F226439BB21846FFF724FE0346184607F10807BD4680BD80B582B000AF02460B46FA71BB80FB799BB24FEA03239BB203F585639AB2BB8810461946FFF7EAFDDE
:4010400007F10807BD4680BD80B582B000AF0346FB71FB799BB24FEA03239BB203F585639BB21846FFF7F6FD0346184607F10807BD4680BD80B584B000AF03463960FB7129
:401080004FF00003FB603B68DBB2FA7910461946FFF7DEFE07E0FB6803F10103FB604FF0010000F07DFCFB791846FFF7E9FE0346002B02D0FB687C2BEDD9FB68184607F1A5
:4010C0001007BD4680BD00BF80B584B000AF0346FB714FF00003BB814FF00003FB81FB791846FFF73FFF0346BB81BB89002B05D0FB791846FFF736FF0346FB81BA89FB8979
:401100009A42ECD1FB89184607F11007BD4680BD80B584B000AF0346FB714FF00003BB814FF00003FB81FB791846FFF75FFF0346BB81BB89002B05D0FB791846FFF756FFD0
:401140000346FB81BA89FB899A42ECD1FB89184607F11007BD4680BD80B586B000AFBA600246FA730A46BA81FB80FB7B1846FFF727FF03461A46BB89D318FB82FB8A4FEA27
:4011800043534FEA5353BB82FB7B9BB24FEAC3339AB2BB8AD3189BB203F580437B82BB8AC3F500633B82FA883B8A9A421BD97A8A3B8A1046B9681A46FFF76EFDFB7B9BB212
:4011C0004FEAC3339BB203F5804399B23B8ABA68D218F8883B8AC31A9BB2084611461A46FFF75AFD06E07A8AFB881046B9681A46FFF752FDFA8AFB88D318FB82FA7BFB8AE9
:4012000010461946FFF7C4FE07F11807BD4680BD80B586B000AFBA600246FA730A46BA81FB80FB7B1846FFF70FFF03461A46BB89D318FB82FB8A4FEA43534FEA5353BB825E
:40124000FB7B9BB24FEAC3339AB2BB8AD3189BB203F5C0437B82BB8AC3F500633B82FA883B8A9A421BD97A8A3B8A1046B9681A46FFF738FDFB7B9BB24FEAC3339BB203F585
:40128000C04399B23B8ABA68D218F8883B8AC31A9BB2084611461A46FFF724FD06E07A8AFB881046B9681A46FFF71CFD97F8203003F00103002B09D0FA8AFB88D318FB82E8
:4012C000FA7BFB8A10461946FFF7A6FE07F11807BD4680BD80B586B000AFF860B9607A603B604FF0FA0000F05BFB4FF08000FFF757FD4FF00A0000F053FB4FF000037B6121
:4013000008E07B69DBB2184600F090F97B6903F101037B617B69032BF3DD4FF05500FFF76FFD4FF05500FFF75BFD3868FFF70EFD7868FFF719FD48F2C813C1F6FF737A685E
:401340001A60F868FFF7F4FCB868FFF71BFD4FF0FF00FFF735FD4FF00000FFF705FD07F11807BD4680BD00BF80B584B000AF48F2AC13C1F6FF731B78002B01D1FFF7C2FA50
:401380004FF00A0000F00CFB41F65450C0F2000000F01CF8F86041F66450C0F2000000F015F8B86041F67450C0F2000000F00EF8786048F20C10C1F6FF70F968BA687B68F5
:4013C000FFF788FF07F11007BD4680BD90B589B000AF78604FF00003FB614FF000037B614FF00003BB616FE0FB697A68D3181B782F2B18D9FB697A68D3181B78392B12D892
:401400007B69032B02DD4FF0FF3381E0FB697A68D3181A7807F10C017B69CB181A707B6903F101037B61FB697A68D3181B782E2B07D0FB6903F101037A68D3181B78002B3D
:401440003ED107F10C027B69D3184FF000021A704FF000037B6107F10802BB69D3184FF000021A701EE007F10802BB69D3181B781A464FEA8202D3184FEA4303DAB207F116
:401480000C017B69CB181B78D318DBB2A3F13003DAB207F10801BB69CB181A707B6903F101037B6107F10C027B69D3181B78002BD9D14FF000037B61BB6903F10103BB611D
:4014C000FB6903F10103FB61BB69032B06DCFC69786800F037FB03469C4285D3BB69042B02D04FF0FF3313E03B7A1A467B7A4FEA03234FEA03434FEA1343D218BB7A4FEAC2
:40150000034303F47F03D218FB7A4FEA0363D318184607F12407BD4690BD00BF80B584B000AF13460246FA710A46BA80BB714FF0FF03FB734FF00003BB601DE0FB7BFF2BF0
:4015400016D148F2B012C1F6FF72B9680B464FEA43035B184FEA4303D3181B78002B07D1FB79042B02D1BB68002B01D0BB68FB73BB6803F10103BB60BB68032BDEDDFB7B1E
:40158000FF2B4DD0F97B48F2B012C1F6FF720B464FEA43035B184FEA4303D318FA791A70F97B48F2B012C1F6FF720B464FEA43035B184FEA4303D318BA795A70F97B48F2B2
:4015C000B012C1F6FF720B464FEA43035B184FEA4303D318BA885A80F97B48F2B012C1F6FF720B464FEA43035B184FEA4303D3184FF000021A71FA7BBB8810461946FFF7C4
:4016000099FCFA79BB791343DBB2FA7B10461946FFF706FCFB7B18464FF00101FFF72AFDFB7B184607F11007BD4680BD80B582B000AF0346FB71FB79032B29D8F97948F2FA
:40164000B012C1F6FF720B464FEA43035B184FEA4303D3184FF000021A70F97948F2B012C1F6FF720B464FEA43035B184FEA4303D3184FF000025A70FB7918464FF0100198
:40168000FFF7F8FCFB7918464FF0FF01FFF70EFC07F10807BD4680BD80B582B000AF0346FB71FB791846FFF72FFC0346172B14BF00230123DBB2184607F10807BD4680BD53
:4016C00080B584B000AF0346FB7148F2C813C1F6FF731B681846FFF747FBFB7918464FF02001FFF7C7FCFB791846FFF7F7FB0346FB7309E04FF0010000F052F9FB79184634
:40170000FFF7ECFB0346FB73FB7B03F01003002B04D1FB7B03F00A03002BEBD0FB7918464FF01001FFF7C2FB4FF00000FFF71CFB07F11007BD4680BD80B582B000AF03466E
:40174000FB71FB791846FFF7E3FC0346184607F10807BD4680BD00BF80B582B000AF0346FB80FB884FF0010019464FF00002FFF7D5FE0346184607F10807BD4680BD00BFF6
:4017800080B582B000AF0346FB71FB79032B05D8FB7918464FF00201FFF76CFC07F10807BD4680BD80B582B000AF0346FB71FB791846FFF771FF0346184607F10807BD4672
:4017C00080BD00BF80B582B000AF0346FB71FB7918464FF00801FFF74DFC07F10807BD4680BD00BF80B584B000AF396013460246FA71BB80BB88B3F5006F28BF4FF40063E4
:40180000FB81FB791846FFF77FFB0346FB72FB7A172B38D1F97948F2B012C1F6FF720B464FEA43035B184FEA4303D3181B78012B29D14FF00003BB814FF01703FB720BE049
:40184000FB791846FFF740FC0346BB81FB791846FFF75AFB0346FB72BA89FB899A4205D2FB7A172B02D1FB7A1C2BE9D1FA79FB8910464FF000013A68FFF76EFCFB79184631
:40188000FFF71EFF02E04FF00003FB81FB89184607F11007BD4680BD80B586B002AF396013460246FA71BB804FF00003FB81FB791846FFF729FB0346172B1FD1FB79184651
:4018C000FFF726FC0346FB81FA89BB889A4238BF1346FB81FB89002B10D0FA79FB894FF00001009110464FF000013A68FFF790FCFB7918464FF04001FFF7BCFBFB891846AB
:4019000007F11007BD4680BD80B582B000AF03463960FB71386800F015F903469BB2FA79104639681A46FFF75DFF07F10807BD4680BD00BF80B400AF44F2A233C4F20003F7
:4019400044F2A232C4F200021278D2B242F00102D2B21A7044F2B233C4F2000344F2B232C4F200021278D2B242F00102D2B21A70BD4680BC704700BF0230800800F0058079
:4019800000BF013800467FF4FCAF7047EFF3108072B6704780F31088704700BFAFF3008080B582B000AF78600BE048F22013C1F6FF731B681846FFF7DFFF7B68A3F500433E
:4019C0007B607B68B3F5004FEFD848F21813C1F6FF731B687A6802FB03F31846FFF7CCFF07F10807BD4680BD80B582B000AF0346FB80FA8848F21C13C1F6FF731B7803FBA0
:401A000002F31846FFF7B8FF07F10807BD4680BD80B485B000AF0346FB7145F2C013C4F200031B78DBB223F01003FB7345F2C013C4F20003FA794FEA0212D2B202F0100210
:401A4000D1B2FA7B0A43D2B21A7007F11407BD4680BC704738B50E4D0E4B0024E81A8510AC4205D00B4951F8242090470134F7E700F088F90849094A541AA5100024AC42D6
:401A800005D0054B53F8240080470134F7E738BD901D0000901D0000901D0000981D000010B50023934203D0CC5CC4540133F9E710BD82180346934202D003F8011BFAE7D4
:401AC0007047000038B51C4C2568AB6BE3B9182000F040F8A863206843F20E32816B41F234230A808B804DF6EC620B230A818B81012200234AF6CD34C1E904234C804EF26E
:401B00006D600524C8804C810B490C4B08680C49846B20696269414303FB0212A0FB0301511801220023121843EB0103C4E9042323F0004038BD00BF8881FF1F2D7F954C18
:401B40002DF45158034613F8012B002AFBD1181A01387047024B0146186800F003B800BF8881FF1F70B5CD1C25F0030508350C2D38BF0C25002D06462DDB8D422BD31D4BDF
:401B80001B681C469CB12268501B0DD40B2802D92060241817E0A34203D16068154A10601DE0616859601AE023466468EAE72946304600F021F8431C01460CD0CC1C24F021
:401BC00003048C4201D1256009E03046611A00F013F80130F7D10C203060002070BD04F10B01231D21F00700C31A02D05A42E25070BD70BDCC81FF1F38B5064C002305469A
:401C00000846236000F008F8431C02D1216801B1296038BDA489FF1F094A13686BB118186946884202D8106018467047054B0C221A604FF0FF3318467047034B1360EEE7A7
:401C4000D081FF1FA489FF1FA889FF1F0000000057656C636F6D6520746F207468652066726565536F43204578706C6F72657220426F617264210D0A000000002D2D2D2DFF
:401C80002D2D2D2D2D2D2D2D2D2D2D2D2D2D2D2D2D2D2D2D2D2D2D2D2D2D2D2D2D2D2D2D2D2D2D2D2D2D2D2D2D2D2D2D2D2D2D2D2D2D2D2D2D2D2D2D2D2D2D2D2D2D2D2DE4
:401CC0002D2D2D2D2D2D2D2D0D0A0D0A00000000506C656173652050726573732061206B65793A20000000005C200D007C0D00002F0D00002D0D00000D0A5468616E6B20CE
:401D0000596F7521203A2D2920000000105100402000405100401000605100401000F0510040100000000140001000140140000280160140800500400140000A004C014025
:401D400000020050014020000016014088020048800000003139322E3136382E312E3130310000003235352E3235352E3235352E300000003139322E3136382E312E3100CA
:401D800043000000F8B500BFF8BC08BC9E4670475100000035030000F8B500BFF8BC08BC9E4670472D000000B81D00000881FF1F88000000180800000000000000DEADBEBF
:401DC000EF0000000090D00300FA0000400000000000007D0000000000000000000000000000000000000000000000000000000000000000801D000000000000000000003D
:401E000000000000000000000000000000000000000000000000000000000000000000000000000000000000000000000000000000000000000000002481FF1F00000000DF
:401E40000000000000000000000000000000000000000000000000000000000000000000000000000000000000000000000000000000000000000000000000000000000062
:401E80000000000000000000000000000000000000000000000000000000000000000000000000000000000000000000000000000000000000000000000000000000000022
:401EC00000000000000000000000000000000000000000000000000000000000000000000000000000000000000000000000000000000000000000000000000000000000E2
:401F000000000000000000000000000000000000000000000000000000000000000000000000000000000000000000000000000000000000000000000000000000000000A1
:020000040003F7
:0200000480007A
:4000000002520040016400404606014028070140341401403315014034170140011B01400241014001420140014301400348014009490140044D0140045001400040190162
:40004000860F015C0554070809500B0C0D08112413101530170F19111B221D211F1E215C2D0C2F503140330F353037303BA03F015602572459045B045F018001841085C0E4
:400080008708882289C08A088B048C408DC08F029001919093409401951F972098049B609C409D80A001A1C0A301A408A57FA621A780A807AA18AB9FAC01AFFFB03FB44081
:4000C000B7FFB822BE01BF40D804D904DF010060029009840A4410A01209184019101A0421802508268B271529442A012B042C802E403002311832803544371138A83D2813
:400100003E023F8064086CD66D786E406F407603C00FC20FC40FCA9FCCFFCEFED8200104020203030401070C08040B12170119011B022508260727032C0730073310350FD8
:400140003E01580459045F018012810182048304840D880D89028B018C0D94129608980299019A0D9B029C0D9D06A811AA02AC0DB107B40FB610B902BA20BE40D409D8047D
:40018000D904DB04DF0100210310042906020C800E281222154017101A801D401E0820042108222026022740290431083310375038053A103C215D045E425F1065408240A2
:4001C0008F40902991449240931099049A129B10A090A211AA21AD02B240B310C0FEC2E0C4C5CA02CC36CEA7D6F0D81004200504060207600D080E010F80155117041C2140
:400200001DC41E611F102560340837103C203D803E01458A47204D054E024F0156515744600861206620672180218540902891509A029B549C089D449E10A080A108A20343
:40024000A430A744C0F0C2B0C4F0CC60CEB0D0F0D210D870E0106680D6809E809E8086809E80E24006105B4083409E10AE10C020D480E680E84052208E20D404E008000124
:400280000A0110011A010000C603002C01005E00C2350402C600000804002000770408030001001E39000600000080004200000080004600460080000800700080070F384C
:4002C00080000C20000011001203500004DEBCFB3FFFFFFF2200F008040000004000000004040404000000010000C00040011011C001001140014001000000000000000022
:4003000000000000000000000040400040000000100000101000000000000000020101000100000000040400040000000000000000000000000000000000000000000000BC
:40034000000000000000000000000000000000000000000000000000000000000000000000000000000000000000000000000000000000000000000000000000000000007D
:40038000000000000000000000000000000000000000000000000000000000000000000000000000000000000000000000000000000000000000000000000000000000003D
:4003C00000000000000000000000000000000000000000000000000000000000000000000000000000000000000000000000000000000000000000000000000000000000FD
:4004000000000000000000000000000000000000000000000000000000000000000000000000000000000000000000000000000000000000000000000000000000000000BC
:0200000490006A
:0400000000004005B7
:0200000490105A
:04000000BC90ACAF55
:0200000490303A
:020000003C8B37
:0200000490402A
:4000000000000000000000000000000000000000000000000000000000000000000000000000000000000000000000000000000000000000000000000000000000000000C0
:400040000000000000000000000000000000000000000000000000000000000000000000000000000000000000000000000000000000000000000000000000000000000080
:400080000000000000000000000000000000000000000000000000000000000000000000000000000000000000000000000000000000000000000000000000000000000040
:4000C0000000000000000000000000000000000000000000000000000000000000000000000000000000000000000000000000000000000000000000000000000000000000
:0200000490501A
:0C00000000012E12306900012E206CF46B
:00000001FF