:400000000010002011000000D1060000D106000080B500AF00F060FB80B584B000AF021CFB1D1A70224A3B1C0B3312781A70214A3B1C0A3312781A701F4B1B68013BFB601E
:400040001AE01E4B1868391C0B31FA68131C5B009B18C31801331B780B70184B1868391C0A31FA68131C5B009B18C31802331B780B70FB68013BFB60FB68002B0ADB0F4B59
:400080001968FA68131C5B009B185B5CFA1D12789A42D6D90A4B3A1C0B3212781A60094B3A1C0A3212781A60BD4604B080BDC046CCF1FF0FCDF1FF0F142E0000CC000020A8
:4000C0001CFF0B4020FF0B4080B500AF164B164A12688021C9020A431A603020FFF79CFF124B134A1278D2B21A60052001F0C2FD104B35221A60104B10221A600F4B102227
:400100001A600F4B802212061A600E4B802212061A60054B8022D2021A600B4B802212061A60BD4680BDC04600010B4028FF0B40FDF1FF0F2CFF0B40080202400C0202404E
:4001400008010B4004010B400000024080B582B000AF72B6FB1D00221A7023E0FB1D1A78131C5B009B185B00374A9B183B603B681A78597809020A43997809040A43DB7867
:400180001B0613431A1C3B6819795B791B020B439BB2101C191C00F01FFBFB1DFA1D127801321A70FB1D1B78012BD7D9274A284B101C191C00F020FB264B274A1A60274B4B
:4001C000C02292041A60264B264A1A60264BCD221A60264B264A1A60264B40221A60264BC02252031A60254B11221A60244B254A1A60254B992212041A60244BB022120487
:400200001A60234B992212041A60224B802292051A60214B992212041A60204B1F4A1278D2B202210A43D2B21A701C4B1B4A1278D2B206210A43D2B21A70FFF745FF00F0CE
:400240001BFBBD4602B080BDD02C0000DC2C0000F82C000000000140003300FF040001400C000140FFEE0F000000044008000440860DD80000010440080104400003044079
:40028000080304408E6D000000500F4008500F4010500F4018500F4030500F4000700F4010B5064C2378002B07D10548002802D0044800E000BF0121217010BD48010020EA
:4002C00000000000C82B000008B5084B002B03D00748084900E000BF07480168002903D0064A002A00D0904708BDC04600000000C82B00004C010020C800002000000000D6
:4003000090B583B000AFFB1D00221A70BB1D00221A7001F0D9FC00F0C9FF7C1D172001F04DFB031C23707B1D1B78181C01F058FB02E0642001F07AFC7B1D1B78181C01F055
:4003400063FB031C002BF4D00BE07B1D1A78264B101C191C01F02EFCFA235B00181C01F065FC7B1D1B78181C01F018FB031C002BEBD07B1D1B78181C01F010FB031C1A1CF9
:40038000BB1D1A70BB1D1B789BB27A1D1178174A081C111C1A1C01F0CFFB031C1A1CFB1D1A700A2001F042FC7B1D1B78181C01F0F5FA031C1A1CBB1D1A70FB1D1A78BB1D98
:4003C0001B780B480B4901F0CFFF7B1D1A78084B101C191C01F0EEFBFA235B00181C01F025FCC046A8E7C046CC2B00009C0100206C090020E02B000090B5A5B000AFFFF760
:400400007FFF01F061FC00F051FF01F0D3FD01F02FFD012001F0E6FB00238C20C019036015E001F061FF031CDAB217231340DBB24133DAB29C498C20C0190368CB181A7087
:400440008C22D219136801338C20C01903608C23DB191A68954B9A42E3DD01F045FF021C3B1C8B331A7001F03FFF031C181CFF2101F0F6FE0B1C1A1C3B1C8A331A7001F046
:4004800033FF031C181CFF2101F0EAFE0B1C1A1C3B1C89331A703B1C8B331B78181C01F00BFE3B1C8A331B78181C01F015FE3B1C89331B78181C01F05DFD3C1C883417209F
:4004C00001F07CFA031C23703B1C88331B78181C01F086FA38E001F007FF031C181CFF2101F0BEFE0B1C1A1C3B1C8B331A7001F0FBFE031C181CFF2101F0B2FE0B1C1A1C13
:400500003B1C8A331A7001F0EFFE031C181CFF2101F0A6FE0B1C1A1C3B1C89331A703B1C8B331B78181C01F0C7FD3B1C8A331B78181C01F0D1FD3B1C89331B78181C01F047
:4005400019FDFA2001F072FB3B1C88331B78181C01F05AFA031C002BBDD03B1C88331A78534B101C191C01F025FB3B1C88331A78504B101C191C01F01DFB00238C20C019F3
:40058000036045E03B1C88331A784B4B101C191C01F010FB8C22D2191368012B11D002DC002B05D028E0022B14D0032B1BD023E03B1C88331A78414B101C191C01F0FAFA72
:4005C0001AE03B1C88331A783D4B101C191C01F0F1FA11E03B1C88331A783A4B101C191C01F0E8FA08E03B1C88331A78364B101C191C01F0DFFAC0468C20C01903685A1CA6
:40060000032313408C22D2191360012001F00EFB3B1C88331B78181C01F0C0F9031C002BB0D03B1C88331A78284B101C191C01F0C1FA3C1C86343B1C88331A783B1D101C6F
:40064000191C802201F078FA031C23803B1C883319783A1D3B1C86331B88081C111C1A1C01F0F2F9002001F0BDFA3B1C883319780D4AFA23DB00081C111C1A1C01F0E4F95F
:40068000012001F0AFFA3B1C88331B78181C01F0CBF93B1C88331B78181C01F0FBF80A2001F0C4FA09E7C0469C010020CF070000182C0000402C0000942C0000AC2C00008A
:4006C000B02C0000B42C0000B82C0000BC2C000080B500AFFEE7C04680B586B000AF254B7B61254B3B61234B7B61234B3B6132E03B691B68FB603B695B68BB603B699B6820
:400700003B6000237B600CE0FB681A68BB681A60BB680433BB60FB680433FB607B6804337B607A683B689A42EED13B69DB683B6000237B6008E0BB6800221A60BB680433B2
:40074000BB607B6804337B607A683B689A42F2D13B6910333B617B695A1E9341DBB27A69013A7A61002BC3D101F086FDFFF744FEFEE7C04601000000B42E000080B582B06C
:4007800000AF00237B600FE07B68032B04D80E4B7A689200D35800E00C4B0D4A796889008B507B6801337B607B682F2BECD9FFF7CDFC084B00221A608023DB0501221A6023
:4007C000BD4602B080BDC04600000000D106000000000020C000002080B582B000AF786039607A683B68101C00211A1C01F073FDBD4602B080BDC04680B586B000AF786050
:40080000396000233B6100237B612EE07B699B007A68D3181B68BB603B1C0F33BA681A70BB68FF229343BB6017E03B695B003A68D3181B781A1CBB68D3183A6952003968FF
:400840008A1852781A703B6901333B613B1C0F333A1C0F321278013A1A703B1C0F331B78002BE2D17B6901337B617B69062BCDD9BD4606B080BDC04680B500AFBD4680BDB6
:4008800080B500AF012001F0C7FABD4680BDC04680B582B000AF0A1CBB1D011C19807B1D1A7002E0012001F0E5F901F0D3FA031C002BF7D0FFF7E4FF01F03CFAF02001F0AD
:4008C0004FFABB1D1B881B0A9BB21A1CFF231340181C01F045FABB1D1A88FF231340181C01F03EFA7B1D1B78181C01F039FABD4602B080BD80B584B000AF021CBB1D1A804A
:4009000002E0012001F0B6F901F0A4FA031C002BF7D0FFF7B5FF01F00DFA0F2001F020FABB1D1B881B0A9BB2181C01F019FABB1D1A88FF231340181C01F012FA002001F042
:400940000FFA02E0012001F095F901F083FA031C002BF7D001F0DEF9031CBB6007E001F0C9F9031CFB6001F0D5F9031CBB60BB68002BF4D1FB68DBB2181CBD4604B080BD33
:4009800080B584B000AF021C3960BB1D1A800023FB6010E0FB689AB2BB1D1B88D3189AB23968FB68CB181B78101C191CFFF770FFFB680133FB60FB68052BEBD9BD4604B0E7
:4009C00080BDC04680B584B000AF021C3960BB1D1A803B1CBB600023FB6010E0FB689AB2BB1D1B88D3189AB2B968FB68CB181B78101C191CFFF74CFFFB680133FB60FB6841
:400A0000032BEBD9BD4604B080BDC04680B582B000AF0A1CBB1D011C19803B1D1A803B1D1B881B0A9BB2DBB2BA1D1288101C191CFFF72EFFBB1D1B8801339AB23B1D1B8829
:400A4000DBB2101C191CFFF723FFBD4602B080BD80B584B000AF021CBB1D1A80BB1D1B88181CFFF747FF031C1A1C3B1C0E331A803B1C0E333A1C0E32128812021A80BB1D16
:400A80001B8801339BB2181CFFF734FF031C191C3B1C0E333A1C0E3212888A181A803B1C0E331B88181CBD4604B080BD80B584B000AF3960BB1D011C19803B1D1A800023A6
:400AC000FB6010E0FB689AB2BB1D1B88D3189AB2FB683968CB181B78101C191CFFF7D8FEFB680133FB603B1D1A88FB689A42E9DCBD4604B080BDC04690B585B000AF3960F7
:400B0000BB1D011C19803B1D1A800023FB6010E0FB683A68D418FB689AB2BB1D1B88D3189BB2181CFFF7E6FE031C2370FB680133FB603B1D1A88FB689A42E9DCBD4605B00C
:400B400090BDC04680B582B000AF78607B680920191CFFF715FFBD4602B080BD80B582B000AF78607B680120191CFFF72BFFBD4602B080BD80B582B000AF78607B680520C8
:400B8000191CFFF71FFFBD4602B080BD80B582B000AF78607B680F20191CFFF713FFBD4602B080BD80B582B000AF021CFB1D1A70FB1D1B780020191CFFF76AFEBD4602B0E2
:400BC00080BDC04680B582B000AF021CFB1D1A70FB1D1B781520191CFFF75AFEBD4602B080BDC04680B582B000AF021CFB1D1A70FB1D1B781A20191CFFF74AFEBD4602B09E
:400C000080BDC04680B582B000AF021CFB1D1A70FB1D1B781B20191CFFF73AFEBD4602B080BDC04680B582B000AF0A1CFB1D011C1970BB1D1A70FB1D1B789BB21B029BB29C
:400C40008022D2009B189AB2BB1D1B78101C191CFFF71EFEBD4602B080BDC04680B582B000AF0A1CFB1D011C1970BB1D1A70FB1D1B789BB21B029BB2054A9B189AB2BB1D47
:400C80001B78101C191CFFF703FEBD4602B080BD0104000080B582B000AF021CFB1D1A70FB1D1B789BB21B029BB2054A9B189BB2181CFFF71FFE031C181CBD4602B080BD3F
:400CC0000104000080B582B000AF0A1CFB1D011C1970BB1D1A70FB1D1B789BB21B029BB2054A9B189AB2BB1D1B78101C191CFFF7CFFDBD4602B080BD0204000080B582B0F6
:400D000000AF021CFB1D1A70FB1D1B789BB21B029BB2054A9B189BB2181CFFF7EBFD031C181CBD4602B080BD0204000080B582B000AF021CFB1D1A70FB1D1B789BB21B024B
:400D40009BB2054A9B189BB2181CFFF7D3FD031C181CBD4602B080BD0304000080B582B000AF0A1CFB1D011C19703B1D1A80FB1D1B789BB21B029BB2054A9B189AB23B1D9D
:400D80001B88101C191CFFF741FEBD4602B080BD0404000080B582B000AF021CFB1D1A70FB1D1B789BB21B029BB28422D2009B189BB2181CFFF74CFE031C181CBD4602B0D4
:400DC00080BDC04680B582B000AF0A1CFB1D011C19703B1D1A80FB1D1B789BB21B029BB2054A9B189AB23B1D1B88101C191CFFF70DFEBD4602B080BD2404000080B582B036
:400E000000AF021CFB1D1A70FB1D1B789BB21B029BB2054A9B189BB2181CFFF719FE031C181CBD4602B080BD2404000080B582B000AF021CFB1D1A70FB1D1B789BB21B02F9
:400E40009BB2054A9B189BB2181CFFF701FE031C181CBD4602B080BD2604000080B582B000AF0A1CFB1D011C19703B1D1A80FB1D1B789BB21B029BB28522D2009B189AB278
:400E80003B1D1B88101C191CFFF7C0FDBD4602B080BDC04680B582B000AF021CFB1D1A70FB1D1B789BB21B029BB28522D2009B189BB2181CFFF7CCFD031C181CBD4602B07F
:400EC00080BDC04680B584B000AF021C3960FB1D1A700023FB603B68DBB2FA1D1278101C191CFFF7BBFE05E0FB680133FB60012000F09CFEFB1D1B78181CFFF7CBFE031CA0
:400F0000002B02D0FB687C2BEED9FB68181CBD4604B080BD90B585B000AF021CFB1D1A703B1C0C3300221A803B1C0E3300221A803C1C0C34FB1D1B78181CFFF72BFF031C13
:400F400023803B1C0C331B88002B08D03C1C0E34FB1D1B78181CFFF71DFF031C23803A1C0C323B1C0E3312881B889A42E0D13B1C0E331B88181CBD4605B090BD90B585B061
:400F800000AF021CFB1D1A703B1C0C3300221A803B1C0E3300221A803C1C0C34FB1D1B78181CFFF743FF031C23803B1C0C331B88002B08D03C1C0E34FB1D1B78181CFFF700
:400FC00035FF031C23803A1C0C323B1C0E3312881B889A42E0D13B1C0E331B88181CBD4605B090BD80B586B000AFBA601A1C3B1C0F3318703B1C0C331980BB1D1A803B1C0E
:401000000F331B78181CFFF7F9FE031C191C3B1C16333A1C0C3212888A181A803B1C14333A1C163212885205520D1A803B1C0F331B789BB2DB039AB23B1C14331B88D31867
:401040009AB23B1C12338021C90152181A803B1C10333A1C14321288802109018A1A1A80BA1D3B1C103312881B889A4227D93B1C12331988BA683B1C10331B88081C111CE9
:401080001A1CFFF713FD3B1C0F331B789BB2DB039BB28022D2019B1899B23B1C10331B88BA68D218B81D3B1C103300881B88C31A9BB2081C111C1A1CFFF7F8FC0AE03B1C1E
:4010C00012331988BA68BB1D1B88081C111C1A1CFFF7ECFC3B1C1633391C1631BA1D098812888A181A803B1C0F331A783B1C16331B88101C191CFFF765FEBD4606B080BD70
:4011000080B586B000AFBA601A1C3B1C0F3318703B1C0C331980BB1D1A803B1C0F331B78181CFFF7B7FE031C191C3B1C16333A1C0C3212888A181A803B1C14333A1C1632DE
:4011400012885205520D1A803B1C0F331B789BB2DB039AB23B1C14331B88D3189AB23B1C1233C021C90152181A803B1C10333A1C14321288802109018A1A1A80BA1D3B1C38
:40118000103312881B889A4227D93B1C12331988BA683B1C10331B88081C111C1A1CFFF7ABFC3B1C0F331B789BB2DB039BB2C022D2019B1899B23B1C10331B88BA68D21873
:4011C000B81D3B1C103300881B88C31A9BB2081C111C1A1CFFF790FC0AE03B1C12331988BA68BB1D1B88081C111C1A1CFFF784FC3B1C20331A780123134012D13B1C16332B
:40120000391C1631BA1D098812888A181A803B1C0F331A783B1C16331B88101C191CFFF71DFEBD4606B080BD80B586B000AFF860B9607A603B60FA2000F0F8FC8020FFF76A
:40124000B1FC0A2000F0F2FC00237B6107E07B69DBB2181C00F01EFB7B6901337B617B69032BF4DD5520FFF7CDFC5520FFF7BAFC3B68181CFFF772FC7B68181CFFF77AFC3B
:40128000094B7A681A60FB68181CFFF75BFCBB68181CFFF77BFCFF20FFF794FC0020FFF769FCBD4606B080BD7C01002080B584B000AF1F4B1B78002B01D100F005FD0A20F5
:4012C00000F0B4FC1B4A1C4B101C191C00F0DAF8031C062B11D1184B00221A70164BDE225A70154BAD229A70134BC022DA70124BDE221A71104B00225A71104B181C00F081
:4013000023F8031CFB600E4B181C00F01DF8031CBB600C4B181C00F017F8031C7B600648F968BA687B68FFF77FFFBD4604B080BD88010020182E0000800100202C2E0000C2
:401340003C2E00004C2E000090B589B000AF78600023FB6100237B610023BB6163E0FB697A68D3181B782F2B17D9FB697A68D3181B78392B11D87B69032B02DD01235B42B3
:401380007BE0FB697A68D3181A78391C0C317B69CB181A707B6901337B61FB697A68D3181B782E2B06D0FB6901337A68D3181B78002B35D13A1C0C327B69D31800221A700D
:4013C00000237B613A1C0832BB69D31800221A701AE03A1C0832BB69D3181B781A1C9200D3185B00DAB2391C0C317B69CB181B78D318DBB2303BDAB2391C0831BB69CB18ED
:401400001A707B6901337B613A1C0C327B69D3181B78002BDDD100237B61BB690133BB61FB690133FB61BB69032B07DCFC697B68181C00F0BBFF031C9C4290D3BB69042BEA
:4014400002D001235B4218E03B1C08331B781A1C3B1C08335B781B021B041B0CD2183B1C08339B781B04191CFF231B040B40D2183B1C0833DB781B06D318181CBD4609B084
:4014800090BDC04690B587B000AF786039600023FB6000233B6100237B6161E13B697A68D3181B782F2B05D93B697A68D3181B78392B19D93B697A68D3181B78602B05D9BC
:4014C0003B697A68D3181B78662B0DD93B697A68D3181B78402B00D83DE13B697A68D3181B78462B00D936E17B693A68D2183B697968CB181B782F2199429B415B42DBB20B
:40150000396901313961002B17D03B697968CB1819783920002388425B41DBB2396901313961002B09D03B697968CB181B78303BDBB23969013139614CE03B697968CB185C
:401540001B78602199429B415B42DBB2396901313961002B17D03B697968CB1819786620002388425B41DBB2396901313961002B09D03B697968CB181B78573BDBB2396933
:401580000131396126E03B697968CB181B78402199429B415B42DBB2396901313961002B17D03B697968CB1819784620002388425B41DBB2396901313961002B09D03B6911
:4015C0007968CB181B78373BDBB239690131396100E0002313707B693A68D3187A6939688A1812781201D2B21A703B697A68D3181B782F2B05D93B697A68D3181B78392BBB
:4016000019D93B697A68D3181B78602B05D93B697A68D3181B78662B0DD93B697A68D3181B78402B00D892E03B697A68D3181B78462B00D98BE07B693A68D2187B69396869
:40164000CB1819783B697868C3181B782F2098429B415B42DBB2386901303861002B17D03B697868C31818783924002384425B41DBB2386901303861002B09D03B69786807
:40168000C3181B78303BDBB23869013038614CE03B697868C3181B78602098429B415B42DBB2386901303861002B17D03B697868C31818786624002384425B41DBB2386932
:4016C00001303861002B09D03B697868C3181B78573BDBB238690130386126E03B697868C3181B78402098429B415B42DBB2386901303861002B17D03B697868C3181878FC
:401700004624002384425B41DBB2386901303861002B09D03B697868C3181B78373BDBB238690130386100E00023CB18DBB213707B69042B0EDC3B697A68D3181B782D2B13
:4017400001D00623FB603B6901333B6102E00623FB6002E001E00623FB607B6901337B617B69052B09DCFB68002B06D13B697A68D3181B78002B00D090E6FB68181CBD4692
:4017800007B090BD80B584B000AFFB1D18703B1D1980BB1D1A703B1C0F33FF221A700023BB601BE03B1C0F331B78FF2B13D13849BA68131C5B009B185B005B5C002B0AD16B
:4017C000FB1D1B78042B02D1BB68002B03D03B1C0F33BA681A70BB680133BB60BB68032BE0DD3B1C0F331B78FF2B4AD03B1C0F331A782749131C5B009B185B00FA1D127812
:401800005A543B1C0F331A782149131C5B009B185B00BA1DCB1812785A703B1C0F331A781B49131C5B009B185B003A1DCB1812885A803B1C0F331A781549131C5B009B1824
:401840005B00CB1800221A713B1C0F331A783B1D1B88101C191CFFF781FAFA1DBB1D12781B781343DBB23A1C0F321278101C191CFFF7D8F93B1C0F331B78181C0121FFF7D5
:4018800021FB3B1C0F331B78181CBD4604B080BD6401002080B582B000AF021CFB1D1A70FB1D1B78032B1ED8FB1D1A780F49131C5B009B185B0000225A54FB1D1A780B4926
:4018C000131C5B009B185B00CB1800225A70FB1D1B78181C1021FFF7F5FAFB1D1B78181CFF21FFF7EFF9BD4602B080BD6401002080B582B000AF021CFB1D1A70FB1D1B78B7
:40190000181CFFF713FA031C173B5A425341DBB2181CBD4602B080BD90B585B000AF021CFB1D1A701C4B1B68181CFFF723F9FB1D1B78181C2021FFF7C5FA3C1C0F34FB1D7B
:401940001B78181CFFF7DAF9031C23700BE0012000F06CF93C1C0F34FB1D1B78181CFFF7CDF9031C23703B1C0F331A781023134005D13B1C0F331A780A231340E7D0FB1DDB
:401980001B78181C1021FFF79DF90020FFF7F2F8BD4605B090BDC0467C01002080B582B000AF021CFB1D1A70FB1D1B78181CFFF7E5FA031C181CBD4602B080BD80B582B0C5
:4019C00000AF021CBB1D1A80BB1D1B880120191C0022FFF7D7FE031C181CBD4602B080BD80B582B000AF021CFB1D1A70FB1D1B78032B05D8FB1D1B78181C0221FFF762FAC5
:401A0000BD4602B080BDC04680B582B000AF021CFB1D1A70FB1D1B78181CFFF769FF031C181CBD4602B080BD80B582B000AF021CFB1D1A70FB1D1B78181C0821FFF742FA46
:401A4000BD4602B080BDC04690B585B000AF3960FB1D011C19703B1D1A803A1C0E323B1D1B8898B280210901884201D980231B0113803C1C0B34FB1D1B78181CFFF756F9C5
:401A8000031C23703B1C0B331B78172B46D1FB1D1A782849131C5B009B185B005B5C012B3CD13B1C0C3300221A803B1C0B3317221A7011E03C1C0C34FB1D1B78181CFFF748
:401AC00029FA031C23803C1C0B34FB1D1B78181CFFF72CF9031C23703A1C0C323B1C0E3312881B889A4209D23B1C0B331B78172B04D13B1C0B331B781C2BDBD1FB1D19789B
:401B00003A683B1C0E331B88081C0021FFF76AFAFB1D1B78181CFFF7FFFE03E03B1C0E3300221A803B1C0E331B88181CBD4605B090BDC0466401002090B587B002AF39605B
:401B4000FB1D011C19703B1D1A803C1C0E34FB1D1B78181CFFF712FA031C2380391C0E313B1C0E333A1D12881B889CB290B2844200D9131C0B803B1C0E331B88002B11D088
:401B8000FB1D19783A683B1C0E331B8800200090081C0021FFF7B4FAFB1D1B78181C4021FFF790F93B1C0E331B88181CBD4605B090BDC04680B582B000AF021C3960FB1DE8
:401BC0001A703B68181C00F0F1FB031C9BB2FA1D11783A68081C111C1A1CFFF735FFBD4602B080BD80B584B000AF021CFB1D1A700D4B1B68DAB23B1C0F3301218A431A7006
:401C0000FB1D1A7801231340D9B23B1C0F333A1C0F3212780A431A70034B3A1C0F3212781A60BD4604B080BD0000044080B582B000AF786008E00C4B1B68181C00F05CFA1C
:401C40007B680A4A9B187B607A6880231B029A42F1D8074B1B687A685343181C00F04CFABD4602B080BDC046DC0000200080FFFFD400002080B582B000AF021CBB1D1A8095
:401C8000BB1D1B88044A12785343181C00F034FABD4602B080BDC046D800002080B500AF00F074F8BD4680BD80B500AF054B054A1268802109060A431A6000F017F8BD4603
:401CC00080BDC0460000074080B500AF064B1B78002B04D1044B01221A70FFF7DFFFFFF7E3FFBD4680BDC0468801002080B500AFBD4680BD80B582B000AF00237B60044B74
:401D00001B687B607B68181CBD4602B080BDC0464003074080B582B000AF054B1A680F2313407B607B68181CBD4602B080BDC0460803074080B500AF074B074A1268802161
:401D400049020A431A60044B034A1168034A0A401A60BD4680BDC04604030740FFFFFEFF80B582B000AF7860C046064B1A680F231340082BF9D0044B7A681A60BD4602B0F4
:401D800080BDC046080207404002074080B500AF124B134A1A60134B134A1A60134B144A1A60144B07221A60134B114A1A60134B00221A60124B00221A60124B00221A6062
:401DC000114B00221A60114B00221A60104B00221A60104B00221A60BD4680BD000007400700000120000740010000800003074007010080040307400002074004020740D8
:401E0000880E0740C80E0740480F0740080F0740C80F0740880F074080B584B000AF78600A4B1B68FB60FA68094B1340FB607B689A06C0231B051340FA681343FB60034BEF
:401E4000FA681A60BD4604B080BDC04620000740FFFFFFF380B500AF044B1A68102313401B09DBB2181CBD4680BDC0460403044080B500AF064B1B78002B04D100F00AF8CA
:401E8000034B01221A7000F03DF8BD4680BDC0469001002090B583B000AFFF2000F040F8B82000F057F8012000F064F8012000F071F8FC1D00F029F9031C23700F4B0F4A0F
:401EC0001278D2B201210A43D2B21A70FB1D1B78181C00F01EF90A4B094A1278D2B202218A43D2B21A70064B054A1278D2B204218A43D2B21A70BD4603B090BD92000F402B
:401F000072000F4080B500AF044B044A1278D2B201210A43D2B21A70BD4680BD72000F4080B582B000AF021CFB1D1A70FB1D1B78002B07D0054BFA1D12781A70044BFA1D6F
:401F400012781A70BD4602B080BDC04642000F4002000F4080B582B000AF021CFB1D1A70034BFA1D12781A70BD4602B080BDC04612000F4080B582B000AF021CFB1D1A70F5
:401F8000034BFA1D12781A70BD4602B080BDC04622000F4080B582B000AF021CFB1D1A70034BFA1D12781A70BD4602B080BDC04632000F4080B500AF064B1B78002B04D1AF
:401FC00000F00AF8034B01221A7000F03DF8BD4680BDC0469101002090B583B000AFFF2000F040F8B82000F057F8012000F064F8012000F071F8FC1D00F087F8031C237031
:402000000F4B0F4A1278D2B201210A43D2B21A70FB1D1B78181C00F07CF80A4B094A1278D2B202218A43D2B21A70064B054A1278D2B204218A43D2B21A70BD4603B090BDBA
:4020400093000F4073000F4080B500AF044B044A1278D2B201210A43D2B21A70BD4680BD73000F4080B582B000AF021CFB1D1A70FB1D1B78002B07D0054BFA1D12781A70B0
:40208000044BFA1D12781A70BD4602B080BDC04643000F4003000F4080B582B000AF021CFB1D1A70034BFA1D12781A70BD4602B080BDC04613000F4080B582B000AF021CED
:4020C000FB1D1A70034BFA1D12781A70BD4602B080BDC04623000F4080B582B000AF021CFB1D1A70034BFA1D12781A70BD4602B080BDC04633000F400230800804D0C046FE
:402100000138FDD1C046C0467047EFF3108072B6704780F310887047002934D00123002210B488422CD301242407A14204D2814202D209011B01F8E7E400A14204D28142BD
:4021400002D249005B00F8E7884201D3401A1A434C08A04202D3001B5C0822438C08A04202D3001B9C082243CC08A04202D3001BDC082243002803D01B0901D00909E3E79A
:40218000101C10BC7047002801D00020C04307B4024802A14018029003BDC046D90000000029F0D003B5FFF7B9FF0EBC4243891A1847C046002941D010B4041C4C40A446E9
:4021C00001230022002900D54942002800D5404288422CD301242407A14204D2814202D209011B01F8E7E400A14204D2814202D249005B00F8E7884201D3401A1A434C08C3
:40220000A04202D3001B5C0822438C08A04202D3001B9C082243CC08A04202D3001BDC082243002803D01B0901D00909E3E7101C6446002C00D5404210BC7047002806D0FF
:4022400003DB0020C043400801E08020000607B4024802A14018029003BDC046190000000029EBD003B5FFF7A7FF0EBC4243891A1847C0467047C04670B50E4B0E4D0024D4
:40228000E81A85101E1CAC4204D0A100725890470134F8E700F0FCFD0849094A0E1C541AA5100024AC4204D0A300F05880470134F8E770BD9C2E00009C2E00009C2E000024
:4022C000A42E000010B50023934203D0CC5CC4540133F9E710BD00B58218031C934202D019700133FAE700BD38B5194C2568AB6B002B17D1182000F087FBA8632068154A47
:40230000816B154B0A80154A8B800B23144D0A818B810122002313480A614B614D800525C8804D812468094B074AA56B2869696900F00CFC01230024C018614128616961C1
:402340004900480838BDC0462D7F954C2DF45158440100200E33000034120000ECDEFFFFCDABFFFF6DE6FFFF0EB400B59CB01DAB02A904CB822202900861920009488A8165
:402380000122886048615042074AC88110681D9A019300F06BF8029900230B701CB008BC03B01847FFFFFF7F440100200023C25C0133002AFBD1581E70470000F7B5019195
:4023C0009168071C141C002940D190239289D80002423BD02568216963696E1A58000096C6180098F50FAB1901305D10A84201DB009D0235381C53050FD5291C00F00EFBC5
:40240000061E13D02169009AFFF75CFFA7891649802239401143A18111E02A1C00F054FB061E0CD1381C216900F0A6FA0C203860A58940263543A5810124604213E0009BD0
:402440006561F018ED1A26612060A560A668002E08DD694627680A793A70A3680137013B2760A3600020FEBD7FFBFFFFF0B5A1B0049007938B890E1C171C19060FD5326960
:40248000002A0CD1402100F0C9FA30603061002803D1049C0C262660D6E04020706108AD00212024302369616C76AB763C1C2278002A04D1E01B069019D003970FE0252A28
:4024C000F8D00134F3E70399321C09780498FFF775FF039A01320392013000D1AFE003990698CB1B8342EEDB0D9F3A180D922178002900D1A3E001206A460023474263322B
:4025000001342B60EB606F60AB601370AB65504F2178381C052200F0CBFA002807D0C71B2B680120B840184328600134EFE72B68D90603D568462021633001701A0703D50A
:402540006A462B276332177021782A2901D00B9B0EE0079A1068111D0791002801DB0B9004E0022247421343EF602B60013409E020783038092804D80A277B4301341B182B
:40258000F6E70B9323782E2B18D161782A2909D1079B02341A68191D0791002A0DDA012042420AE00134002220783038092804D80A277A4301341218F6E70992254F2178BF
:4025C000381C032200F074FA002806D02B68C21B4021914019432960013421781E4806222976671C00F064FA002817D01B4800280BD12868079C0723C10501D5E41800E068
:4026000007349C430834079414E007AA00920498291C321C124B00E000BF07E007AC00940498291C321C0E4B00F08CF8059005994A1C04D00D99059A8C180D9436E7B589CB
:40264000690601D40D9801E00127784221B0F0BD5A2E0000602E0000642E000000000000BD230000F7B5151C01930A698B6800900C1C934200DA131C201C2B604330017888
:40268000002901D001332B602668B00602D52F6802372F602268062616401CD0261C4336377822683E1C731E9E4192061CD5A319181C40303021271CC17045373A784133E1
:4026C000DA70023610E0617E0098019A089FB847013006D00136E3682868191A8E42F2DBDCE7012040422CE00027B7420ADAE119433109780098019A089B98470130F0D0BC
:402700000137F2E72B68256806212940E6680025042903D1F01AC743FD170540A2682669B24201DD931BED180027AF4208DAA17E0098019A089EB0470130D2D00137F4E70A
:402740000020FEBDF0B50D1C8BB0433507930590069204950A7E0C1C109B6E2A00D1A8E012D8632A24D009D8002A00D1B1E0582A00D0C1E045310A707D4D51E0642A1FD01E
:40278000692A00D0B8E01BE0732A00D1A5E009D86F2A2BD0702A00D0AEE00A68202616430E6038E0752A21D0782A00D0A4E032E018680E1C051D1D600368423633709EE047
:4027C00026681F68300606D4750604D5381D186000203D5E02E03D1D1D603D68644B002D3BDA04992D226D420A7036E027681E683D0605D4780603D5351D1D60358802E069
:40280000311D196035685A4B207E039308276F281ED00A271CE0271C45377820554D38701A682668111D03951960300603D4750601D5158800E01568F00702D520231E43C0
:4028400026601027002D03D12668202086432660261C43360022327001E003930A276168A160002903DB2068042398432060002D02D1049E00290ED0049E281C391CFFF7A1
:402880008FFC039A013E515C281C3170391CFFF743FC051EF1D1049B9A1B2261082F33D12768F80730D5606890422DDC013262602AE008681E684969050606D4450604D5B8
:4028C000351D1D603368198003E0321D1A603768396000202061049E16E01E68311D19603668301CFFF762FD65682061A84200D925612369636004E0261C423632700121E4
:402900002161049F00223A7007990598009109AA211C069BFFF7A6FE01300CD0351C2269AB1B93420ADA29780598069A079FB84701350130F3D10122504217E02668B107A5
:4029400005D4099BE068984210DA181C0EE00025E7680998391A8D42F3DA617E0598069A079EB0470130E6D00135F1E70BB0F0BD6B2E00007C2E000030B5002940D00439F5
:402980000B68002B00DAC9181E4A1368141C002B02D14B60116033E099420FD20D684A199A4205D110682B1855680B604D6000E04B60216024E08A4203D8131C5A68002AD6
:4029C000F9D11D685C198C420BD10C682D1958191D60904214D1116852686C181C605A600EE08C4202D90C21016009E008680D18954203D114685268001908604A605960B5
:402A000030BDC0469401002008B5034B011C186800F004F808BDC0464401002070B50323CD1C9D430835061C0C2D01D20C2501E0002D2DDB8D422BD31C4A1368111C1C1C51
:402A4000002C12D02068421B0CD40B2A02D92260A41815E0A34202D166680E601CE065685D6019E0231C6468EAE7301C291C00F051F8421C0CD0C41C03218C43844201D182
:402A8000256009E0211A301C00F044F80130F7D10C243460002008E0201C0B300722211D9043431A01D05D42E55070BD9401002000B5C9B28218904204D003788B4202D011
:402AC0000130F8E7002000BDF8B5061C0C1C151C002904D1111CFFF7A1FF041C18E0002A03D1FFF749FF2C1C12E000F025F8A8420ED2301C291CFFF791FF071E07D0211C4B
:402B00002A1CFFF7DFFB301C211CFFF735FF3C1C201CF8BD38B5074C0023051C081C236000F036F8431C03D12168002900D0296038BDC0466C0A002004390B6800B5181FCF
:402B4000002B02DAC8581918081F00BD9C460304F0B51B0C17043F0C150C1E1C041C000C7E436B4347434543FB18300C1818874202D980277B02ED18070CED1967467C4325
:402B80004A433604330CA11800044919C018F0BD0A4A00B51368002B0CD018186946884202D81060181C00BD054B0C2201201A604342F7E7034B1360EFE7C046980100202A
:402BC0006C0A0020700A0020000000000D2052784461746157616974696E67203D20300020203C2D2D4920726561642025642062797465732C207468656E20726561642012
:402C000052784461746157616974696E67203D202564200D2000000057656C636F6D6520746F207468652050536F43342050696F6E65657220426F617264210D0A0000001F
:402C40002D2D2D2D2D2D2D2D2D2D2D2D2D2D2D2D2D2D2D2D2D2D2D2D2D2D2D2D2D2D2D2D2D2D2D2D2D2D2D2D2D2D2D2D2D2D2D2D2D2D2D2D2D2D2D2D2D2D2D2D2D2D2D2D14
:402C80002D2D2D2D2D2D2D2D2D2D2D2D0D0A0D0A00000000506C656173652050726573732061206B65793A20000000005C200D007C0D00002F0D00002D0D00000D0A5468A4
:402CC000616E6B20596F7521203A2D292000000000300F40000400400F40000404300F4003310F404A320F4031330F4006400F4004410F4002600F4038283E1458045F016A
:402D000018101B1087200C040F01140818011A022401260228012C103003321034083501360438023E5440064501481149FF4AFF4BFF4C024D204EF05203580E59045A0E50
:402D40005B045C995D995F01624863AD64C066C08504870889048B088D01950197029904A901AB02AE01B001B10CB303B90AC003C654C701C81DC9FFCAFFCBFFCC02CD2086
:402D8000CEF0D207D804D90CDA0CDB04DC99DD99DF01E248E3ADE4C0E6C004400D040F081002160817841B011C411E101F202104238026202A1030203204388839103E40B5
:402DC000401048204F28504452105608680269106A086E406F047B017E208E1090109401A310A720B401C080C260C4E1CA04CC06CE1ED002D220DE48E610EE105B205E2054
:402E00008610D480D620E61062048E04B720D840020111010400000039302D41322D44412D30452D43322D41430000003139322E3136382E312E3130310000003235352EBA
:402E40003235352E3235352E300000003139322E3136382E312E31004300232D302B2000686C4C0065666745464700303132333435363738394142434445460030313233CD
:402E800034353637383961626364656600000000F8B5C046F8BC08BC9E467047C90200007D070000F8B5C046F8BC08BC9E467047A1020000C82E0000C8000020800000009A
:402EC000280900000000000000000000C0F1FF0F006CDC0280BB0000300000000000C05D000000000000000000000000000000000000000000000000000000000000000010
:402F0000582E00000000000000000000000000000000000000000000000000000000000000000000000000000000000000000000000000000000000000000000000000000B
:402F400000000000E0000020000000000000000000000000000000000000000000000000000000000000000000000000000000000000000000000000000000000000000051
:402F80000000000000000000000000000000000000000000000000000000000000000000000000000000000000000000000000000000000000000000000000000000000011
:402FC00000000000000000000000000000000000000000000000000000000000000000000000000000000000000000000000000000000000000000000000000000000000D1
:403000000000000000000000000000000000000000000000000000000000000000000000000000000000000000000000000000000000000000000000000000000000000090
:403040000000000000000000000000000000000000000000000000000000000000000000000000000000000000000000000000000000000000000000000000000000000050
:0200000490303A
:02000000273B9C
:0200000490402A
:200000000000000000000000000000000000000000000000000000000000000000000000E0
:0200000490501A
:0C000000000204C81193110104D838CE8E
:0200000490600A
:0100000001FE
:00000001FF