:400000000010002011000000610500006105000080B500AF00F0A8FA80B584B000AF021CFB1D1A70224A3B1C0B3312781A70214A3B1C0A3312781A701F4B1B68013BFB60B9
:400040001AE01E4B1868391C0B31FA68131C5B009B18C31801331B780B70184B1868391C0A31FA68131C5B009B18C31802331B780B70FB68013BFB60FB68002B0ADB0F4B59
:400080001968FA68131C5B009B185B5CFA1D12789A42D6D90A4B3A1C0B3212781A60094B3A1C0A3212781A60BD4604B080BDC046CCF1FF0FCDF1FF0F00210000CC000020C9
:4000C0001CFF0B4020FF0B4080B500AF164B164A12688021C9020A431A603020FFF79CFF124B134A1278D2B21A60052001F042FB104B35221A60104B10221A600F4B1022A9
:400100001A600F4B802212061A600E4B802212061A60054B8022D2021A600B4B802212061A60BD4680BDC04600010B4028FF0B40FDF1FF0F2CFF0B40080202400C0202404E
:4001400008010B4004010B400000024080B582B000AF72B6FB1D00221A7023E0FB1D1A78131C5B009B185B00374A9B183B603B681A78597809020A43997809040A43DB7867
:400180001B0613431A1C3B6819795B791B020B439BB2101C191C00F067FAFB1DFA1D127801321A70FB1D1B78012BD7D9274A284B101C191C00F068FA264B274A1A60274BBD
:4001C000C02292041A60264B264A1A60264BCD221A60264B264A1A60264B40221A60264BC02252031A60254B11221A60244B254A1A60254B992212041A60244BB022120487
:400200001A60234B992212041A60224B802292051A60214B992212041A60204B1F4A1278D2B202210A43D2B21A701C4B1B4A1278D2B206210A43D2B21A70FFF745FF00F0CE
:4002400063FABD4602B080BDBC1F0000C81F0000E41F000000000140003300FF040001400C000140FFEE0F000000044008000440860DD80000010440080104400003044095
:40028000080304408E6D000000500F4008500F4010500F4018500F4030500F4000700F4010B5064C2378002B07D10548002802D0044800E000BF0121217010BD50010020E2
:4002C00000000000001F000008B5084B002B03D00748084900E000BF07480168002903D0064A002A00D0904708BDC04600000000001F000054010020C80000200000000076
:4003000090B5A5B000AF01F05FFA00F003FF01F0C3FB01F01FFB01F007FD021C3B1C8B331A7001F001FD031C181CFF2101F0BEFC0B1C1A1C3B1C8A331A7001F0F5FC031CC3
:40034000181CFF2101F0B2FC0B1C1A1C3B1C89331A703B1C8B331B78181C01F01FFC3B1C8A331B78181C01F029FC3B1C89331B78181C01F071FB3C1C8834172001F0B6F896
:40038000031C23703B1C88331B78181C01F0C0F838E001F0C9FC031C181CFF2101F086FC0B1C1A1C3B1C8B331A7001F0BDFC031C181CFF2101F07AFC0B1C1A1C3B1C8A3364
:4003C0001A7001F0B1FC031C181CFF2101F06EFC0B1C1A1C3B1C89331A703B1C8B331B78181C01F0DBFB3B1C8A331B78181C01F0E5FB3B1C89331B78181C01F02DFB642047
:4004000001F094F93B1C88331B78181C01F094F8031C002BBDD03B1C88331A78484B101C191C01F06BF93B1C88331A78454B101C191C01F063F900238C22D219136045E0EE
:400440003B1C88331A78404B101C191C01F056F98C22D2191368012B11D002DC002B05D028E0022B14D0032B1BD023E03B1C88331A78364B101C191C01F040F91AE03B1C77
:4004800088331A78324B101C191C01F037F911E03B1C88331A782F4B101C191C01F02EF908E03B1C88331A782B4B101C191C01F025F9C0468C22D21913685A1C03231340ED
:4004C0008C22D2191360012001F030F93B1C88331B78181C00F0FAFF031C002BB0D03B1C88331A781D4B101C191C01F007F93C1C86343B1C88331A783B1D101C191C8022BA
:4005000001F0B2F8031C23803B1C883319783A1D3B1C86331B88081C111C1A1C01F02CF83B1C88331B78181C01F016F83B1C88331B78181C00F046FF0A2001F0F7F81AE724
:40054000041F00002C1F0000801F0000981F00009C1F0000A01F0000A41F0000A81F000080B500AFFEE7C04680B586B000AF254B7B61254B3B61234B7B61234B3B6132E00C
:400580003B691B68FB603B695B68BB603B699B683B6000237B600CE0FB681A68BB681A60BB680433BB60FB680433FB607B6804337B607A683B689A42EED13B69DB683B6088
:4005C00000237B6008E0BB6800221A60BB680433BB607B6804337B607A683B689A42F2D13B6910333B617B695A1E9341DBB27A69013A7A61002BC3D101F064FBFFF780FE0C
:40060000FEE7C046010000005821000080B582B000AF00237B600FE07B68032B04D80E4B7A689200D35800E00C4B0D4A796889008B507B6801337B607B682F2BECD9FFF7B0
:4006400085FD084B00221A608023DB0501221A60BD4602B080BDC046000000006105000000000020C000002080B582B000AF786039607A683B68101C00211A1C01F048FBC8
:40068000BD4602B080BDC04680B586B000AF7860396000233B6100237B612EE07B699B007A68D3181B68BB603B1C0F33BA681A70BB68FF229343BB6017E03B695B003A68EF
:4006C000D3181B781A1CBB68D3183A69520039688A1852781A703B6901333B613B1C0F333A1C0F321278013A1A703B1C0F331B78002BE2D17B6901337B617B69062BCDD900
:40070000BD4606B080BDC04680B500AFBD4680BD80B500AF012001F0FFF8BD4680BDC04680B582B000AF0A1CBB1D011C19807B1D1A70FFF7EDFF01F07DF8F02001F090F8A9
:40074000BB1D1B881B0A9BB21A1CFF231340181C01F086F8BB1D1A88FF231340181C01F07FF87B1D1B78181C01F07AF8052001F001F8BD4602B080BD80B584B000AF021CBA
:40078000BB1D1A80FFF7C4FF01F054F80F2001F067F8BB1D1B881B0A9BB2181C01F060F8BB1D1A88FF231340181C01F059F8002001F056F8052000F0DDFF01F02BF8031C00
:4007C000BB6007E001F016F8031CFB6001F022F8031CBB60BB68002BF4D1FB68DBB2181CBD4604B080BDC04680B584B000AF021C3960BB1D1A800023FB6010E0FB689AB2AA
:40080000BB1D1B88D3189AB23968FB68CB181B78101C191CFFF784FFFB680133FB60FB68052BEBD9BD4604B080BDC04680B584B000AF021C3960BB1D1A803B1CBB60002399
:40084000FB6010E0FB689AB2BB1D1B88D3189AB2B968FB68CB181B78101C191CFFF760FFFB680133FB60FB68032BEBD9BD4604B080BDC04680B582B000AF0A1CBB1D011CAA
:4008800019803B1D1A803B1D1B881B0A9BB2DBB2BA1D1288101C191CFFF742FFBB1D1B8801339AB23B1D1B88DBB2101C191CFFF737FFBD4602B080BD80B584B000AF021C72
:4008C000BB1D1A80BB1D1B88181CFFF755FF031C1A1C3B1C0E331A803B1C0E333A1C0E32128812021A80BB1D1B8801339BB2181CFFF742FF031C191C3B1C0E333A1C0E32A7
:4009000012888A181A803B1C0E331B88181CBD4604B080BD80B584B000AF3960BB1D011C19803B1D1A800023FB6010E0FB689AB2BB1D1B88D3189AB2FB683968CB181B7804
:40094000101C191CFFF7ECFEFB680133FB603B1D1A88FB689A42E9DCBD4604B080BDC04690B585B000AF3960BB1D011C19803B1D1A800023FB6010E0FB683A68D418FB6848
:400980009AB2BB1D1B88D3189BB2181CFFF7F4FE031C2370FB680133FB603B1D1A88FB689A42E9DCBD4605B090BDC04680B582B000AF78607B680920191CFFF715FFBD4633
:4009C00002B080BD80B582B000AF78607B680120191CFFF72BFFBD4602B080BD80B582B000AF78607B680520191CFFF71FFFBD4602B080BD80B582B000AF78607B680F209E
:400A0000191CFFF713FFBD4602B080BD80B582B000AF021CFB1D1A70FB1D1B780020191CFFF77EFEBD4602B080BDC04680B582B000AF021CFB1D1A70FB1D1B781520191C5C
:400A4000FFF76EFEBD4602B080BDC04680B582B000AF021CFB1D1A70FB1D1B781A20191CFFF75EFEBD4602B080BDC04680B582B000AF021CFB1D1A70FB1D1B781B20191CF1
:400A8000FFF74EFEBD4602B080BDC04680B582B000AF0A1CFB1D011C1970BB1D1A70FB1D1B789BB21B029BB28022D2009B189AB2BB1D1B78101C191CFFF732FEBD4602B024
:400AC00080BDC04680B582B000AF0A1CFB1D011C1970BB1D1A70FB1D1B789BB21B029BB2054A9B189AB2BB1D1B78101C191CFFF717FEBD4602B080BD0104000080B582B072
:400B000000AF021CFB1D1A70FB1D1B789BB21B029BB2054A9B189BB2181CFFF72DFE031C181CBD4602B080BD0104000080B582B000AF0A1CFB1D011C1970BB1D1A70FB1D82
:400B40001B789BB21B029BB2054A9B189AB2BB1D1B78101C191CFFF7E3FDBD4602B080BD0204000080B582B000AF021CFB1D1A70FB1D1B789BB21B029BB2054A9B189BB2BC
:400B8000181CFFF7F9FD031C181CBD4602B080BD0204000080B582B000AF021CFB1D1A70FB1D1B789BB21B029BB2054A9B189BB2181CFFF7E1FD031C181CBD4602B080BDF6
:400BC0000304000080B582B000AF0A1CFB1D011C19703B1D1A80FB1D1B789BB21B029BB2054A9B189AB23B1D1B88101C191CFFF741FEBD4602B080BD0404000080B582B060
:400C000000AF021CFB1D1A70FB1D1B789BB21B029BB28422D2009B189BB2181CFFF74CFE031C181CBD4602B080BDC04680B582B000AF0A1CFB1D011C19703B1D1A80FB1DA8
:400C40001B789BB21B029BB2054A9B189AB23B1D1B88101C191CFFF70DFEBD4602B080BD2404000080B582B000AF021CFB1D1A70FB1D1B789BB21B029BB2054A9B189BB2DE
:400C8000181CFFF719FE031C181CBD4602B080BD2404000080B582B000AF021CFB1D1A70FB1D1B789BB21B029BB2054A9B189BB2181CFFF701FE031C181CBD4602B080BD91
:400CC0002604000080B582B000AF0A1CFB1D011C19703B1D1A80FB1D1B789BB21B029BB28522D2009B189AB23B1D1B88101C191CFFF7C0FDBD4602B080BDC04680B582B096
:400D000000AF021CFB1D1A70FB1D1B789BB21B029BB28522D2009B189BB2181CFFF7CCFD031C181CBD4602B080BDC04680B584B000AF021C3960FB1D1A700023FB603B6899
:400D4000DBB2FA1D1278101C191CFFF7BBFE05E0FB680133FB60012000F0E8FCFB1D1B78181CFFF7CBFE031C002B02D0FB687C2BEED9FB68181CBD4604B080BD90B585B0D9
:400D800000AF021CFB1D1A703B1C0C3300221A803B1C0E3300221A803C1C0C34FB1D1B78181CFFF72BFF031C23803B1C0C331B88002B08D03C1C0E34FB1D1B78181CFFF71A
:400DC0001DFF031C23803A1C0C323B1C0E3312881B889A42E0D13B1C0E331B88181CBD4605B090BD90B585B000AF021CFB1D1A703B1C0C3300221A803B1C0E3300221A801C
:400E00003C1C0C34FB1D1B78181CFFF743FF031C23803B1C0C331B88002B08D03C1C0E34FB1D1B78181CFFF735FF031C23803A1C0C323B1C0E3312881B889A42E0D13B1C53
:400E40000E331B88181CBD4605B090BD80B586B000AFBA601A1C3B1C0F3318703B1C0C331980BB1D1A803B1C0F331B78181CFFF7F9FE031C191C3B1C16333A1C0C321288BA
:400E80008A181A803B1C14333A1C163212885205520D1A803B1C0F331B789BB2DB039AB23B1C14331B88D3189AB23B1C12338021C90152181A803B1C10333A1C14321288DA
:400EC000802109018A1A1A80BA1D3B1C103312881B889A4227D93B1C12331988BA683B1C10331B88081C111C1A1CFFF713FD3B1C0F331B789BB2DB039BB28022D2019B188A
:400F000099B23B1C10331B88BA68D218B81D3B1C103300881B88C31A9BB2081C111C1A1CFFF7F8FC0AE03B1C12331988BA68BB1D1B88081C111C1A1CFFF7ECFC3B1C16331F
:400F4000391C1631BA1D098812888A181A803B1C0F331A783B1C16331B88101C191CFFF765FEBD4606B080BD80B586B000AFBA601A1C3B1C0F3318703B1C0C331980BB1DE7
:400F80001A803B1C0F331B78181CFFF7B7FE031C191C3B1C16333A1C0C3212888A181A803B1C14333A1C163212885205520D1A803B1C0F331B789BB2DB039AB23B1C1433C7
:400FC0001B88D3189AB23B1C1233C021C90152181A803B1C10333A1C14321288802109018A1A1A80BA1D3B1C103312881B889A4227D93B1C12331988BA683B1C10331B88ED
:40100000081C111C1A1CFFF7ABFC3B1C0F331B789BB2DB039BB2C022D2019B1899B23B1C10331B88BA68D218B81D3B1C103300881B88C31A9BB2081C111C1A1CFFF790FC1F
:401040000AE03B1C12331988BA68BB1D1B88081C111C1A1CFFF784FC3B1C20331A780123134012D03B1C1633391C1631BA1D098812888A181A803B1C0F331A783B1C1633D5
:401080001B88101C191CFFF71DFEBD4606B080BD80B586B000AFF860B9607A603B60FA2000F044FB8020FFF7B1FC0A2000F03EFB00237B6107E07B69DBB2181C00F082F950
:4010C0007B6901337B617B69032BF4DD5520FFF7CDFC5520FFF7BAFC3B68181CFFF772FC7B68181CFFF77AFC094B7A681A60FB68181CFFF75BFCBB68181CFFF77BFCFF208F
:40110000FFF794FC0020FFF769FCBD4606B080BD8401002080B584B000AF124B1B78002B01D100F051FB0A2000F000FB0E4B181C00F022F8031CFB600C4B181C00F01CF81D
:40114000031CBB600A4B181C00F016F8031C7B600848F968BA687B68FFF79AFFBD4604B080BDC04688010020042100001421000024210000D000002090B589B000AF786038
:401180000023FB6100237B610023BB6163E0FB697A68D3181B782F2B17D9FB697A68D3181B78392B11D87B69032B02DD01235B427BE0FB697A68D3181A78391C0C317B69CA
:4011C000CB181A707B6901337B61FB697A68D3181B782E2B06D0FB6901337A68D3181B78002B35D13A1C0C327B69D31800221A7000237B613A1C0832BB69D31800221A7019
:401200001AE03A1C0832BB69D3181B781A1C9200D3185B00DAB2391C0C317B69CB181B78D318DBB2303BDAB2391C0831BB69CB181A707B6901337B613A1C0C327B69D31817
:401240001B78002BDDD100237B61BB690133BB61FB690133FB61BB69032B07DCFC697B68181C00F0A1FD031C9C4290D3BB69042B02D001235B4218E03B1C08331B781A1CC3
:401280003B1C08335B781B021B041B0CD2183B1C08339B781B04191CFF231B040B40D2183B1C0833DB781B06D318181CBD4609B090BDC04680B584B000AFFB1D18703B1DC9
:4012C0001980BB1D1A703B1C0F33FF221A700023BB601BE03B1C0F331B78FF2B13D13849BA68131C5B009B185B005B5C002B0AD1FB1D1B78042B02D1BB68002B03D03B1C1F
:401300000F33BA681A70BB680133BB60BB68032BE0DD3B1C0F331B78FF2B4AD03B1C0F331A782749131C5B009B185B00FA1D12785A543B1C0F331A782149131C5B009B187B
:401340005B00BA1DCB1812785A703B1C0F331A781B49131C5B009B185B003A1DCB1812885A803B1C0F331A781549131C5B009B185B00CB1800221A713B1C0F331A783B1DFB
:401380001B88101C191CFFF71DFCFA1DBB1D12781B781343DBB23A1C0F321278101C191CFFF774FB3B1C0F331B78181C0121FFF7BDFC3B1C0F331B78181CBD4604B080BDBF
:4013C0006C01002080B582B000AF021CFB1D1A70FB1D1B78032B1ED8FB1D1A780F49131C5B009B185B0000225A54FB1D1A780B49131C5B009B185B00CB1800225A70FB1DD4
:401400001B78181C1021FFF791FCFB1D1B78181CFF21FFF78BFBBD4602B080BD6C01002080B582B000AF021CFB1D1A70FB1D1B78181CFFF7AFFB031C173B5A425341DBB2B4
:40144000181CBD4602B080BD90B585B000AF021CFB1D1A701C4B1B68181CFFF7BFFAFB1D1B78181C2021FFF761FC3C1C0F34FB1D1B78181CFFF776FB031C23700BE001207E
:4014800000F054F93C1C0F34FB1D1B78181CFFF769FB031C23703B1C0F331A781023134005D13B1C0F331A780A231340E7D0FB1D1B78181C1021FFF739FB0020FFF78EFAA8
:4014C000BD4605B090BDC0468401002080B582B000AF021CFB1D1A70FB1D1B78181CFFF781FC031C181CBD4602B080BD80B582B000AF021CBB1D1A80BB1D1B880120191C58
:401500000022FFF7D7FE031C181CBD4602B080BD80B582B000AF021CFB1D1A70FB1D1B78032B05D8FB1D1B78181C0221FFF7FEFBBD4602B080BDC04680B582B000AF021CD0
:40154000FB1D1A70FB1D1B78181CFFF769FF031C181CBD4602B080BD80B582B000AF021CFB1D1A70FB1D1B78181C0821FFF7DEFBBD4602B080BDC04690B585B000AF3960E0
:40158000FB1D011C19703B1D1A803A1C0E323B1D1B8898B280210901884201D980231B0113803C1C0B34FB1D1B78181CFFF7F2FA031C23703B1C0B331B78172B46D1FB1D5C
:4015C0001A782849131C5B009B185B005B5C012B3CD13B1C0C3300221A803B1C0B3317221A7011E03C1C0C34FB1D1B78181CFFF7C5FB031C23803C1C0B34FB1D1B78181C60
:40160000FFF7C8FA031C23703A1C0C323B1C0E3312881B889A4209D23B1C0B331B78172B04D13B1C0B331B781C2BDBD1FB1D19783A683B1C0E331B88081C0021FFF706FC03
:40164000FB1D1B78181CFFF7FFFE03E03B1C0E3300221A803B1C0E331B88181CBD4605B090BDC0466C01002090B587B002AF3960FB1D011C19703B1D1A803B1C0E3300222A
:401680001A80FB1D1B78181CFFF784FA031C172B2CD13C1C0E34FB1D1B78181CFFF7A2FB031C2380391C0E313B1C0E333A1D12881B889CB290B2844200D9131C0B803B1C11
:4016C0000E331B88002B11D0FB1D19783A683B1C0E331B8800200090081C0021FFF744FCFB1D1B78181C4021FFF720FB3B1C0E331B88181CBD4605B090BDC04680B582B017
:4017000000AF021C3960FB1D1A703B68181C00F04BFB031C9BB2FA1D11783A68081C111C1A1CFFF729FFBD4602B080BD80B582B000AF786008E00C4B1B68181C00F050FA31
:401740007B680A4A9B187B607A6880231B029A42F1D8074B1B687A685343181C00F040FABD4602B080BDC046E40000200080FFFFDC00002080B582B000AF021CBB1D1A8096
:40178000BB1D1B88044A12785343181C00F028FABD4602B080BDC046E000002080B500AF00F074F8BD4680BD80B500AF054B054A1268802109060A431A6000F017F8BD460C
:4017C00080BDC0460000074080B500AF064B1B78002B04D1044B01221A70FFF7DFFFFFF7E3FFBD4680BDC0468801002080B500AFBD4680BD80B582B000AF00237B60044B79
:401800001B687B607B68181CBD4602B080BDC0464003074080B582B000AF054B1A680F2313407B607B68181CBD4602B080BDC0460803074080B500AF074B074A1268802166
:4018400049020A431A60044B034A1168034A0A401A60BD4680BDC04604030740FFFFFEFF80B582B000AF7860C046064B1A680F231340082BF9D0044B7A681A60BD4602B0F9
:4018800080BDC046080207404002074080B500AF124B134A1A60134B134A1A60134B144A1A60144B07221A60134B114A1A60134B00221A60124B00221A60124B00221A6067
:4018C000114B00221A60114B00221A60104B00221A60104B00221A60BD4680BD000007400700000120000740010000800003074007010080040307400002074004020740DD
:40190000880E0740C80E0740480F0740080F0740C80F0740880F074080B584B000AF78600A4B1B68FB60FA68094B1340FB607B689A06C0231B051340FA681343FB60034BF4
:40194000FA681A60BD4604B080BDC04620000740FFFFFFF380B500AF064B1B78002B04D100F00AF8034B01221A7000F03DF8BD4680BDC0469001002090B583B000AFFF2023
:4019800000F040F8B82000F057F8012000F064F8012000F071F8FC1D00F02BF9031C23700F4B0F4A1278D2B201210A43D2B21A70FB1D1B78181C00F020F90A4B094A1278CA
:4019C000D2B202218A43D2B21A70064B054A1278D2B204218A43D2B21A70BD4603B090BD92000F4072000F4080B500AF044B044A1278D2B201210A43D2B21A70BD4680BDC6
:401A000072000F4080B582B000AF021CFB1D1A70FB1D1B78002B07D0054BFA1D12781A70044BFA1D12781A70BD4602B080BDC04642000F4002000F4080B582B000AF021C5F
:401A4000FB1D1A70034BFA1D12781A70BD4602B080BDC04612000F4080B582B000AF021CFB1D1A70034BFA1D12781A70BD4602B080BDC04622000F4080B582B000AF021C06
:401A8000FB1D1A70034BFA1D12781A70BD4602B080BDC04632000F4080B500AF064B1B78002B04D100F00AF8034B01221A7000F03DF8BD4680BDC0469101002090B583B048
:401AC00000AFFF2000F040F8B82000F057F8012000F064F8012000F071F8FC1D00F089F8031C23700F4B0F4A1278D2B201210A43D2B21A70FB1D1B78181C00F07EF80A4BDE
:401B0000094A1278D2B202218A43D2B21A70064B054A1278D2B204218A43D2B21A70BD4603B090BD93000F4073000F4080B500AF044B044A1278D2B201210A43D2B21A70E5
:401B4000BD4680BD73000F4080B582B000AF021CFB1D1A70FB1D1B78002B07D0054BFA1D12781A70044BFA1D12781A70BD4602B080BDC04643000F4003000F4080B582B0A8
:401B800000AF021CFB1D1A70034BFA1D12781A70BD4602B080BDC04613000F4080B582B000AF021CFB1D1A70034BFA1D12781A70BD4602B080BDC04623000F4080B582B0C3
:401BC00000AF021CFB1D1A70034BFA1D12781A70BD4602B080BDC04633000F40000000000230800804D0C0460138FDD1C046C0467047EFF3108072B6704780F31088704712
:401C0000002941D010B4041C4C40A44601230022002900D54942002800D5404288422CD301242407A14204D2814202D209011B01F8E7E400A14204D2814202D249005B007C
:401C4000F8E7884201D3401A1A434C08A04202D3001B5C0822438C08A04202D3001B9C082243CC08A04202D3001BDC082243002803D01B0901D00909E3E7101C6446002C15
:401C800000D5404210BC7047002806D003DB0020C043400801E08020000607B4024802A14018029003BDC046190000000029EBD003B5FFF7A7FF0EBC4243891A1847C0467C
:401CC0007047C04670B50E4B0E4D0024E81A85101E1CAC4204D0A100725890470134F8E700F028FA0849094A0E1C541AA5100024AC4204D0A300F05880470134F8E770BD65
:401D00004021000040210000402100004821000000B58218031C934202D019700133FAE700BD00000000000038B5194C2568AB6B002B17D1182000F03FF8A8632068154A4E
:401D4000816B154B0A80154A8B800B23144D0A818B810122002313480A614B614D800525C8804D812468094B074AA56B2869696900F088F801230024C0186141286169610F
:401D80004900480838BDC0462D7F954C2DF451584C0100200E33000034120000ECDEFFFFCDABFFFF6DE6FFFF0023C25C0133002AFBD1581E7047000008B5034B011C186875
:401DC00000F004F808BDC0464C01002070B50323CD1C9D430835061C0C2D01D20C2501E0002D2DDB8D422BD31C4A1368111C1C1C002C12D02068421B0CD40B2A02D9226081
:401E0000A41815E0A34202D166680E601CE065685D6019E0231C6468EAE7301C291C00F01FF8421C0CD0C41C03218C43844201D1256009E0211A301C00F012F80130F7D17D
:401E40000C243460002008E0201C0B300722211D9043431A01D05D42E55070BD9401002038B5074C0023051C081C236000F02CF8431C03D12168002900D0296038BDC04689
:401E80009C0100209C460304F0B51B0C17043F0C150C1E1C041C000C7E436B4347434543FB18300C1818874202D980277B02ED18070CED1967467C434A433604330CA118B2
:401EC00000044919C018F0BD0A4A00B51368002B0CD018186946884202D81060181C00BD054B0C2201201A604342F7E7034B1360EFE7C046980100209C010020A001002038
:401F00000000000057656C636F6D6520746F207468652050536F43342050696F6E65657220426F617264210D0A0000002D2D2D2D2D2D2D2D2D2D2D2D2D2D2D2D2D2D2D2D12
:401F40002D2D2D2D2D2D2D2D2D2D2D2D2D2D2D2D2D2D2D2D2D2D2D2D2D2D2D2D2D2D2D2D2D2D2D2D2D2D2D2D2D2D2D2D2D2D2D2D2D2D2D2D2D2D2D2D0D0A0D0A000000005B
:401F8000506C656173652050726573732061206B65793A20000000005C200D007C0D00002F0D00002D0D00000D0A5468616E6B20596F7521203A2D292000000000300F40F4
:401FC000000400400F40000404300F4003310F404A320F4031330F4006400F4004410F4002600F4038283E1458045F0118101B1087200C040F01140818011A0224012602C6
:4020000028012C103003321034083501360438023E5440064501481149FF4AFF4BFF4C024D204EF05203580E59045A0E5B045C995D995F01624863AD64C066C0850487084F
:4020400089048B088D01950197029904A901AB02AE01B001B10CB303B90AC003C654C701C81DC9FFCAFFCBFFCC02CD20CEF0D207D804D90CDA0CDB04DC99DD99DF01E24847
:40208000E3ADE4C0E6C004400D040F081002160817841B011C411E101F202104238026202A1030203204388839103E40401048204F28504452105608680269106A086E404E
:4020C0006F047B017E208E1090109401A310A720B401C080C260C4E1CA04CC06CE1ED002D220DE48E610EE105B205E208610D480D620E61062048E04B720D8400201110115
:40210000040000003139322E3136382E312E3130310000003235352E3235352E3235352E300000003139322E3136382E312E310043000000F8B5C046F8BC08BC9E46704755
:40214000C90200000D060000F8B5C046F8BC08BC9E467047A102000068210000C8000020880000005000000000000000C0F1FF0F90A2DA0EC2AC0000006CDC0280BB000003
:40218000300000000000C05D000000000000000000000000000000000000000000000000000000000000000030210000000000000000000000000000000000000000000081
:4021C0000000000000000000000000000000000000000000000000000000000000000000000000000000000000000000E800002000000000000000000000000000000000D7
:40220000000000000000000000000000000000000000000000000000000000000000000000000000000000000000000000000000000000000000000000000000000000009E
:40224000000000000000000000000000000000000000000000000000000000000000000000000000000000000000000000000000000000000000000000000000000000005E
:40228000000000000000000000000000000000000000000000000000000000000000000000000000000000000000000000000000000000000000000000000000000000001E
:4022C00000000000000000000000000000000000000000000000000000000000000000000000000000000000000000000000000000000000000000000000000000000000DE
:0200000490303A
:02000000927BF1
:0200000490402A
:200000000000000000000000000000000000000000000000000000000000000000000000E0
:0200000490501A
:0C000000000204C81193110104D3A40EE7
:0200000490600A
:0100000001FE
:00000001FF