:400000000010002011000000C3020000C302000008B500F059F90000F8B572B680220021D200464800F0AEFD80230021DA00444800F0A8FD0023191C424FFF25D8594A001C
:40004000061CAE431C37C4B2351CBA18002C07D01778013C7E195778E4B237700232F5E7C0B2043309181C2BE6D1374C374BC027374E1C60BD04374A3748384C3560CD2182
:40008000374F384B384E026040252160C02237491F6050033560364F364D374B9926374A086011243004B0213C601D600C041060334F344D8023344A34499E053C60286033
:4000C0001660086032480227047806233C4304700578304E1D43057032688021C80210432D4C2E4F306020782D4B39781D782F2D05D92C4A58789978033B9342F6D12A4C02
:400100002A4F2B4D2060396028782A4B2A4D1860052000F00FFC294F294A10243521116080203C6027492C60274A80240306E7020B6013603760254E3360F8BD00300F40BD
:4001400000400F4004140000003300FF0000014004000140FFEE0F000C00014000000440860DD800080004400001044008010440000304408E6D00000803044000500F401A
:4001800008500F4010500F4018500F4030500F4000700F4000010B40CCF1FF0FCDF1FF0FC9F1FF0FBDF1FF0F1CFF0B4020FF0B40FDF1FF0F28FF0B400C0202400802024063
:4001C0002CFF0B4008010B4004010B400000024010B5064C2378002B07D10548002802D0044800E000BF0121217010BD5001002000000000B413000008B5084B002B03D0F6
:400200000748084900E000BF07480168002903D0064A002A00D0904708BDC04600000000B413000054010020C80000200000000030B51F4CA54400F091FB00F0B7FA17202E
:4002400000F0E5FA041C00F0E9FA201C00F0EDFA002803D1642000F057FBF6E7201C00F0D2FA002808D1201C124900F041FBFA21480000F049FBF1E7201C00F0C4FA40A90C
:40028000C2B2201C00F014FB051C0A2000F03CFB201C00F0B8FAEAB2C3B20749684600F07BFC201C694600F023FBFA204000D2E72CF7FFFFB8130000CC13000008B5FFF73F
:4002C000B7FF00B5FEE7000070B50F490F4A01394B1C14D0506895681468031C1E1AAE4202D040CC40C3F9E7D0681D1C5C1B844202D0002640C3F9E710320139E8E700F056
:400300001BFCFFF7DBFFFEE701000000C015000008B500239A00032B02D80948815800E00849094801338150302BF3D1FFF774FE064B002280201A600121C205116008BDB5
:4003400000000000C302000000000020C000002038B5041C0D1C00F087FB002803D1012000F0E8FAF7E7012000F06EFB00F012FBF02000F01FFB200A00F01CFBE0B200F0FF
:4003800019FB281C00F016FB38BD38B5051C0C1C0135090AFFF7DCFFA8B2E1B2FFF7D8FF38BD37B5051C01910024281901ABE15C80B20134FFF7CCFF042CF6D137BDF8B543
:4003C000061C0F1C151C0024AC4206DA3019395D80B2FFF7BDFF0134F6E7F8BD38B5041C00F042FB002803D1012000F0A3FAF7E7012000F029FB00F0CDFA0F2000F0DAFA62
:40040000200A00F0D7FAE0B200F0D4FA002000F0D1FA00F029FB002803D1012000F08AFAF7E700F0AFFA002803D000F0A5FA051CF7E7E8B238BD000008B5034B0002C1188C
:4004400088B2FFF7CBFF08BD0304000038B5041CFFF7C4FF01340502A0B2FFF7BFFFADB2281880B238BD0000F7B5141C154A0702051CB81887B2381C0E1CFFF7E7FF80227E
:400480004305ED030190D001590D2B189DB280234A1900951D01691A8DB290B2311C221EAA4206D92A1CFFF78AFF71190098661BB2B2FFF784FF01980419A1B2381CFFF7FD
:4004C00064FFF7BD24040000094B70B50602F01886B20025301CFFF7B9FF041E03D0301CFFF7B4FF051CAC42F4D1201C70BDC04626040000F8B5061C0F1C151C0024AC4249
:4005000006DA301980B2FFF769FF38550134F6E7F8BDF8B5161C8522071C0C1C0002D1001D1C431898B2FFF791FFC022D3010419FF0360058022FC18410DA7B21301C8191A
:40054000591A8CB280B2311C2A1EA24206D9221CFFF7D0FF31192E1BB2B2381CFFF7CAFFF8BD000038B50B4B0502E81885B2C9B2281CFFF7EDFE0024281CFFF72FFF0028A9
:4005800006D07D2C04D00120013400F0BDF9F3E7201C38BD01040000104B10B51968041C0520FFF7FEFE201C2021FFF7DBFF0C492002421894B2201CFFF710FF1A231842C8
:4005C00003D1012000F0A0F9F5E7201C1021FFF7BFFE05200021FFF7E4FE10BD6C01002002040000F0B5002487B0071C251C261C381C00F0F3FA864206D2BB5D1A1C303AD4
:40060000092A08D8032C02DD012358422CE004A80355013401E02E2B03D0B9194B78002B12D1002304AA135503AC635504A8C45C002C08D003A94A5D0A20504330382418C2
:400640004C550133F2E701350136032DD0DD042DDAD103ADEE7829786A783706AD7810027B181C182E04A01907B0F0BDF8B5051C161C0023FF245A1CFF2C0DD106275F43EF
:40068000174804303F5C002F06D1042D03D1002B01D1131CEFE7DCB2131E042BEBD1FF2C1BD0062060430E4A002317180D4A381DF9803D717E7127020371B81880B2FFF775
:4006C00064FE8021CB00FF18311CB8B22943FFF73FFE201C0121FFF745FF201CF8BDC0466C0100200404000010B5041E032C11D806224243084B0021981801714171201C6B
:400700001021FFF72FFF054A2402A31898B2FF21FFF71EFE10BDC0466C01002002040000F8B5061CFA20141C1F1C0D1C00F0ECF880210020FFF70CFE0A2000F0E5F8002029
:40074000FFF7D2FF0120FFF7CFFF0220FFF7CCFF0320FFF7C9FF1B205521FFF7F9FD1A205521FFF7F5FD0120391CFFF71AFE211C0520FFF716FE0C4B1C600024201C093078
:40078000315D80B20134FFF7E3FD062CF6D1291C0F20FFF706FE1520FF21FFF7D9FD05200021FFF7FEFDF8BD6C01002038B50D4B1878002801D100F0D1F80A2000F0A4F82F
:4007C0000948FFF70FFF051C0848FFF70BFF041C0748FFF707FF291C031C221C0548FFF79FFF38BD880100203C1500004A15000058150000CC00002008B5FFF71DFE173881
:400800004342584108BD08B5FFF75EFE08BD08B5011C00220120FFF729FF08BD08B5032802D80221FFF79EFE08BD08B5FFF7E4FF08BD0000F7B5041C0191161CFFF7FCFDEB
:400840000025172830D106236343184AD1180F79012F29D180252B01321C9E4200D91A1C84212602CF00F31995B29AB200920026AE4211D217280FD100260098FFF7E6FDBD
:40088000071E03D00098FFF7E1FD061CB742F4D1201CFFF7D1FDEBE7201C01992A1CFFF7E3FD201CFFF778FE281CFEBD6C010020F8B5051C0F1C161CFFF7BEFD172801D010
:4008C000002613E0281CFFF7FFFD041CB04200D9341CA6B2002EF3D0281C00213A1C331CFFF717FE281C4021FFF73CFE301CF8BD38B5051C081C0C1C00F070F9211C82B216
:40090000281CFFF797FF38BD10B5041C8022074B1002844205D9186800F0AEF804496418F4E75868604300F0A7F810BDD40000200080FFFF08B5034B197A484300F09CF8CB
:4009400008BDC046D4000020034B802219681006084318607047C0460000074008B5054B1A78002A03D10120187000F031F8FFF7EBFF08BD88010020014B18687047C04634
:4009800040030740024B0F21186808407047C04608030740054B802219685002084318601968034A0A401A607047C04604030740FFFFFEFF00B5044B0F211A681140082901
:4009C000F9D0024B186000BD08020740400207400E4A0F4B0F4810491A60104B104A0860104913600720104A086010481360002303600F490F4A10480B6013600F49036031
:400A00000F4A10480B60136003607047070000010000074001000080200007400701008000030740040307400002074004020740880E0740C80E0740480F0740080F07402A
:400A4000C80F0740880F0740054B064A196880060A40C02109050840104318607047C04620000740FFFFFFF3024B1868C106C80F7047C046040304400230800804D0C0466C
:400A80000138FDD1C046C0467047EFF3108072B6704780F310887047002934D00123002210B488422CD301242407A14204D2814202D209011B01F8E7E400A14204D2814254
:400AC00002D249005B00F8E7884201D3401A1A434C08A04202D3001B5C0822438C08A04202D3001B9C082243CC08A04202D3001BDC082243002803D01B0901D00909E3E731
:400B0000101C10BC7047002801D00020C04307B4024802A14018029003BDC046190000000029F0D003B5FFF7B9FF0EBC4243891A1847C0467047C04670B50E4B0E4D002419
:400B4000E81A85101E1CAC4204D0A100725890470134F8E700F022FD0849094A0E1C541AA5100024AC4204D0A300F05880470134F8E770BDA8150000A8150000A81500007C
:400B8000B015000000B58218031C934202D019700133FAE700BD00000EB400B59CB01DAB02A904CB822202900861920009488A810122886048615042074AC88110681D9A5F
:400BC000019300F06BF8029900230B701CB008BC03B01847FFFFFF7F480100200023C25C0133002AFBD1581E70470000F7B501919168071C141C002940D190239289D8004C
:400C000002423BD02568216963696E1A58000096C6180098F50FAB1901305D10A84201DB009D0235381C53050FD5291C00F004FB061E13D02169009A00F054FBA7891649D9
:400C4000802239401143A18111E02A1C00F053FB061E0CD1381C216900F0A6FA0C203860A58940263543A5810124604213E0009B6561F018ED1A26612060A560A668002E97
:400C800008DD694627680A793A70A3680137013B2760A3600020FEBD7FFBFFFFF0B5A1B0049007938B890E1C171C19060FD53269002A0CD1402100F0BFFA306030610028FB
:400CC00003D1049C0C262660D6E04020706108AD00212024302369616C76AB763C1C2278002A04D1E01B069019D003970FE0252AF8D00134F3E70399321C09780498FFF790
:400D000075FF039A01320392013000D1AFE003990698CB1B8342EEDB0D9F3A180D922178002900D1A3E001206A4600234742633201342B60EB606F60AB601370AB65504FBF
:400D40002178381C052200F0C1FA002807D0C71B2B680120B840184328600134EFE72B68D90603D568462021633001701A0703D56A462B276332177021782A2901D00B9B82
:400D80000EE0079A1068111D0791002801DB0B9004E0022247421343EF602B60013409E020783038092804D80A277B4301341B18F6E70B9323782E2B18D161782A2909D126
:400DC000079B02341A68191D0791002A0DDA012042420AE00134002220783038092804D80A277A4301341218F6E70992254F2178381C032200F06AFA002806D02B68C21BBA
:400E00004021914019432960013421781E4806222976671C00F05AFA002817D01B4800280BD12868079C0723C10501D5E41800E007349C430834079414E007AA00920498CA
:400E4000291C321C124B00E000BF07E007AC00940498291C321C0E4B00F08CF8059005994A1C04D00D99059A8C180D9436E7B589690601D40D9801E00127784221B0F0BD3D
:400E8000661500006C1500007015000000000000ED0B0000F7B5151C01930A698B6800900C1C934200DA131C201C2B6043300178002901D001332B602668B00602D52F682E
:400EC00002372F602268062616401CD0261C4336377822683E1C731E9E4192061CD5A319181C40303021271CC17045373A784133DA70023610E0617E0098019A089FB847FA
:400F0000013006D00136E3682868191A8E42F2DBDCE7012040422CE00027B7420ADAE119433109780098019A089B98470130F0D00137F2E72B68256806212940E668002589
:400F4000042903D1F01AC743FD170540A2682669B24201DD931BED180027AF4208DAA17E0098019A089EB0470130D2D00137F4E70020FEBDF0B50D1C8BB04335079305908B
:400F8000069204950A7E0C1C109B6E2A00D1A8E012D8632A24D009D8002A00D1B1E0582A00D0C1E045310A707D4D51E0642A1FD0692A00D0B8E01BE0732A00D1A5E009D8B7
:400FC0006F2A2BD0702A00D0AEE00A68202616430E6038E0752A21D0782A00D0A4E032E018680E1C051D1D600368423633709EE026681F68300606D4750604D5381D1860A3
:4010000000203D5E02E03D1D1D603D68644B002D3BDA04992D226D420A7036E027681E683D0605D4780603D5351D1D60358802E0311D196035685A4B207E039308276F2883
:401040001ED00A271CE0271C45377820554D38701A682668111D03951960300603D4750601D5158800E01568F00702D520231E4326601027002D03D12668202086432660C0
:40108000261C43360022327001E003930A276168A160002903DB2068042398432060002D02D1049E00290ED0049E281C391CFFF737FD039A013E515C281C3170391CFFF767
:4010C000EBFC051EF1D1049B9A1B2261082F33D12768F80730D5606890422DDC013262602AE008681E684969050606D4450604D5351D1D603368198003E0321D1A603768DE
:40110000396000202061049E16E01E68311D19603668301CFFF762FD65682061A84200D925612369636004E0261C4236327001212161049F00223A7007990598009109AA97
:40114000211C069BFFF7A6FE01300CD0351C2269AB1B93420ADA29780598069A079FB84701350130F3D10122504217E02668B10705D4099BE068984210DA181C0EE000251F
:40118000E7680998391A8D42F3DA617E0598069A079EB0470130E6D00135F1E70BB0F0BD771500008815000030B5002940D004390B68002B00DAC9181E4A1368141C002B20
:4011C00002D14B60116033E099420FD20D684A199A4205D110682B1855680B604D6000E04B60216024E08A4203D8131C5A68002AF9D11D685C198C420BD10C682D195819AC
:401200001D60904214D1116852686C181C605A600EE08C4202D90C21016009E008680D18954203D114685268001908604A60596030BDC0469001002070B50323CD1C9D436D
:401240000835061C0C2D01D20C2501E0002D2DDB8D422BD31C4A1368111C1C1C002C12D02068421B0CD40B2A02D92260A41815E0A34202D166680E601CE065685D6019E020
:40128000231C6468EAE7301C291C00F05BF8421C0CD0C41C03218C43844201D1256009E0211A301C00F04EF80130F7D10C243460002008E0201C0B300722211D9043431ADB
:4012C00001D05D42E55070BD9001002000B5C9B28218904204D003788B4202D00130F8E7002000BD10B50023934203D0CC5CC4540133F9E710BDF8B5061C0C1C151C0029F2
:4013000004D1111CFFF798FF041C18E0002A03D1FFF74AFF2C1C12E000F026F8A8420ED2301C291CFFF788FF071E07D0211C2A1CFFF7D8FF301C211CFFF736FF3C1C201C15
:40134000F8BD000038B5074C0023051C081C236000F014F8431C03D12168002900D0296038BDC0469801002004390B6800B5181F002B02DAC8581918081F00BD0A4A00B5BE
:401380001368002B0CD018186946884202D81060181C00BD054B0C2201201A604342F7E7034B1360EFE7C0469401002098010020A0010020000000000D205278446174610E
:4013C00057616974696E67203D20300020203C2D2D4920726561642025642062797465732C207468656E20726561642052784461746157616974696E67203D202564200D81
:401400002000000004300F4003310F404A320F4031330F4006400F4004410F4002600F4038283E1458045F0118101B1087200C040F01140818011A022401260228012C10A3
:401440003003321034083501360438023E5440064501481149FF4AFF4BFF4C024D204EF05203580E59045A0E5B045C995D995F01624863AD64C066C08504870889048B0860
:401480008D01950197029904A901AB02AE01B001B10CB303B90AC003C654C701C81DC9FFCAFFCBFFCC02CD20CEF0D207D804D90CDA0CDB04DC99DD99DF01E248E3ADE4C0FF
:4014C000E6C004400D040F081002160817841B011C411E101F202104238026202A1030203204388839103E40401048204F28504452105608680269106A086E406F047B015F
:401500007E208E1090109401A310A720B401C080C260C4E1CA04CC06CE1ED002D220DE48E610EE105B205E208610D480D620E61062048E04B720D840020111013139322E05
:401540003136382E312E313031003235352E3235352E3235352E30003139322E3136382E312E31004300232D302B2000686C4C0065666745464700303132333435363738F2
:4015800039414243444546003031323334353637383961626364656600000000F8B5C046F8BC08BC9E467047F901000011030000F8B5C046F8BC08BC9E467047D10100008F
:4015C000D0150000C800002088000000500000000000000090A2DA0EC2AC00000000C05D80BB000030000000006CDC020000000000000000000000000000000000000000EC
:401600000000000000000000000000006415000000000000000000000000000000000000000000000000000000000000000000000000000000000000000000000000000031
:4016400000000000000000000000000000000000E4000020000000000000000000000000000000000000000000000000000000000000000000000000000000000000000066
:40168000000000000000000000000000000000000000000000000000000000000000000000000000000000000000000000000000000000000000000000000000000000002A
:4016C00000000000000000000000000000000000000000000000000000000000000000000000000000000000000000000000000000000000000000000000000000000000EA
:4017000000000000000000000000000000000000000000000000000000000000000000000000000000000000000000000000000000000000000000000000000000000000A9
:401740000000000000000000000000000000000000000000000000000000000000000000000000000000000000000000000000000000000000000000000000000000000069
:0200000490303A
:02000000807905
:0200000490402A
:200000000000000000000000000000000000000000000000000000000000000000000000E0
:0200000490501A
:0C000000000204C81193110104CF920CFF
:0200000490600A
:0100000001FE
:00000001FF