:400000000010002011000000B9030000B903000008B500F0D3F90000F8B572B680220021D200464800F0EEFE80230021DA00444800F0E8FE0023191C424FFF25D8594A0032
:40004000061CAE431C37C4B2351CBA18002C07D01778013C7E195778E4B237700232F5E7C0B2043309181C2BE6D1374C374BC027374E1C60BD04374A3748384C3560CD2182
:40008000374F384B384E026040252160C02237491F6050033560364F364D374B9926374A086011243004B0213C601D600C041060334F344D8023344A34499E053C60286033
:4000C0001660086032480227047806233C4304700578304E1D43057032688021C80210432D4C2E4F306020782D4B39781D782F2D05D92C4A58789978033B9342F6D12A4C02
:400100002A4F2B4D2060396028782A4B2A4D1860052000F099FC294F294A10243521116080203C6027492C60274A80240306E7020B6013603760254E3360F8BD00300F4033
:4001400000400F40A0100000003300FF0000014004000140FFEE0F000C00014000000440860DD800080004400001044008010440000304408E6D00000803044000500F4082
:4001800008500F4010500F4018500F4030500F4000700F4000010B40CCF1FF0FCDF1FF0FC9F1FF0FBDF1FF0F1CFF0B4020FF0B40FDF1FF0F28FF0B400C0202400802024063
:4001C0002CFF0B4008010B4004010B400000024010B5064C2378002B07D10548002802D0044800E000BF0121217010BD5001002000000000F00F000008B5084B002B03D0BE
:400200000748084900E000BF07480168002903D0064A002A00D0904708BDC04600000000F00F000054010020C800002000000000F0B5A1B000F01CFC00F032FB00F026FD55
:4002400000F0DAFC012000F0DDFB002400F0E4FD1722504B104041301855FA200134C1008C42F3D100F0D8FD061C00F0D5FD051C00F0D2FD071CF0B200F016FD281CFF2181
:4002800000F08EFDC8B200F015FD381CFF2100F087FDC8B200F0BEFC172000F032FB041C00F036FB201C00F03AFB002821D100F0B3FD071C00F0B0FD061C00F0ADFDFF21EF
:4002C000051C381C00F06CFDC8B200F0EDFC301CFF2100F065FDC8B200F0ECFC281CFF2100F05EFDC8B200F095FCFA2000F096FBD8E7201C284900F079FB201C274900F01C
:4003000075FB0026201C00F0F8FA00281ED1201C234900F06BFB032E11D8301C00F0E0FC0205080B201C1F4907E0201C1E4904E0201C1E4901E01E49201C00F057FB032208
:4003400001360120164000F069FBDBE7201C194900F04CFB6946201C802200F027FB6946021C201C00F0E4FA002000F04BFBFA230849DA00201C00F0DBFA012000F042FB81
:40038000201C00F0D0FA201C00F028FA0A2000F045FB81E79C010020F40F00001A1000006B1000008010000084100000871000008A1000008D10000000B5FEE770B50F49C9
:4003C0000F4A01394B1C14D0506895681468031C1E1AAE4202D040CC40C3F9E7D0681D1C5C1B844202D0002640C3F9E710320139E8E700F0E1FCFFF71BFFFEE7010000004F
:400400002812000008B500239A00032B02D80948815800E00849094801338150302BF3D1FFF7FAFD064B002280201A600121C205116008BD00000000B903000000000020BB
:40044000C000002038B5041C0D1C00F097FB002803D1012000F0F8FAF7E7012000F07EFB00F022FBF02000F02FFB200A00F02CFBE0B200F029FB281C00F026FB38BD38B528
:40048000051C0C1C0135090AFFF7DCFFA8B2E1B2FFF7D8FF38BD37B5051C01910024281901ABE15C80B20134FFF7CCFF042CF6D137BDF8B5061C0F1C151C0024AC4206DA0D
:4004C0003019395D80B2FFF7BDFF0134F6E7F8BD38B5041C00F052FB002803D1012000F0B3FAF7E7012000F039FB00F0DDFA0F2000F0EAFA200A00F0E7FAE0B200F0E4FA26
:40050000002000F0E1FA00F039FB002803D1012000F09AFAF7E700F0BFFA002803D000F0B5FA051CF7E7E8B238BD000008B5034B0002C11888B2FFF7CBFF08BD03040000B0
:4005400038B5041CFFF7C4FF01340502A0B2FFF7BFFFADB2281880B238BD0000F7B5141C154A0702051CB81887B2381C0E1CFFF7E7FF80224305ED030190D001590D2B1800
:400580009DB280234A1900951D01691A8DB290B2311C221EAA4206D92A1CFFF78AFF71190098661BB2B2FFF784FF01980419A1B2381CFFF764FFF7BD24040000094B70B587
:4005C0000602F01886B20025301CFFF7B9FF041E03D0301CFFF7B4FF051CAC42F4D1201C70BDC04626040000F8B5061C0F1C151C0024AC4206DA301980B2FFF769FF3855BA
:400600000134F6E7F8BDF8B5161C8522071C0C1C0002D1001D1C431898B2FFF791FFC022D3010419FF0360058022FC18410DA7B21301C819591A8CB280B2311C2A1EA24203
:4006400006D9221CFFF7D0FF31192E1BB2B2381CFFF7CAFFF8BD000038B50B4B0502E81885B2C9B2281CFFF7EDFE0024281CFFF72FFF002806D07D2C04D00120013400F06B
:40068000CDF9F3E7201C38BD01040000104B10B51968041C0520FFF7FEFE201C2021FFF7DBFF0C492002421894B2201CFFF710FF1A23184203D1012000F0B0F9F5E7201CAA
:4006C0001021FFF7BFFE05200021FFF7E4FE10BD6C01002002040000F0B5002487B0071C251C261C381C00F0D7FB864206D2BB5D1A1C303A092A08D8032C02DD01235842A5
:400700002CE004A80355013401E02E2B03D0B9194B78002B12D1002304AA135503AC635504A8C45C002C08D003A94A5D0A205043303824184C550133F2E701350136032D55
:40074000D0DD042DDAD103ADEE7829786A783706AD7810027B181C182E04A01907B0F0BDF8B5051C161C0023FF245A1CFF2C0DD106275F43174804303F5C002F06D1042DD4
:4007800003D1002B01D1131CEFE7DCB2131E042BEBD1FF2C1BD0062060430E4A002317180D4A381DF9803D717E7127020371B81880B2FFF764FE8021CB00FF18311CB8B23D
:4007C0002943FFF73FFE201C0121FFF745FF201CF8BDC0466C0100200404000010B5041E032C11D806224243084B0021981801714171201C1021FFF72FFF054A2402A31881
:4008000098B2FF21FFF71EFE10BDC0466C01002002040000F8B5061CFA20141C1F1C0D1C00F0FCF880210020FFF70CFE0A2000F0F5F80020FFF7D2FF0120FFF7CFFF0220BF
:40084000FFF7CCFF0320FFF7C9FF1B205521FFF7F9FD1A205521FFF7F5FD0120391CFFF71AFE211C0520FFF716FE0C4B1C600024201C0930315D80B20134FFF7E3FD062C48
:40088000F6D1291C0F20FFF706FE1520FF21FFF7D9FD05200021FFF7FEFDF8BD6C01002038B50D4B1878002801D100F0E1F80A2000F0B4F80948FFF70FFF051C0848FFF74F
:4008C0000BFF041C0748FFF707FF291C031C221C0548FFF79FFF38BD88010020D8110000E6110000F4110000CC00002008B5FFF71DFE17384342584108BD08B5FFF75EFE82
:4009000008BD08B5011C00220120FFF729FF08BD08B5032802D80221FFF79EFE08BD08B5FFF7E4FF08BD08B50821FFF795FE08BDF7B5041C0191161CFFF7F8FD0025172848
:4009400030D106236343184AD1180F79012F29D180252B01321C9E4200D91A1C84212602CF00F31995B29AB200920026AE4211D217280FD100260098FFF7E2FD071E03D02C
:400980000098FFF7DDFD061CB742F4D1201CFFF7CDFDEBE7201C01992A1CFFF7DFFD201CFFF774FE281CFEBD6C010020F8B5051C0F1C161CFFF7BAFD172801D0002613E002
:4009C000281CFFF7FBFD041CB04200D9341CA6B2002EF3D0281C00213A1C331CFFF713FE281C4021FFF738FE301CF8BD38B5051C081C0C1C00F050FA211C82B2281CFFF71F
:400A000097FF38BD044BFE2219680A4001210840104318607047C0460000044010B5041C8022074B1002844205D9186800F048F904496418F4E75868604300F041F910BD7D
:400A4000D40000200080FFFF08B5034B197A484300F036F908BDC046D4000020034B802219681006084318607047C0460000074008B5054B1A78002A03D10120187000F079
:400A800031F8FFF7EBFF08BD88010020014B18687047C04640030740024B0F21186808407047C04608030740054B802219685002084318601968034A0A401A607047C04681
:400AC00004030740FFFFFEFF00B5044B0F211A6811400829F9D0024B186000BD08020740400207400E4A0F4B0F4810491A60104B104A0860104913600720104A086010484A
:400B00001360002303600F490F4A10480B6013600F4903600F4A10480B601360036070470700000100000740010000802000074007010080000307400403074000020740D1
:400B400004020740880E0740C80E0740480F0740080F0740C80F0740880F0740054B064A196880060A40C02109050840104318607047C04620000740FFFFFFF3024B186862
:400B8000C106C80F7047C046040304400F4A104810B5FF230F4C1370B82103700E4A0F4B217001241C70147000F093F80C490B781C430C7000F091F80A4802220478042197
:400BC0009443047003788B43037010BD42000F4002000F4012000F4032000F4022000F4092000F4072000F40024B01211A780A431A70704772000F4010B5054C2378002B1E
:400C000003D1FFF7C3FF01202070FFF7EDFF10BD90010020014B18707047C04622000F400F4A104810B5FF230F4C1370B82103700E4A0F4B217001241C70147000F049F8AA
:400C40000C490B781C430C7000F047F80A480222047804219443047003788B43037010BD43000F4003000F4013000F4033000F4023000F4093000F4073000F40024B01215A
:400C80001A780A431A70704773000F4010B5054C2378002B03D1FFF7C3FF01202070FFF7EDFF10BD91010020014B18707047C04623000F40014B18707047C04633000F40C2
:400CC0000230800804D0C0460138FDD1C046C0467047EFF3108072B6704780F31088704702B4714649084900095C49008E4402BC7047C046002941D010B4041C4C40A446ED
:400D000001230022002900D54942002800D5404288422CD301242407A14204D2814202D209011B01F8E7E400A14204D2814202D249005B00F8E7884201D3401A1A434C0897
:400D4000A04202D3001B5C0822438C08A04202D3001B9C082243CC08A04202D3001BDC082243002803D01B0901D00909E3E7101C6446002C00D5404210BC7047002806D0D4
:400D800003DB0020C043400801E08020000607B4024802A14018029003BDC046190000000029EBD003B5FFF7A7FF0EBC4243891A1847C0467047C04670B50E4B0E4D0024A9
:400DC000E81A85101E1CAC4204D0A100725890470134F8E700F016FA0849094A0E1C541AA5100024AC4204D0A300F05880470134F8E770BD101200001012000010120000DA
:400E00001812000000B58218031C934202D019700133FAE700BD000038B5194C2568AB6B002B17D1182000F03FF8A8632068154A816B154B0A80154A8B800B23144D0A8165
:400E40008B810122002313480A614B614D800525C8804D812468094B074AA56B2869696900F088F801230024C0186141286169614900480838BDC0462D7F954C2DF451588D
:400E8000480100200E33000034120000ECDEFFFFCDABFFFF6DE6FFFF0023C25C0133002AFBD1581E7047000008B5034B011C186800F004F808BDC0464801002070B5032308
:400EC000CD1C9D430835061C0C2D01D20C2501E0002D2DDB8D422BD31C4A1368111C1C1C002C12D02068421B0CD40B2A02D92260A41815E0A34202D166680E601CE0656891
:400F00005D6019E0231C6468EAE7301C291C00F01FF8421C0CD0C41C03218C43844201D1256009E0211A301C00F012F80130F7D10C243460002008E0201C0B300722211D50
:400F40009043431A01D05D42E55070BD9401002038B5074C0023051C081C236000F02CF8431C03D12168002900D0296038BDC0466C0900209C460304F0B51B0C17043F0C92
:400F8000150C1E1C041C000C7E436B4347434543FB18300C1818874202D980277B02ED18070CED1967467C434A433604330CA11800044919C018F0BD0A4A00B51368002BFF
:400FC0000CD018186946884202D81060181C00BD054B0C2201201A604342F7E7034B1360EFE7C046980100206C090020700900200000000057656C636F6D6520746F2074CE
:4010000068652050536F43342050696F6E65657220426F617264210D0A002D2D2D2D2D2D2D2D2D2D2D2D2D2D2D2D2D2D2D2D2D2D2D2D2D2D2D2D2D2D2D2D2D2D2D2D2D2D5A
:401040002D2D2D2D2D2D2D2D2D2D2D2D2D2D2D2D2D2D2D2D2D2D2D2D2D2D2D2D2D2D2D2D2D2D2D2D2D2D0D0A0D0A00506C656173652050726573732061206B65793A2000C9
:401080005C200D007C0D002F0D002D0D000D0A5468616E6B20596F7521203A2D2920000004300F4003310F404A320F4031330F4006400F4004410F4002600F4038283E143D
:4010C00058045F0118101B1087200C040F01140818011A022401260228012C103003321034083501360438023E5440064501481149FF4AFF4BFF4C024D204EF05203580EB6
:4011000059045A0E5B045C995D995F01624863AD64C066C08504870889048B088D01950197029904A901AB02AE01B001B10CB303B90AC003C654C701C81DC9FFCAFFCBFFD8
:40114000CC02CD20CEF0D207D804D90CDA0CDB04DC99DD99DF01E248E3ADE4C0E6C004400D040F081002160817841B011C411E101F202104238026202A103020320438881D
:4011800039103E40401048204F28504452105608680269106A086E406F047B017E208E1090109401A310A720B401C080C260C4E1CA04CC06CE1ED002D220DE48E610EE10E2
:4011C0005B205E208610D480D620E61062048E04B720D840020111013139322E3136382E312E313031003235352E3235352E3235352E30003139322E3136382E312E3100E7
:4012000043000000F8B5C046F8BC08BC9E467047F901000005040000F8B5C046F8BC08BC9E467047D101000038120000C800002088000000200800000000000090A2DA0E0E
:40124000C2AC00000000C05D80BB000030000000006CDC0200000000000000000000000000000000000000000000000000000000000000000012000000000000000000001C
:401280000000000000000000000000000000000000000000000000000000000000000000000000000000000000000000000000000000000000000000E4000020000000002A
:4012C00000000000000000000000000000000000000000000000000000000000000000000000000000000000000000000000000000000000000000000000000000000000EE
:4013000000000000000000000000000000000000000000000000000000000000000000000000000000000000000000000000000000000000000000000000000000000000AD
:40134000000000000000000000000000000000000000000000000000000000000000000000000000000000000000000000000000000000000000000000000000000000006D
:40138000000000000000000000000000000000000000000000000000000000000000000000000000000000000000000000000000000000000000000000000000000000002D
:0200000490303A
:0200000034E1E9
:0200000490402A
:200000000000000000000000000000000000000000000000000000000000000000000000E0
:0200000490501A
:0C000000000204C81193110104CE4674E4
:0200000490600A
:0100000001FE
:00000001FF