:400000000080002011000000810100008101000008B5034B03481A68026000F0B3F800BFFA460040BC76004010B5054C237833B9044810B10448AFF300800121217010BDED
:400040009081FF1F00000000640D000008B5064B1BB106480649AFF300800648016811B1054A02B1904708BD00000000640D00009481FF1F0881FF1F0000000030B5A1B0AF
:4000800000F060FA00F07EFC002400F0A7FD334B00F017004130E0540134B4F5FA6FF4D1172000F09FFC044600F0A1FC204600F0A4FC18B9642000F02FFDF7E720462849E9
:4000C00000F0FDFC2046274900F0F9FC0025204600F086FCE8B92046234900F0F0FC032D10D8DFE805F00205080B20461F4907E020461F4904E020461E4901E01E49204640
:4001000000F0DDFC0135012005F0030500F004FDDDE72046194900F0D2FC69468022204600F0AEFC69460246204600F06BFC002000F00EFD09494FF4FA62204600F062FCA2
:40014000012000F005FD204600F059FC204600F0B7FB0A2000F0E0FCA2E700BFD481FF1F680D0000910D0000E20D0000F70D0000FB0D0000FE0D0000010E0000040E0000CE
:40018000FEE7000008B51249124B4A1C1AD053F8106C53F80C0C53F8085C0022AA4200EB020403D0B45884500432F7E753F8040C0022824203D00025A5500432F9E7013978
:4001C0001033E2E700F0D2FCFFF758FFFEE700BF00000000B00E000008B5104A104B1A60986840F400729A600023032B96BF0D4A0D4952F823100D4A42F823100133302BD7
:40020000F3D10B490B4B08780B4918700A6000F017F80A480022026008BD00BF0004FA050CED00E000000000810100000080FF1FBC7600400481FF1F08ED00E00081FF1FAC
:40024000F8B572B6644A0123A2F5F060634C644E13700225038018214FF040230827614A217035701F7083F8005210785E4D5F4940F6180441F2512608702C8025F8026C95
:40028000002419255A4F3B7803F0010242EA440000F003044FF4F07000F02AFC013D1BD0032CEFD1534E544B4FF48071072700244822524D0220318037701C709A703470CF
:4002C00006F8030C2E784E4F46F0010129703B7843F004023A7000E0FEE74A4D062000FB045600213068B288013400F06EFC0A2CF3D145498022454800F05EFC444A00213E
:4003000052F8040F4F00C5B220F0FF060023DCB2A5420CD007F1904404F13C0C3D341CF813E014F8134001330EF80640EFE7C3B23848C9188242E3D1374B1A7842F0020144
:400340001970187C40F002021A74344B344A197841F040001870117841F01000314910700868C2F8400D4968C2F8441D2E490868C2F8FE0D4868C2F8020E0989A2F8061E9A
:400380002A490868C2F8700D4968C2F8741D28490868C2F8900D4968C2F8941D02F55762A2F56160017841F00802027021482249027802F00700120908704A701F49442045
:4003C00008701F4A1F4953F8040B8B4242F8040BF9D11B881380F8BD0048004082400040004300400B01004922420040A1460040254200400440004006400040A24300408C
:40040000E8460040160E00008802004800160140FCFFFF473800004803500140A0430040C243004008030048100300481C03004824030048CF0100496E5800407658004093
:40044000B0430040AC43004008B500F05BFB0B4B1A7842F02001197093F8FF2042F0100183F8FF1093F8002142F0100183F8001100F04CFBBDE8084000F02EBB966400402A
:40048000044B197801F00402D3B2002BF8D00249087070476565004046650040014B1878704700BF56650040024B1878C0F34010704700BF66650040044B187800F02001E0
:4004C000CAB212B1024B1B78F6E77047666500405665004008B50C4B187800F02001CAB212B10A480378F6E700F00CFB084B197841F001021A70197801F0FE021A70BDE85B
:40050000084000F003BB00BF66650040566500409665004008B5074B0F221A70FFF7DAFF05480649064A03780B7800231370537008BD00BF86640040656500406665004016
:400540008565004010B5054C23781BB9FFF7E2FF01202070BDE81040FFF776BFAC81FF1F38B50D460446FFF7A7FFF020FFF788FF200AFFF785FFE0B2FFF782FF2846FFF715
:400580007FFF0220BDE8384000F0DABA38B50C46090A0546FFF7E4FF681C80B2E1B2BDE83840FFF7DDBF37B5054601910024281901AB195D80B20134FFF7D2FF042CF6D117
:4005C0003EBDF8B505460E4617460024BC4206DA2819315D80B2FFF7C3FF0134F6E7F8BD38B50446FFF768FF0F20FFF749FF200AFFF746FFE0B2FFF743FF0020FFF740FF50
:40060000022000F09DFAFFF74FFF18B1FFF746FF0546F8E7E8B238BD000200F2034188B2FFF7DEBF38B50546FFF7DAFF691C000284B288B2FFF7D4FF221890B238BD2DE9BD
:40064000F8434FEA0027814607F2244087B238460E461446FFF7E6FF4FEA4055690D4FEAC932C1F5006502F580431FFA83F9ADB28046AC4201EB090080B2314607D92A4698
:40068000FFF79FFF621B4846711992B200E02246FFF797FF08EB0401384689B2BDE8F843FFF774BF000270B500F22645ADB200262846FFF7B7FF044618B12846FFF7B2FFF4
:4006C0000646B442F4D1204670BDF8B505460E4617460024BC4206DA281980B2FFF780FF30550134F6E7F8BDF8B5074600020C4600F5856188B215461E46FFF793FF0219BC
:400700005305FF035C0D07F5C04087B2C4F50062E11994B2A64288B2294607D92246FFF7D4FF331B384629199AB200E03246BDE8F840FFF7CABF000238B500F20145ADB230
:400740002846C9B2FFF70CFF00242846FFF748FF30B17D2C04D00120013400F0DDF9F4E7204638BD114B10B5196804460520FFF71AFF20462021FFF7DEFF200200F202411F
:400780008CB22046FFF72CFF10F01A0F03D1012000F0C2F9F5E720461021FFF7E1FE05200021BDE81040FFF7FEBE00BFB081FF1FF0B5002485B0074625462646384600F0D8
:4007C0004DFA864206D2BB5DA3F13002092A0AD8032C02DD4FF0FF3037E004A9081900F8083C013401E02E2B02D0BB195A78CAB904AB04A900205A190C1904F8080C02F8FA
:400800000C0C0DF1070313F8014F54B104AA521912F80C1C303C0A2000FB014402F80C4CF1E701350136032DC8DD042DD2D19DF807109DF804009DF8053000EB01629DF8E5
:40084000060002EB032101EB004005B0F0BD0000F8B5054616460023FF24FF2C08D106205843154A805C18B9042D00D103B1DCB20133042BF1D1FF2C1BD0104A062707FB60
:4008800004200023071D3B71270207F20442C1800571467190B2FFF779FE07F5806101F47F4046EA0501FFF75BFE20460121FFF742FF2046F8BD00BFB481FF1FB081FF1F4B
:4008C000032810B5044612D8094B062202FB003100220A714A711021FFF72DFF200200F2024398B2FF21BDE81040FFF739BE10BDB081FF1FF8B50646FA2014461F460D4699
:4009000000F00AF980210020FFF72AFE0A2000F003F90020FFF7D4FF0120FFF7D1FF0220FFF7CEFF0320FFF7CBFF1B205521FFF717FE1A205521FFF713FE01203946FFF72E
:4009400032FE21460520FFF72EFE0D4B1C60002404F10900315D80B20134FFF701FE062CF6D10F202946FFF71EFE1520FF21FFF7F7FD05200021BDE8F840FFF714BE00BF27
:40098000B081FF1F70B50D4B187808B9FFF7DAFD0A2000F0C1F80A48FFF70AFF05460948FFF706FF04460848FFF702FF0346074829462246BDE87040FFF79CBFAC81FF1FA1
:4009C000520E0000600E00006E0E00000C81FF1F08B5FFF721FEB0F117035842584108BDFFF760BE014600220120FFF731BF032802D80221FFF79FBE7047FFF7E9BF082100
:400A0000FFF799BE2DE9F843054689461446FFF703FE17282DD1194B062202FB05310A79012A26D12F0207F58466B7B2B4F5006F28BF4FF400640026A64211D217280FD1D6
:400A400000263846FFF7EEFD804618B13846FFF7E9FD0646B045F4D12846FFF7DDFDEBE7284649462246FFF7EAFD2846FFF77AFE00E000242046BDE8F88300BFB081FF1F3C
:400A800070B505460E461446FFF7C6FD172801D0002412E02846FFF705FEA04228BF204684B2002CF4D02846002132462346FFF71BFE28464021FFF73EFE204670BD38B57D
:400AC000054608460C4600F0C9F8214682B22846BDE83840FFF796BF044B1A7842F001001870197C41F001021A747047A24300400230800800F0058000BF013800467FF43A
:400B0000FCAF7047EFF3108072B6704780F31088704700BFAFF3008010B50446B4F5004F064B05D91868FFF7E3FFA4F50044F5E758686043BDE81040FFF7DABF1481FF1F7E
:400B4000024B197A4843FFF7D3BF00BF1481FF1F054B00011A7800F0100102F0EF0241EA02001870704700BFC051004038B50E4D0E4B0024E81A8510AC4205D00B4951F811
:400B8000242090470134F7E700F078F90849094A541AA5100024AC4205D0054B53F8240080470134F7E738BD880E0000880E0000880E0000900E000010B50023934203D07A
:400BC000CC5CC4540133F9E710BD82180346934202D003F8011BFAE77047000038B51C4C2568AB6BE3B9182000F040F8A863206843F20E32816B41F234230A808B804DF651
:400C0000EC620B230A818B81012200234AF6CD34C1E904234C804EF26D600524C8804C810B490C4B08680C49846B20696269414303FB0212A0FB0301511801220023121871
:400C400043EB0103C4E9042323F0004038BD00BF8881FF1F2D7F954C2DF45158034613F8012B002AFBD1181A01387047024B0146186800F003B800BF8881FF1F70B5CD1C9E
:400C800025F0030508350C2D38BF0C25002D06462DDB8D422BD31D4B1B681C469CB12268501B0DD40B2802D92060241817E0A34203D16068154A10601DE0616859601AE031
:400CC00023466468EAE72946304600F021F8431C01460CD0CC1C24F003048C4201D1256009E03046611A00F013F80130F7D10C203060002070BD04F10B01231D21F0070026
:400D0000C31A02D05A42E25070BD70BDCC81FF1F38B5064C002305460846236000F008F8431C02D1216801B1296038BDA489FF1F094A13686BB118186946884202D81060F0
:400D400018467047054B0C221A604FF0FF3318467047034B1360EEE7D081FF1FA489FF1FA889FF1F0000000057656C636F6D6520746F207468652066726565536F432045E5
:400D800078706C6F72657220426F617264210D0A002D2D2D2D2D2D2D2D2D2D2D2D2D2D2D2D2D2D2D2D2D2D2D2D2D2D2D2D2D2D2D2D2D2D2D2D2D2D2D2D2D2D2D2D2D2D2DA4
:400DC0002D2D2D2D2D2D2D2D2D2D2D2D2D2D2D2D2D2D2D2D2D2D2D2D2D2D2D2D2D0D0A0D0A00506C656173652050726573732061206B65793A20005C200D007C0D002F0D93
:400E0000002D0D000D0A5468616E6B20596F7521203A2D292000105100402000405100401000605100401000F05100401000000001400010001401400002801601408005E5
:400E400000400140000A004C014000020050014020003139322E3136382E312E313031003235352E3235352E3235352E30003139322E3136382E312E31004300F8B500BFBB
:400E8000F8BC08BC9E4670474D000000D9010000F8B500BFF8BC08BC9E46704729000000B00E00000881FF1F88000000180800000000000000DEADBEEF0000000000007D8E
:400EC00000FA0000400000000090D00300000000000000000000000000000000000000000000000000000000000000007A0E000000000000000000000000000000000000CD
:400F00000000000000000000000000000000000000000000000000000000000000000000000000000000000000000000000000002481FF1F000000000000000000000000EE
:400F40000000000000000000000000000000000000000000000000000000000000000000000000000000000000000000000000000000000000000000000000000000000071
:400F80000000000000000000000000000000000000000000000000000000000000000000000000000000000000000000000000000000000000000000000000000000000031
:400FC00000000000000000000000000000000000000000000000000000000000000000000000000000000000000000000000000000000000000000000000000000000000F1
:4010000000000000000000000000000000000000000000000000000000000000000000000000000000000000000000000000000000000000000000000000000000000000B0
:020000040003F7
:0200000480007A
:4000000002520040016400404606014028070140341401403315014034170140011B01400241014001420140014301400348014009490140044D0140045001400040190162
:40004000860F015C0554070809500B0C0D08112413101530170F19111B221D211F1E215C2D0C2F503140330F353037303BA03F015602572459045B045F018001841085C0E4
:400080008708882289C08A088B048C408DC08F029001919093409401951F972098049B609C409D80A001A1C0A301A408A57FA621A780A807AA18AB9FAC01AFFFB03FB44081
:4000C000B7FFB822BE01BF40D804D904DF010060029009840A4410A01209184019101A0421802508268B271529442A012B042C802E403002311832803544371138A83D2813
:400100003E023F8064086CD66D786E406F407603C00FC20FC40FCA9FCCFFCEFED8200104020203030401070C08040B12170119011B022508260727032C0730073310350FD8
:400140003E01580459045F018012810182048304840D880D89028B018C0D94129608980299019A0D9B029C0D9D06A811AA02AC0DB107B40FB610B902BA20BE40D409D8047D
:40018000D904DB04DF0100210310042906020C800E281222154017101A801D401E0820042108222026022740290431083310375038053A103C215D045E425F1065408240A2
:4001C0008F40902991449240931099049A129B10A090A211AA21AD02B240B310C0FEC2E0C4C5CA02CC36CEA7D6F0D81004200504060207600D080E010F80155117041C2140
:400200001DC41E611F102560340837103C203D803E01458A47204D054E024F0156515744600861206620672180218540902891509A029B549C089D449E10A080A108A20343
:40024000A430A744C0F0C2B0C4F0CC60CEB0D0F0D210D870E0106680D6809E809E8086809E80E24006105B4083409E10AE10C020D480E680E84052208E20D404E008000124
:400280000A0110011A010000C603002C01005E00C2350402C600000804002000770408030001001E39000600000080004200000080004600460080000800700080070F384C
:4002C00080000C20000011001203500004DEBCFB3FFFFFFF2200F008040000004000000004040404000000010000C00040011011C001001140014001000000000000000022
:4003000000000000000000000040400040000000100000101000000000000000020101000100000000040400040000000000000000000000000000000000000000000000BC
:40034000000000000000000000000000000000000000000000000000000000000000000000000000000000000000000000000000000000000000000000000000000000007D
:40038000000000000000000000000000000000000000000000000000000000000000000000000000000000000000000000000000000000000000000000000000000000003D
:4003C00000000000000000000000000000000000000000000000000000000000000000000000000000000000000000000000000000000000000000000000000000000000FD
:4004000000000000000000000000000000000000000000000000000000000000000000000000000000000000000000000000000000000000000000000000000000000000BC
:0200000490006A
:0400000000004005B7
:0200000490105A
:04000000BC90ACAF55
:0200000490303A
:02000000734E3D
:0200000490402A
:4000000000000000000000000000000000000000000000000000000000000000000000000000000000000000000000000000000000000000000000000000000000000000C0
:400040000000000000000000000000000000000000000000000000000000000000000000000000000000000000000000000000000000000000000000000000000000000080
:400080000000000000000000000000000000000000000000000000000000000000000000000000000000000000000000000000000000000000000000000000000000000040
:4000C0000000000000000000000000000000000000000000000000000000000000000000000000000000000000000000000000000000000000000000000000000000000000
:0200000490501A
:0C00000000012E12306900012E18A3B779
:00000001FF